:020000040800F2
:10000000000008203557000869570008C942000859
:10001000CF420008D5420008DB4200080000000083
:100020000000000000000000000000006957000808
:100030006957000800000000695700086957000868
:100040006957000869570008695700086957000890
:100050006957000869570008695700086957000880
:100060006957000869570008695700086957000870
:100070006957000869570008695700086957000860
:100080006957000869570008695700089942000835
:100090009D420008695700088D4200086957000812
:1000A0006957000869570008695700086957000830
:1000B0006957000869570008695700086957000820
:1000C0006957000869570008695700086957000810
:1000D0006957000869570008695700086957000800
:1000E00069570008695700086957000869570008F0
:1000F00069570008695700086957000869570008E0
:1001000069570008695700086957000869570008CF
:1001100069570008695700086957000869570008BF
:1001200069570008695700086957000869570008AF
:10013000695700086957000869570008AD42000870
:10014000B142000869570008A14200086957000839
:10015000695700086957000869570008695700087F
:10016000695700086957000869570008695700086F
:100170006957000869570008695700080000000027
:10018000695700086957000869570008695700084F
:10019000695700086957000869570008695700083F
:1001A000695700086957000869570008695700082F
:1001B000695700086957000869570008695700081F
:1001C00069570008695700080000000069570008D7
:1001D00069570008695700086957000869570008FF
:1001E000C1420008C542000869570008B54200082E
:1001F000695700086957000810B5054C237833B9D2
:10020000044B13B10448AFF300800123237010BDE9
:10021000D00D0020000000007C22010808B5034B2F
:100220001BB103490348AFF3008008BD0000000084
:10023000D40D00207C220108A3F5803A704700BF4E
:10024000174B002B08BF134B9D46FFF7F5FF00210E
:100250008B460F461348144A121A08F049FE0E4BFB
:10026000002B00D098470D4B002B00D09847002062
:10027000002104000D000D48002802D00C4804F0B5
:10028000C9FB08F0BDFB2000290004F07DFE04F04E
:1002900033FD00BF0000080000000000794F000897
:1002A00000000820D00D0020A8140020154A0008E6
:1002B00000000000084B10B503F12001044603F1D3
:1002C0008002B0302360C4E92C1207F0E5F9204623
:1002D00006F0E2FD204610BD981701080A4B10B544
:1002E00003F12001044603F1800240F8B43C40F8D9
:1002F000041C043844F8B42907F0CEF9204606F06F
:10030000CBFD204610BD00BF98170108094A10B563
:1003100002F1200402F1800140F8B02C0460A0F149
:10032000B004416007F0B8F9204606F0B5FD20465C
:1003300010BD00BF98170108B1B10144013830B4B5
:100340000A4D01F1FF3C0A4C2A6823681A44134401
:10035000190C81EA126100F8011F8445F6D10020D2
:100360002A60236030BC704700207047FC020020E8
:1003700000030020C1490020C14BD1F8FC202DE929
:10038000F04F42F08072BF4CADF57A5DBE4DC1F8C2
:10039000FC20C3F8B04F89B0586003241A68BB4EE4
:1003A00042F00102BA4F1A604FF07E5007F0BAFBDC
:1003B00022463146384607F081F9013CD5E9003242
:1003C000126819041A4200F0A181EB681960002C30
:1003D000EAD1214640F29C7207A806AB1C6008F0E7
:1003E00087FD42F604700DF53C53214640F69C72A1
:1003F00068441C60A74E08F07BFDA74D0DF5F76122
:1004000032680DF2B7702B6801F13A041A441344B4
:10041000190C81EA126100F8011FA042F6D12B608D
:100420004FF0640B9D4B326006AE1B689C4F986882
:1004300007F094FD9B49964807F040F99A49944883
:1004400007F03CF99749924807F038F997499048E6
:1004500007F034F996498E4807F030F9DFF820822A
:1004600092498B4807F02AF98D4806F0A7FD3846D7
:1004700006F0A4FD384606F062FD0DF53C5130460D
:10048000D8F804A001F0BAFF04463846D8F8049022
:1004900006F090FDBBF1010B0546E8D1B9EB0A026D
:1004A00084497B484FF0050863EB03037C4F07F05A
:1004B00005F92A468049764807F000F922467F4927
:1004C000734807F0FBF87E49714807F0F7F87D495B
:1004D0006F4807F0F3F87A496D4807F0EFF83846AF
:1004E000DFF89C9106F06AFD384606F067FD384655
:1004F00006F025FD0DF53C5242F2E810D9F804B0A3
:100500003B2305A9009268440DF5F76202F03CF91F
:1005100004463846D9F804A006F04CFDB8F10108AD
:100520000546E1D1BAEB0B02674959480DF1140AAF
:1005300063EB03035A4F07F0C1F82A4663494FF0B3
:100540006408534807F0BAF822466149504807F05A
:10055000B5F856494E4807F0B1F85E494C4807F0E7
:10056000ADF852494A4807F0A9F83846DFF810912B
:1005700006F024FD384606F021FD384606F0DFFC83
:10058000D9F8043042F2E81241F2D04004A90393B2
:100590006A44DAF800306844009602F0DDF9044657
:1005A0003846D9F804B006F005FDB8F10108054653
:1005B000E0D1039B4849BBEB03023548DFF8E080FC
:1005C00063EB0303DFF8B89007F078F82A46434955
:1005D0002F4807F073F82246414964242C4807F05D
:1005E0006DF840492A4807F069F83F49284807F064
:1005F00065F83C49264807F061F8294806F0DEFC1A
:10060000404606F0DBFC404606F099FC42F2E8105A
:10061000D9F804B03B230DF5F76240F6DD4168449C
:10062000009602F0CFF805464046D9F804A006F03F
:10063000C1FC013C0746E3D1BAEB0B022B4914483D
:1006400063EB030307F03AF83A462949104807F0EC
:1006500035F82A4627490E4807F030F811490C486A
:1006600007F02CF824490A4807F028F80D490848F3
:1006700007F024F8094B1B6898683FE000ED00E0A4
:10068000001000E055CEACC5EC0D0020200801089C
:10069000B80E0020FC0200200003002010040020FF
:1006A000D80E00204C0801086808010884080108D9
:1006B000A0080108BC080108E80801081809010899
:1006C0004009010854090108680901088C0901085A
:1006D000B4090108D4090108F00901081C0A01083D
:1006E0004C0A0108740A01088C0A0108A40A0108CE
:1006F000CC0A0108F40A0108180B010807F02EFCC7
:1007000020460DF57A5D09B0BDE8F08FAA68136048
:10071000002C7FF449AE5CE60A4B10B503F12001D2
:10072000044603F18002B0302360C4E92C1206F0C5
:10073000B3FF204606F0B0FB2046CC2107F0D2FAEA
:10074000204610BD981701080D4A38B502F1800106
:10075000034602F12005A0F1B40440F8B42C40F89F
:10076000045C43F80419184606F096FF204606F08C
:1007700093FB2046CC2107F0B5FA204638BD00BFD8
:10078000981701080B4A38B502F1800102F12005E3
:10079000A0F1B00440F8B02CC0E9005106F07CFF95
:1007A000204606F079FB2046CC2107F09BFA204634
:1007B00038BD00BF9817010810B5124C4FF4E13353
:1007C00039223821204606F04BFA0F4A0F492046BD
:1007D00004F01EF90E4800230E4C10218361C0E97D
:1007E0000033C0E90233C0E9043306F030FC204690
:1007F00006F0F5FB2046044A0749BDE8104004F026
:1008000007B900BF080E0020F8020020B50200085A
:10081000EC0D0020D80E00201F6F000820FB000008
:100820002DE9F04FDFF8601A01F10401DFF84C2ADE
:10083000DFF84C3ADFF84C4AD1F804C0D1F808E0B0
:1008400051F80CBBD0F80050D0F80061D0F800721D
:10085000D0F8008387FB0BA90AFB02F7C7FB03A9AB
:10086000A5EB090705EB090588FB0BA90AFB02F8B4
:10087000C8FB03A9A6EB090806EB090686FB0CA931
:100880000AFB02F6C6FB03A9A5EB090605EB090561
:1008900088FB0EA90AFB02F8C8FB03A9A7EB09080D
:1008A00007EB0907C0F80061C0F80072C0F80083C8
:1008B00040F8045B013CC5D1A0F5807040F2100403
:1008C000D1F804C0D1F808E051F80CBBD0F80050C2
:1008D000D0F84060D0F88070D0F8C08087FB0BA9BA
:1008E0000AFB02F7C7FB03A9A5EB090705EB0905FE
:1008F00088FB0BA90AFB02F8C8FB03A9A6EB0908B1
:1009000006EB090686FB0CA90AFB02F6C6FB03A947
:10091000A5EB090605EB090588FB0EA90AFB02F801
:10092000C8FB03A9A7EB090807EB0907C0F840605B
:10093000C0F88070C0F8C08040F8045B013CC5D1AD
:1009400000F1C00040F21004D1F804C0D1F808E072
:1009500051F80CBBD0F80050D0F84060D0F880704F
:10096000D0F8C08087FB0BA90AFB02F7C7FB03A9DD
:10097000A5EB090705EB090588FB0BA90AFB02F8A3
:10098000C8FB03A9A6EB090806EB090686FB0CA920
:100990000AFB02F6C6FB03A9A5EB090605EB090550
:1009A00088FB0EA90AFB02F8C8FB03A9A7EB0908FC
:1009B00007EB0907C0F84060C0F88070C0F8C0803D
:1009C00040F8045B013CC5D100F1C00040F21004C6
:1009D000D1F804C0D1F808E051F80CBBD0F80050B1
:1009E000D0F84060D0F88070D0F8C08087FB0BA9A9
:1009F0000AFB02F7C7FB03A9A5EB090705EB0905ED
:100A000088FB0BA90AFB02F8C8FB03A9A6EB09089F
:100A100006EB090686FB0CA90AFB02F6C6FB03A936
:100A2000A5EB090605EB090588FB0EA90AFB02F8F0
:100A3000C8FB03A9A7EB090807EB0907C0F840604A
:100A4000C0F88070C0F8C08040F8045B013CC5D19C
:100A500000F1C00040F21004D1F804C0D1F808E061
:100A600051F80CBBD0F80050D0F84060D0F880703E
:100A7000D0F8C08087FB0BA90AFB02F7C7FB03A9CC
:100A8000A5EB090705EB090588FB0BA90AFB02F892
:100A9000C8FB03A9A6EB090806EB090686FB0CA90F
:100AA0000AFB02F6C6FB03A9A5EB090605EB09053F
:100AB00088FB0EA90AFB02F8C8FB03A9A7EB0908EB
:100AC00007EB0907C0F84060C0F88070C0F8C0802C
:100AD00040F8045B013CC5D1A0F5507040F2100411
:100AE000D1F804C0D1F808E051F80CBBD0F80050A0
:100AF000D0F81060D0F82070D0F8308087FB0BA9B8
:100B00000AFB02F7C7FB03A9A5EB090705EB0905DB
:100B100088FB0BA90AFB02F8C8FB03A9A6EB09088E
:100B200006EB090686FB0CA90AFB02F6C6FB03A925
:100B3000A5EB090605EB090588FB0EA90AFB02F8DF
:100B4000C8FB03A9A7EB090807EB0907C0F8106069
:100B5000C0F82070C0F8308040F8045BD0F8005036
:100B6000D0F81060D0F82070D0F8308087FB0BA947
:100B70000AFB02F7C7FB03A9A5EB090705EB09056B
:100B800088FB0BA90AFB02F8C8FB03A9A6EB09081E
:100B900006EB090686FB0CA90AFB02F6C6FB03A9B5
:100BA000A5EB090605EB090588FB0EA90AFB02F86F
:100BB000C8FB03A9A7EB090807EB0907C0F81060F9
:100BC000C0F82070C0F8308040F8045BD0F80050C6
:100BD000D0F81060D0F82070D0F8308087FB0BA9D7
:100BE0000AFB02F7C7FB03A9A5EB090705EB0905FB
:100BF00088FB0BA90AFB02F8C8FB03A9A6EB0908AE
:100C000006EB090686FB0CA90AFB02F6C6FB03A944
:100C1000A5EB090605EB090588FB0EA90AFB02F8FE
:100C2000C8FB03A9A7EB090807EB0907C0F8106088
:100C3000C0F82070C0F8308040F8045BD0F8005055
:100C4000D0F81060D0F82070D0F8308087FB0BA966
:100C50000AFB02F7C7FB03A9A5EB090705EB09058A
:100C600088FB0BA90AFB02F8C8FB03A9A6EB09083D
:100C700006EB090686FB0CA90AFB02F6C6FB03A9D4
:100C8000A5EB090605EB090588FB0EA90AFB02F88E
:100C9000C8FB03A9A7EB090807EB0907C0F8106018
:100CA000C0F82070C0F8308040F8345BB4F1010423
:100CB0007FF416AFA0F580604FF04004D1F804C077
:100CC000D1F808E051F80CBBD0F80050D0F804601F
:100CD000D0F80870D0F80C8087FB0BA90AFB02F74C
:100CE000C7FB03A9A5EB090705EB090588FB0BA9C1
:100CF0000AFB02F8C8FB03A9A6EB090806EB0906E4
:100D000086FB0CA90AFB02F6C6FB03A9A5EB0906A4
:100D100005EB090588FB0EA90AFB02F8C8FB03A92D
:100D2000A7EB090807EB0907C0F80460C0F80870D2
:100D3000C0F80C8040F8105B013CBFD1BDE8F08FDB
:100D40002DE9F04FDFF83425DFF83435DFF83C15B6
:100D5000DFF8304551F804CC51F808EC51F80CB9E3
:100D6000D0F80050D0F80460D0F80870D0F80C80AB
:100D7000A6EB050905EB060589FB0BA60AFB02F9A4
:100D8000C9FB03A6A8EB070907EB080789FB0CA81A
:100D90000AFB02F9C9FB03A8A7EB050905EB070548
:100DA00089FB0EA70AFB02F9C9FB03A7A8EB0609FA
:100DB00006EB080689FB0EA80AFB02F9C9FB03A88B
:100DC000C0F80460C0F80870C0F80C8040F8105BF0
:100DD000013CBFD1A0F5806040F2100451F804CC72
:100DE00051F808EC51F80CB9D0F80050D0F8106068
:100DF000D0F82070D0F83080A6EB050905EB060589
:100E000089FB0BA60AFB02F9C9FB03A6A8EB07099D
:100E100007EB080789FB0CA80AFB02F9C9FB03A82A
:100E2000A7EB050905EB070589FB0EA70AFB02F9ED
:100E3000C9FB03A7A8EB060906EB080689FB0EA869
:100E40000AFB02F9C9FB03A8C0F81060C0F82070C3
:100E5000C0F8308040F8045BD0F80050D0F8106043
:100E6000D0F82070D0F83080A6EB050905EB060518
:100E700089FB0BA60AFB02F9C9FB03A6A8EB07092D
:100E800007EB080789FB0CA80AFB02F9C9FB03A8BA
:100E9000A7EB050905EB070589FB0EA70AFB02F97D
:100EA000C9FB03A7A8EB060906EB080689FB0EA8F9
:100EB0000AFB02F9C9FB03A8C0F81060C0F8207053
:100EC000C0F8308040F8045BD0F80050D0F81060D3
:100ED000D0F82070D0F83080A6EB050905EB0605A8
:100EE00089FB0BA60AFB02F9C9FB03A6A8EB0709BD
:100EF00007EB080789FB0CA80AFB02F9C9FB03A84A
:100F0000A7EB050905EB070589FB0EA70AFB02F90C
:100F1000C9FB03A7A8EB060906EB080689FB0EA888
:100F20000AFB02F9C9FB03A8C0F81060C0F82070E2
:100F3000C0F8308040F8045BD0F80050D0F8106062
:100F4000D0F82070D0F83080A6EB050905EB060537
:100F500089FB0BA60AFB02F9C9FB03A6A8EB07094C
:100F600007EB080789FB0CA80AFB02F9C9FB03A8D9
:100F7000A7EB050905EB070589FB0EA70AFB02F99C
:100F8000C9FB03A7A8EB060906EB080689FB0EA818
:100F90000AFB02F9C9FB03A8C0F81060C0F8207072
:100FA000C0F8308040F8345BB4F101047FF416AF30
:100FB000A0F5806040F2100451F804CC51F808EC20
:100FC00051F80CB9D0F80050D0F84060D0F88070DB
:100FD000D0F8C080A6EB050905EB060589FB0BA63A
:100FE0000AFB02F9C9FB03A6A8EB070907EB0807F0
:100FF00089FB0CA80AFB02F9C9FB03A8A7EB0509AA
:1010000005EB070589FB0EA70AFB02F9C9FB03A73D
:10101000A8EB060906EB080689FB0EA80AFB02F9F5
:10102000C9FB03A8C0F84060C0F88070C0F8C08059
:1010300040F8045B013CC5D100F1C00040F210044F
:1010400051F804CC51F808EC51F80CB9D0F8005024
:10105000D0F84060D0F88070D0F8C080A6EB0509C9
:1010600005EB060589FB0BA60AFB02F9C9FB03A6E3
:10107000A8EB070907EB080789FB0CA80AFB02F994
:10108000C9FB03A8A7EB050905EB070589FB0EA71C
:101090000AFB02F9C9FB03A7A8EB060906EB080641
:1010A00089FB0EA80AFB02F9C9FB03A8C0F840603F
:1010B000C0F88070C0F8C08040F8045B013CC5D126
:1010C00000F1C00040F2100451F804CC51F808ECD3
:1010D00051F80CB9D0F80050D0F84060D0F88070CA
:1010E000D0F8C080A6EB050905EB060589FB0BA629
:1010F0000AFB02F9C9FB03A6A8EB070907EB0807DF
:1011000089FB0CA80AFB02F9C9FB03A8A7EB050998
:1011100005EB070589FB0EA70AFB02F9C9FB03A72C
:10112000A8EB060906EB080689FB0EA80AFB02F9E4
:10113000C9FB03A8C0F84060C0F88070C0F8C08048
:1011400040F8045B013CC5D100F1C00040F210043E
:1011500051F804CC51F808EC51F80CB9D0F8005013
:10116000D0F84060D0F88070D0F8C080A6EB0509B8
:1011700005EB060589FB0BA60AFB02F9C9FB03A6D2
:10118000A8EB070907EB080789FB0CA80AFB02F983
:10119000C9FB03A8A7EB050905EB070589FB0EA70B
:1011A0000AFB02F9C9FB03A7A8EB060906EB080630
:1011B00089FB0EA80AFB02F9C9FB03A8C0F840602E
:1011C000C0F88070C0F8C08040F8045B013CC5D115
:1011D000A0F5507040F24004D1F800B051F804CCB2
:1011E00051F80CECDFF89010D0F80050D0F8006106
:1011F000D0F80072D0F80083A6EB050905EB0605D0
:1012000089FB0BA60AFB02F9C9FB03A6A8EB070999
:1012100007EB080789FB0CA80AFB02F9C9FB03A826
:10122000A7EB050905EB070589FB0EA70AFB02F9E9
:10123000C9FB03A7A8EB060906EB080689FB0EA865
:101240000AFB02F9C9FB03A885FB01A50AFB02F909
:10125000C9FB03A586FB01A60AFB02F9C9FB03A68D
:10126000C0F80061C0F80072C0F8008340F8045B69
:10127000013CB9D1BDE8F08FFAA30000FFDF7FFC8D
:1012800001E07F0040000000340B0108300F01082E
:101290004B1CC31A022B70B51FD90B6803604B6837
:1012A00043608B688360CB68C3600B6903614B69E3
:1012B00043618B698361CB69C36100F120041546EA
:1012C00000F5F466204604F5A074294605F580650E
:1012D00000F0A0FCA642F5D170BD4B1E441E1F318C
:1012E00013F801CF994204F801CFF9D1E5E700BF27
:1012F000531CC31A022B70B51FD9136803605368BF
:10130000436093688360D368C36013690361536962
:10131000436193698361D369C3610D4602F120047F
:1013200002F5F466214604F5A074284605F58065AB
:1013300000F0A2FCA642F5D170BD541E431E02F17E
:101340001F0C14F8010FA44503F8010FF9D1E4E7CD
:10135000F8B50446481C201A022863D908682060A2
:10136000486860608868A060C868E06008692061BB
:10137000486960618869A061C969E161E11A1F314A
:1013800002295CD919682162596861629968A16271
:10139000D968E16219692163596961639969A16337
:1013A000DB69E363A31A3F33022B56D91368236426
:1013B000536863649368A364D368E3641369236523
:1013C000536963659369A365D369E365079D04F178
:1013D000600605F5A057294605F58065304680363C
:1013E00000F0E2FBBD42F6D1089D04F5387605F524
:1013F000C057294605F580653046803600F0D4FB9D
:10140000BD42F6D104F5BC65069E04F57A64284613
:1014100005F5D075314606F5806600F05FFCA54203
:10142000F5D1F8BD481E651E1F3110F8016F8142CD
:1014300005F8016FF9D1E11A1F310229A2D8591E0E
:1014400004F11F001F3311F8015F8B4200F8015FA8
:10145000F9D1A31A3F33022BA8D8531E04F13F0140
:101460001F3213F8010F934201F8010FF9D1ADE7D4
:101470002DE9F041089C1E46631CC31A022B65D956
:101480002368036063684360A3688360E368C360A4
:101490002369036163694361A3698361E369C3618C
:1014A00004F12103D31A022B5FD9236A1360636A04
:1014B0005360A36A9360E36AD360236B1361636B29
:1014C0005361A36B9361E36BD36104F14103CB1AC6
:1014D000022B5AD9236C0B60636C4B60A36C8B603E
:1014E000E36CCB60236D0B61636D4B61A36D8B610E
:1014F000E36DCB61069D04F1600705F5A058284611
:1015000005F580653946803700F068FBA845F6D1BF
:10151000079D04F5387705F5C058284605F5806520
:101520003946803700F05AFB4545F6D104F5BC65D5
:1015300004F57A64294605F5D075304606F58066CF
:1015400000F02EFCA542F5D1BDE8F081431E04F168
:101550001F07601E10F8015F874203F8015FF9D191
:1015600004F12103D31A022B9FD804F11F03013A7F
:1015700004F13F0513F8010F9D4202F8010FF9D164
:1015800004F14103CB1A022BA4D804F13F034A1EF5
:1015900004F15F0013F8011F834202F8011FF9D123
:1015A000A8E700BF2DE9F0411D464B1C8046C31A39
:1015B000022B3DD90B6803604B6843608B688360E6
:1015C000CB68C3600B6903614B6943618B698361BD
:1015D000CB69C36108F12006174608F54A64304616
:1015E00006F52076394607F5806700F079FCB442AD
:1015F000F5D13D220021204608F6D64607F078FCBA
:1016000008F6DC48A5F1040C00206246002352F8DD
:10161000041F09B1235401300133B3F5807FF6D1A3
:1016200006F8010FB0450CF5806CEED1BDE8F081F5
:101630004B1E01381F3113F8014F8B4200F8014F48
:10164000F9D1C7E72DE9F8431F4601331646C31AFF
:10165000022B63D93B6803607B684360BB6883608F
:10166000FB68C3603B6903617B694361BB6983615C
:10167000FB69C3610D4607F1200407F54A6821465E
:1016800004F52074284605F5806500F051FC4445BA
:10169000F5D107F6D64900244D46A0464FF48062A6
:1016A000002106EB882007F023FC15F8012FA24249
:1016B00010461CD3372A4FF0010318D8A24219D97B
:1016C00004F54A6221464FEA082C3A4412F8010B0D
:1016D0000131604446F82030287888420AD9A14276
:1016E000F4D992F800E012F8010C8645EED80120FA
:1016F000BDE8F88308F10108B8F1060F01D00446EF
:10170000CCE7362818D800F69F40384401E08145E0
:101710000FD010F8013F002BF9D0E8E77A1E431EE6
:1017200007F11F0412F8010FA24203F8010FF9D1CB
:10173000A0E71846BDE8F8830020D9E72DE9F04F6F
:101740004DF6FF73CFF67F434EF20104C0F27F04E3
:1017500040F2550CD1F80460D1F8087051F80C5BD8
:10176000D2F80490D2F808A052F80C8B85FB085EE2
:1017700005FB03F8C8FB045E40F804EB86FB096E2A
:1017800006FB03F9C9FB046E40F804EB87FB0A7EF5
:1017900007FB03FACAFB047E40F804EBBCF1010C22
:1017A0007FF4D8AFD1F80050D2F8008085FB085EF6
:1017B00005FB03F8C8FB045EC0F800E0BDE8F08F4D
:1017C0002DE9F04F4DF6FF73CFF67F434EF2010443
:1017D000C0F27F0440F2550CD1F80460D1F80870D3
:1017E00051F80C5BD2F80490D2F808A052F80C8B98
:1017F00085FB085E05FB03F8C8FB045E86FB0965F4
:1018000006FB03F9C9FB046587FB0A7607FB03FAAD
:10181000CAFB0476D0F80080D0F80490D0F808A075
:101820000EEB080E40F80CEB05EB090540F8085CE0
:1018300006EB0A0640F8046CBCF1010C7FF4CCAF57
:10184000D1F80050D2F80080D0F8006085FB085E27
:1018500005FB03F8C8FB045E0EEB060EC0F800E0C3
:10186000BDE8F08F01F0ECB801F04AB900B50438DA
:10187000043AA1F1040C01F57F7E5CF8043F52F8B4
:10188000041FF4450B4440F8043FF6D15DF804FB17
:1018900000B50438043AA1F1040C01F57F7E5CF830
:1018A000043F52F8041FF445A3EB010340F8043F42
:1018B000F5D15DF804FB00BF031F00F57F7153F8FD
:1018C000042F52038B421A60F9D17047FEF7A8BF6C
:1018D000FFF736BAFFF732BFFFF772BFF8B5061F42
:1018E0000C46151F02F57F7755F8041F204600F0BF
:1018F0001FFD0434BD4246F8040FF5D1F8BD00BF0A
:10190000F8B5061F0C46151F02F57F7755F8041F22
:10191000204600F019FD0434BD4246F8040FF5D10D
:10192000F8BD00BF2DE9F041061F151F0C1F01F582
:101930007F78002754F8040F55F8041F00F022FDAB
:101940004445074446F8040FF4D13846BDE8F08119
:10195000F8B5061F151F0C1F01F57F7754F8040F0B
:1019600055F8041F00F026FDBC4246F8040FF5D1DF
:10197000F8BD00BF0A4B99420EDCA0F1040C00F543
:101980007F7001E0844509D05CF8043FDA1702EA71
:1019900043029B1A9942F5DC0120704700207047F2
:1019A00000FC0F0030B5ADF2244D0546684601F04D
:1019B00013F86A464FF4527135A801F079F94FF4E3
:1019C000527335AA4FF48071284601F0E1F8FF28E0
:1019D00010D804466A46A82135A801F069F9C4F573
:1019E000807105EB8400A82335AA01F0D1F80444E6
:1019F000FF2CEFD90DF2244D30BD00BF2DE9F04191
:101A0000F8B00546684634AC01F000F86A464FF479
:101A1000887134A801F0FCF9002240F20F1C114635
:101A200014F8013B013103F00F001B090828C0F135
:101A30000406C3F1040702D845F822600132FF2AE8
:101A400002F101068CBF00200120082B08D838B114
:101A5000614545F8227009D8FF2E07D83246DFE7E6
:101A60006145164601D80028F8D11646B6F5807FA4
:101A70002ED06A46882134A805EB860801F0C8F903
:101A80000022C6F5807E34A8114610F8013B0131D2
:101A900003F00F0C1B09BCF1080FCCF10404C3F1D7
:101AA000040702D848F822400132964594BF00242A
:101AB0000124082B02F101030DD864B1872948F8ED
:101AC00022701A4601D89E45DFD81E44FF2ED0D979
:101AD00078B0BDE8F081872901D8002CD5D1134614
:101AE0001E44FF2EC5D9F3E7F0B5D9B00746CF2481
:101AF00024A8019101F022F92022019924A801F0E3
:101B000029F924A801F062F924AA882102A801F089
:101B10007FF99DF809309DF808504FF480629DF8D8
:101B20000C60002145EA03259DF80A30384645EA55
:101B300003459DF80B3045EA03659DF80D3046EAF4
:101B400003269DF80E3046EA03469DF80F3046EA1C
:101B5000036607F0CDF90823872B24AA4FF08801EC
:101B600002A806D901F054F99DF8082001239442F7
:101B700004D202AAD25C0133A242EDD805F00101E1
:101B800057F822006D0847F824004900013445EA5F
:101B9000C675C1F101017608B4F5807F47F82210BF
:101BA000DAD159B0F0BD00BF00B54FF0000C0138DC
:101BB00001F1040E5EF83C2051F83C300CF1010CB0
:101BC000C2F10402C3F10403BCF1800FD2B243EAB4
:101BD000021300F8013FEDD15DF804FB00B50022CF
:101BE000013900F1040E11F8013F03F00F0340F832
:101BF0003230C3F1040391F800C040F832304FEAAC
:101C00001C1CCCF104034EF832300132802AEAD198
:101C10005DF804FB01F5806210B40B6810310530EB
:101C200000F8053C914251F80C3C51F8104C4FEA39
:101C3000830343EA242300F8043C51F8083C51F89C
:101C40000C4C4FEA031343EAA41300F8033C51F889
:101C5000043C51F8084C4FEA831343EA241300F87C
:101C6000023C51F8043C4FEAA30300F8013CD4D1F4
:101C70005DF8044B704700BF01F5A07291F801C0F8
:101C800010300B78053143EA0C238A42C3F3090371
:101C900040F8103C11F8033C11F804CC4FEA8313D0
:101CA00043EA9C03C3F3090340F80C3C11F8023CDF
:101CB00011F803CC4FEA031343EA1C13C3F30903DF
:101CC00040F8083C11F8013C11F802CC4FEA8303BC
:101CD00043EA9C1340F8043CD0D170472DE9F04F03
:101CE00000F5D07C83B04D680D300F68C5F5805588
:101CF000C7F580574FEAD50A4FEA4519D1E9066280
:101D0000D1E90434019249EA1729CA68C3F580531E
:101D1000C6F58056C4F58054C2F5805E8A6800F826
:101D20000BAC2031C2F5805800F80D7C019A1F01E0
:101D30004FEA880B00F80C9C4FEACE1AC2F580528D
:101D40004BEAD52547EA5E274FEA5E0B00F80A5CAE
:101D50004AEA981E00F8077C650000F808BC00F805
:101D600009EC4FEA86194FEAC20E45EA13354FEAED
:101D700096081B0900F8055C520900F8038C49EA33
:101D8000D41400F8063C4EEA962E00F8012C00F818
:101D9000044C00F802EC8445A5D103B0BDE8F08FF7
:101DA0002DE9F04301F5D07E0B7820300D3140F85D
:101DB000203C11F80CCC43EA0C23C3F30C0340F88D
:101DC000203CC3F5805C11F80C5C6D0940F81C5C8C
:101DD00011F80B3C45EAC30540F81C5C11F80A3CBD
:101DE00045EAC325C5F30C0540F81C5CC5F58055D4
:101DF00011F80A7CBF0840F8187C11F8093C47EA42
:101E00008317C7F30C0740F8187CC7F5805711F803
:101E1000094CE40940F8144C11F8083C44EA430426
:101E200040F8144C11F8073C44EA4324C4F30C0472
:101E300040F8144CC4F5805411F8072C120940F8EE
:101E4000102C11F8063C42EA031240F8102C11F84D
:101E5000053C42EA0332C2F30C0240F8102CC2F5F2
:101E6000805211F8056C760840F80C6C11F8043CAF
:101E700046EAC316C6F30C0640F80C6CC6F580564D
:101E800011F8043C9B0940F8083C11F8038C43EA24
:101E9000880340F8083C11F8028C8E4543EA8823F9
:101EA000C3F30C0340F8083CC3F5805311F8028CCF
:101EB0004FEAD80840F8048C11F8019C40F8102C27
:101EC00048EA4918C8F5805240E908C540E9067457
:101ED00040E9036340F8042C7FF466AFBDE8F0836B
:101EE00070B54FF0000C0E1D56F83C30053051F81F
:101EF0003C200CF1010CC3F50023C2F50022BCF11B
:101F0000800F4FEA031E4FEA131400F8052C4FEA26
:101F100012254FEA133300F8024C4EEA124E00F835
:101F2000045C00F8013C00F803ECDDD170BD00BF9B
:101F300010B54FF0000C00F1040E0B78053140F89D
:101F40003C3011F8042C43EA022340F83C3011F8ED
:101F5000032C43EA0243C3F3130340F83C30C3F5B8
:101F6000002311F8032C12094EF83C2011F8024C02
:101F700042EA04124EF83C2011F8014C40F83C3083
:101F800042EA0432C2F500224EF83C200CF1010C6A
:101F9000BCF1800FD1D110BD10B5ADF55E7D04460A
:101FA000684600F033FD6A4634A84FF42A7100F009
:101FB0002FFF34A92046FFF7BBFF0DF55E7D10BD56
:101FC0000023013801F1040C10B45CF8334051F8DF
:101FD0003320013342EA0412802B00F8012FF4D1A0
:101FE0005DF8044B704700BF2DE9F041002788469B
:101FF00000F5A056A6F5A0553C46284605F5806597
:10200000224641460134FFF7CDFCAE42A4B2F4D1E2
:1020100007F5807706F5A056BFB2B7F5C06FE9D1D6
:10202000BDE8F0812DE9F0410D460646174601F561
:10203000F0483A46294630464FF48064FFF74AFCA0
:102040003A19611904F580643046FFF745FCB4F590
:10205000A05FF5D105F5A05506F580664545E8D1A8
:10206000BDE8F081F8B505460E46144600F5A057C8
:10207000284605F58065224631460134FFF7BEFC4F
:10208000BD42A4B2F4D1F8BD02EB8202F8B5054618
:102090000E4694B200F5A057284605F58065224605
:1020A00031460134FFF778FFBD42A4B2F4D1F8BD48
:1020B00038B5044600F5A055204604F58064FFF7C6
:1020C000D1FBAC42F8D138BDF8B5002407460E4626
:1020D00015462A193119381904F58064FFF7C6FB33
:1020E000B4F5A05FF5D1F8BD38B5044600F5A055AC
:1020F000204604F58064FFF7E9FBAC42F8D138BD17
:1021000038B5044600F5A055204604F58064FFF775
:10211000DFFBAC42F8D138BDF8B504460E46154693
:1021200000F5A057204604F580642A463146FFF7A3
:10213000D1FBBC4205F58065F4D1F8BD70B504460D
:102140000D4600F5A0562046294604F58064FFF7A9
:1021500011FC10B9B442F6D170BD012070BD00BFB2
:10216000F8B505460E46144600F5C057284605F555
:102170008065224631460134FFF740FCBD42A4B2DF
:10218000F4D1F8BD38B5044600F5C055204604F535
:102190008064FFF767FBAC42F8D138BD38B5044620
:1021A00000F5C055204604F58064FFF75DFBAC42A6
:1021B000F8D138BDF8B5002407460E4615462A1951
:1021C0003119381904F58064FFF750FBB4F5C05F8E
:1021D000F5D1F8BDF8B5002407460E4615462A1974
:1021E0003119381904F58064FFF752FBB4F5C05F6C
:1021F000F5D1F8BD38B5044600F5C055204604F5C4
:102200008064FFF759FBAC42F8D138BD38B50446BD
:1022100000F5C055204604F58064FFF757FBAC423B
:10222000F8D138BD38B5044600F5C055204604F550
:102230008064FFF74DFBAC42F8D138BDF8B50446D9
:102240000E46154600F5C057204604F580642A4620
:102250003146FFF73FFBBC4205F58065F4D1F8BD80
:1022600070B504460D4600F5C0562046294604F5D3
:102270008064FFF77FFB10B9B442F6D170BD012036
:1022800070BD00BFF8B5002407460E4615462A1952
:102290003119381904F58064FFF720FBB4F5C05FED
:1022A000F5D1F8BDF8B5002407460E4615462A19A3
:1022B0003119381904F58064FFF722FBB4F5C05FCB
:1022C000F5D1F8BD2DE9F041002480460F461646B1
:1022D00025463219391908EB040004F58064FFF72C
:1022E00021FB0544B4F5C05FF3D12846BDE8F08179
:1022F000F8B5002407460E4615462A193119381933
:1023000004F58064FFF724FBB4F5C05FF5D1F8BD98
:1023100070B504460D4600F54076204680342946C7
:1023200005F58065FFF74CFEB442F6D170BD00BFE5
:102330000246044B01F6FF7003404013C91A1160B6
:10234000704700BF00E0FFFF844601F17F000B4AA9
:10235000C0110B4B00EB802000F50010C0F3835040
:1023600000B5A0EB802E01EB4E21521A03EAE27376
:10237000C91ACCF800105DF804FB00BF00F03F0064
:1023800001E07F00084B094A034493420AD8084BF6
:102390000029A0EB0300B0FA80F04FEA501008BF0C
:1023A000002070470120704700FF030000FE070077
:1023B0000001FCFF00F17F030246DB1103EB8323E6
:1023C00003F50013C3F3835091B1A0EB802C0949AE
:1023D000094B02EB4C22891A03EAE173D21A002A54
:1023E00003DD013000F00F007047013800F00F00EE
:1023F000704700BF00F03F0001E07F002DE9F04191
:10240000ADF5684D04460E462021ACB042F6B0074B
:102410000CA82CADFDF790FF0CAA202380211046BC
:102420000DF1500800F03AFD0CAB47F2B0006F44DC
:1024300019466844FFF7D8FD414628460022FFF7B9
:1024400011FE414638460522FFF78AFE41F2B040B0
:1024500029464FF4A052684445F6B00806F032FC15
:1024600041F2B040E8446844FFF73EFE41F2B0421A
:1024700047F2B00144F2B0006A4469446844FFF78F
:10248000D1FD44F2B0006844FFF77CFE44F2B00096
:102490006844FFF7C7FE44F2B0013A466944084673
:1024A000FFF788FE44F2B0006844FFF777FE44F27D
:1024B000B00241466A441046FFF7E4FE44F2B0021F
:1024C0000CA920466A44FEF7E3FE224604A84FF416
:1024D000F463202100F0E2FC304604AA24AB0CA9EE
:1024E00002970195CDF80080FEF732FF00200DF530
:1024F000684D2CB0BDE8F0812DE9F04FADF5983D69
:102500009D4C1E4645F6C819F3B01546DFF86CA27F
:102510003AAB6C440DF59478E94424680DF5B9673D
:10252000049103F1200144F2C81342460294044688
:102530006B443AA8CDF8049000970591FEF798FFF8
:1025400006A8DFF83CB200F0F9FB0599202206A8A6
:1025500000F000FC2946324606A800F0FBFB06A866
:1025600000F034FC06AA402152A800F051FC42467B
:102570006023402162A8002500F090FC4BF6C810B3
:102580003AA9DFF800826844FFF72EFD3846FFF7CE
:10259000ABFD4846FFF73AFE44F2C8106844FFF727
:1025A00035FE00E0013541F6C810AAB262A96844C0
:1025B000FFF76AFD41F6C81142F6C8504FF4A05229
:1025C0006944684406F07EFB42F6C8506844FFF751
:1025D0008BFD42F6C8524BF6C81147F2C8106A4448
:1025E00069446844FFF71EFD47F2C8106844FFF7CE
:1025F000C9FD47F2C8106844FFF714FE47F2C8103F
:102600006844FFF7CBFD47F2C81248F6C8116A4488
:1026100069441046FFF746FE47F2C8112046694458
:10262000FFF776FE06A800F089FB402252A906A813
:1026300000F090FB21464FF4407206A800F08AFBA0
:1026400006A800F0C3FB06AA2021204600F0E0FB0C
:10265000214672A8FFF748FA72A8FFF737F942F649
:10266000C8503A4672A96844FFF756FD42F6C85072
:102670006844FFF745FD42F6C85141F6C812694467
:102680006A440846FFF720FD42F6C8506844FFF749
:102690000FFD42F6C85041466844FFF74FFD002841
:1026A00080D14AF2C8104A4672A96844FFF7C6FDB5
:1026B0004AF2C8106844FFF7B5FD48F6C8114AF25F
:1026C000C81269446A440846FFF784FD48F6C810FA
:1026D0006844FFF757FD48F6C81051466844FFF7B5
:1026E000BFFD00287FF45EAF44F2C8124AF2C81062
:1026F00072A96A446844FFF7A1FD4AF2C810684411
:10270000FFF790FD4AF2C8106844FFF73BFD4AF21C
:10271000C81059466844FFF7A3FD064600287FF419
:1027200041AF48F6C8114AF2C81269446A440846E3
:10273000FFF740FD47F2C81248F6C8114AF2C81028
:102740006A4469446844FFF7BDFD37283FF62AAF65
:102750004AF2C81342F6C852204621466B446A44E6
:10276000FEF720FF40F6DD433046049A13600DF576
:10277000983D73B0BDE8F08FF03101003CFE0300DE
:1027800000FF03003CFF070070B50E4682B01D46F7
:1027900053B103F6DD4E02EB030C86441CF8014DE9
:1027A00062450EF8014DF9D1069A2B46314600924A
:1027B00000F6DD42FFF7A0FE336800202B443360B3
:1027C00002B070BDF0B5ADF55C4D04461D4640F657
:1027D000DD409DB04DF6884381426B441E6840F059
:1027E000B18041F670416846174632466944FEF7AB
:1027F0007FFD44F6704223460DF507616A4408A840
:10280000FEF720FF002840F09D8052490DF507603B
:10281000FFF794FC0446002840F094804FF4F463E2
:102820003246202118A800F039FB28A800F086FACB
:10283000202218A928A800F08DFA2A46394628A88F
:1028400000F088FA28A800F0C1FA28AA402118A8A8
:1028500000F0DEFA08A90DF58E60FFF745F946F2A3
:10286000704069466844FFF7BFFB0DF50760FFF74E
:102870003BFC46F2704143F270400DF5076269443B
:102880006844FFF7CFFB0DF58E60FFF71FF841F6A8
:1028900070406844FFF7AEFC41F670406844FFF7B3
:1028A000B5FC41F670420DF58E616A441046FFF7A3
:1028B000C5FC43F2704141F6704269446A440846DF
:1028C000FFF788FC43F270406844FFF75BFC43F27B
:1028D00070406844FFF7A6FC43F270406844FFF77D
:1028E0005DFC43F2704144F6704269446A44084614
:1028F000FFF7FEFC43F270415CA86944FFF708FD56
:1029000028A800F01BFA18A9402228A800F022FAF3
:102910005CA94FF4407228A800F01CFA28A800F027
:1029200055FA28AA202110A800F072FA10AA08ABC4
:10293000964601E0734507D013F801CB12F8011B4E
:102940008C45F7D04FF0FF3420460DF55C4D1DB09F
:10295000F0BD00BF3CFF0700F0B51C4640F6DC436D
:1029600083B007469C420D4610D84FF0FF330B60F2
:1029700044B1002C4FF00001384614BF224601221A
:1029800006F0B6FA4FF0FF3003B0F0BD1646A4F6DD
:10299000DD43089A3046009206F6DD420B6040F6B1
:1029A000DD41FFF70FFF98B92B68002BECD006F63E
:1029B000DC4407F1FF3C234614F8012FA3F6DB4368
:1029C0000CF8012F2A689B1B9A42F4D803B0F0BD83
:1029D0004FF0FF332B60CCE710B5130A84B00446E8
:1029E0008DF80D3001918DF80C2000F0F7F8019969
:1029F0002046202200F0FEF8022203A9204600F023
:102A0000F9F8204600F032F904B010BD10B5130AF1
:102A100084B004468DF80D3001918DF80C2000F043
:102A20008DF901992046402200F094F9022203A971
:102A3000204600F08FF9204600F0C8F904B010BD20
:102A40002DE9F0074EF2010CC0F27F0C40F2200A93
:102A5000D0F80010D0F80420D0F80830D0F80C409E
:102A6000D0F81050D0F81460D0F81870D0F81C804E
:102A700001F580095FEAE95909FB1C1102F580099B
:102A80005FEAE95909FB1C2203F580095FEAE9596D
:102A900009FB1C3304F580095FEAE95909FB1C4472
:102AA00005F580095FEAE95909FB1C5506F580091F
:102AB0005FEAE95909FB1C6607F580095FEAE959F5
:102AC00009FB1C7708F580095FEAE95909FB1C88B6
:102AD000C0F80420C0F80830C0F80C40C0F810500E
:102AE000C0F81460C0F81870C0F81C8040F8201BB3
:102AF000BAF1010A7FF4ACAFBDE8F007704700BF40
:102B00002DE9F0074EF2010CC0F27F0C40F2200AD2
:102B1000D0F80010D0F80420D0F80830D0F80C40DD
:102B2000D0F81050D0F81460D0F81870D0F81C808D
:102B30000CEAE17949440CEAE2794A440CEAE37987
:102B40004B440CEAE4794C440CEAE5794D440CEA38
:102B5000E6794E440CEAE7794F440CEAE879C84438
:102B6000C0F80420C0F80830C0F80C40C0F810507D
:102B7000C0F81460C0F81870C0F81C8040F8201B22
:102B8000BAF1010A7FF4C4AFBDE8F007704700BF97
:102B90002DE970004DF8041D4EF2000CC0F27F0CC0
:102BA00000EB810602EB0303A3F10203B3EB020F78
:102BB00040F30A8052F8035BC5F316056545D8BF9C
:102BC00040F8045BB042F1D15DF8045BA6EB000075
:102BD000A5EB9000BDE87000704700BFC82200213F
:102BE00010B5044606F084F900220023C4E932231C
:102BF00010BD00BF2DE9704315460E460446D0E9CE
:102C00003223A91843F10003A82973F100031FD34D
:102C10004FF000084FF000093146C2F1A8032046EA
:102C200000F0D2F9D4F8C8302046A3F1A802C3F1CD
:102C3000A803C4E9328915441E4400F0F9F9D4E927
:102C40003223511943F10003A82973F10003E3D2A1
:102C50002B463146204600F0B7F9D4E932325B19F1
:102C600042F10002C4E93232BDE8708310B5A823F6
:102C7000B2B0044600211A46684606F039F9D4F885
:102C8000C81032AA1F20A8230A44694602F8C80CBB
:102C900000229DF8A70060F07F008DF8A700204675
:102CA00000F092F900220023C4E9322332B010BDB3
:102CB0002DE9F8430E464FF0000815460146D2E9CB
:102CC0003249A64278EB09030ED23346C4F1A8027A
:102CD000284600F051F9D5E932329E1B62F100021C
:102CE000C5E93262BDE8F8832346C4F1A80207199A
:102CF000284600F041F9D5F8C8301B1BC5F8C8308C
:102D0000D5F8CC3063EB0903361BC5F8CC30E9D0DD
:102D1000A82E3446284628BFA82400F089F9394651
:102D200000222346284600F027F9C4F1A803361BE9
:102D30002744C5E93238EBD1BDE8F883C822002129
:102D400010B5044606F0D4F800220023C4E932236B
:102D500010BD00BF2DE9704315460E460446D0E96C
:102D60003223A91843F10003882973F100031FD30C
:102D70004FF000084FF000093146C2F188032046A9
:102D800000F022F9D4F8C8302046A3F18802C3F13C
:102D90008803C4E9328915441E4400F049F9D4E996
:102DA0003223511943F10003882973F10003E3D260
:102DB0002B463146204600F007F9D4E932325B1940
:102DC00042F10002C4E93232BDE8708310B58823B5
:102DD000B2B0044600211A46684606F089F8D4F8D5
:102DE000C81032AA1F2088230A44694602F8C80C7A
:102DF00000229DF8870060F07F008DF88700204654
:102E000000F0E2F800220023C4E9322332B010BD02
:102E10002DE9F8430E464FF0000815460146D2E969
:102E20003249A64278EB09030ED23346C4F1880238
:102E3000284600F0A1F8D5E932329E1B62F100026B
:102E4000C5E93262BDE8F8832346C4F18802071958
:102E5000284600F091F8D5F8C8301B1BC5F8C830DB
:102E6000D5F8CC3063EB0903361BC5F8CC30E9D07C
:102E7000882E3446284628BF882400F0D9F83946E1
:102E800000222346284600F077F8C4F18803361B59
:102E90002744C5E93238EBD1BDE8F8832DE9F0418C
:102EA000344DE4B01C460E46A5FB013807461546D6
:102EB0000021C822684606F01BF8872C4FEAD81874
:102EC0000CD92946882300226846883C00F07CF80B
:102ED0006846883500F0ACF8872CF2D888220021AB
:102EE00032A806F005F824B12946224632A805F09A
:102EF000E9FE64AB002232A968461C441F2304F893
:102F0000C83C9DF84F3163F07F038DF84F31882323
:102F100000F05AF8872E0DD945463C46684600F029
:102F200087F888232146002268461C4400F024F8D4
:102F3000013DF3D10F4CA4FB0634E40904EB041467
:102F4000B6EBC40402D164B0BDE8F081684608EB7A
:102F5000081800F06DF8684632A98823002200F0B6
:102F60000BF8224632A907EBC80005F0ABFE64B0AF
:102F7000BDE8F081F1F0F0F023B301F1FF3C521A0B
:102F800070B50CEB0305541C04EB0C0222F0070E89
:102F900002F00703D1088644DA0050F83130DEF839
:102FA0000460C2F1200EA2F12001D34006FA0EFE09
:102FB00026FA01F143EA0E030B430CF8013F654585
:102FC000E2D170BD704700BF83B3521A2DE9F043C0
:102FD00001F1FF3E02F101090EEB030609EB0E02BF
:102FE0001EF8018F02F0070322F0070CD208764585
:102FF0004FEAC303844450F83250A3F12001C3F1D7
:103000002007DCF8044008FA03F308FA01F128FA73
:1030100007F783EA050341EA070140F8323081EA05
:103020000401CCF80410D9D1BDE8F083704700BF8B
:103030002DE9F04F0268C1B0069242683F900792B6
:1030400082680892C2680292354A01920269099226
:1030500042690A9282690B92C2690C92026A0D92CD
:10306000426A0E92826A0F92C26A1092026B1192A9
:10307000426B0392826B1292C26B1392026C149297
:10308000426C1592826C1692C26C1792026D189265
:10309000426D1992826D1A92C26D0492026E1B9259
:1030A000426E1C92826E1D92C26E1E92026F1F9221
:1030B000426F2092826F2192D0F87C90D0F88020CD
:1030C0002292D0F884200592D0F888202392D0F85C
:1030D0008C202492D0F890202592D0F8942026922B
:1030E000D0F898202792D0F89C202892D0F8A820D9
:1030F0002992D0E92B12D0E928B82A928E46D0F82E
:10310000B420C2462B92D0F8B8202C92D0F8BC2024
:103110002D92D0F8C0202E92D0F8C4302F9301E029
:10312000380F01080F9A069B189953402198079D64
:103130004B40109E089A4340119985EA06001A9D5B
:1031400083EA0B03199F229E309382EA01037840A1
:10315000029A6B40299F039980EA09007340049DFD
:10316000059E80EA0A0083EA070882EA0107099BB4
:10317000129A6F401B9983EA02057740239E4D40C7
:103180002A9B139A87EA0E0775401C9985EA030665
:103190000A9D85EA0203249D2B9A4B4014996B40AB
:1031A00083EA02050B9B1D9A4B40259953402C9AAC
:1031B0004B405A400C9B159959401E9B5940269BE9
:1031C00059402D9B59400D9B9C46169B8CEA03044D
:1031D0001F9B5C40279B5C402E9B5C400E9B9C464B
:1031E000179B31948CEA030C209B199C8CEA030CEE
:1031F000289B8CEA030C2F9B8CEA030C7B0043EA90
:10320000D87383EA0C035C4083EA0A0A83EA09095B
:103210001994079CCDF8C8A083EA040A109CCDF845
:10322000EC90CDF81CA083EA040A4FEA4803319CD5
:10323000CDF8D0A043EAD7736340189C83EA040911
:10324000069CCDF8409083EA0B09CDF8609083EAA4
:1032500004090F9CCDF8189083EA0409CDF8CC90AE
:10326000219C83EA04096B00039C43EAD673CDF8E2
:10327000E890434083EA040A059C83EA0E0E83EA41
:103280000409029CCDF8F0E0CDF8849083EA0409AB
:10329000049CCDF83C9083EA04097300309C43EA17
:1032A000D573CDF8D8906340119C83EA0409229C21
:1032B00083EA040E089CCDF810E083EA040E1A9C01
:1032C000CDF888E083EA040E299CCDF8D4E083EAA7
:1032D000040E4B002B9CCDF8A4E043EAD2737B4054
:1032E0001C9F83EA040E139C5F40CDF844E083EA00
:1032F000040E249CCDF870E083EA040E0A9C029729
:10330000CDF8ACE083EA040E53001B9CCDF8E0E05E
:1033100043EAD17383EA080383EA04082A9C83EA18
:10332000040ECDF80CE0129C269F83EA040E239C29
:10333000CDF828E083EA040E099CCDF8A8E083EAE2
:10334000040E319C4FEA4C03CDF8DCE043EAD47321
:1033500064006B4044EADC7483EA070C1D9F84EA36
:1033600006050C9E0B9C83EA060B1E9E6C4083EAAE
:10337000060E259ECDF86CE085EA070E2C9F6E4068
:10338000CDF824E085EA070E149FCDF8B0E085EA79
:10339000070E2D9F159DCDF8C4E083EA070E279FE9
:1033A000CDF8B4E083EA050E309BCDF8E4E04FEAB7
:1033B000400E2F9D4EEAD37E5B008EEA010E2E99C1
:1033C00043EAD07317988EEA05055340289A8EEA8F
:1033D00000008EEA02025F4059400B921497169A41
:1033E0000D9F5A405F4025971F9F7B400E9F27935C
:1033F0008EEA0703209F26938EEA070E029BCDF8E4
:1034000090E04FEA195E5F0D4EEA0A3E4FEA1A5A03
:103410004AEA0939CDF814904FEA585947EAC828C2
:1034200049EAC3294FEA4C53CDF8088043EAD6282D
:103430007605CDF8208046EADC264FEA853C4CEA4A
:10344000914C890341EA9543109D21990C934FEAD1
:103450000B7343EA141824070305CDF8488044EAA7
:103460001B1B199C43EA1238E3001205CDF84C806F
:1034700043EA557842EA10320498CDF84080ED00D6
:103480004FEAD04845EA547548EA4138CC0C0399D4
:10349000CF08119944EA403447EA4177CB080399B1
:1034A00043EA4171229B15910F9948000F9940EA18
:1034B000D37A58000A9BCDF868A040EAD17A1C99CB
:1034C0008801CDF878A040EA936ACDF810A00A9858
:1034D000069B800140EA916A01981B990068CDF82B
:1034E0000CA083EA000A0198079B4068CDF828A049
:1034F00083EA000A099B4806CDF834A040EAD31AB3
:103500000998149B4006CDF870A040EAD11A0B9997
:103510000802CDF86CA00B9940EA136A1802329B9E
:10352000CDF884A040EA116A18999804CDF87CA0DF
:1035300040EA913A880440EA933129EA0E00069B5A
:103540001D910A994140029809910146059821EA86
:1035500000000D99414026EA09000A9180EA0E0117
:103560002EEA030E0B9119460C9B21EA03008EEA0A
:10357000030E23EA0601CDF838E080EA060E059B2B
:10358000CDF834E081EA090E0899CDF830E08E4696
:103590000299079E2EEA010123EA060081EA030E42
:1035A00026EA0C01089E029BCDF818E080EA0C0E7A
:1035B0002CEA060C1398CDF83CE081EA060E8CEA62
:1035C000030C25EA0201109E129BCDF81CC081EA73
:1035D0000B0C26EA0001109ECDF844C081EA030CD2
:1035E00028EA0501CDF820E09E46CDF848C081EAE2
:1035F000020C22EA0B022BEA0701CDF84CC082EA4A
:10360000070C27EA080720EA0302159BCDF860C0E3
:1036100081EA080C24EA0601CDF858C087EA050CB7
:103620001D9DCDF850C081EA000C2EEA03011E98C2
:10363000CDF840C082EA030C23EA0403049ACDF8D3
:1036400064C081EA040C039CCDF85CC083EA060CDC
:1036500024EA0007CDF854C087EA050CCDF888C0ED
:103660001A9B269D22EA0301349EEF061B9B81EAEA
:103670000A0C25992D9A9B46CC06CDF88CC047EABA
:103680005117039B44EA5514339D310F2BEA030372
:103690004FEA157E059441EA0511359D4EEA061E56
:1036A000369E2B9C83EA000B4FEA86284FEAC439EA
:1036B000CDF878B048EA9558AD0245EA96552A9E6D
:1036C00049EA5649F60346EA54462C9C4FEA142C24
:1036D0004CEA026C120A42EA04621D9C2B9220EA18
:1036E00004031F9A83EA020B24EA0200CDF880B09B
:1036F00093461B9A2BEA020380EA020B039ACDF849
:1037000074B083EA020B1C9A1A98CDF86CB09346F9
:10371000049A2BEA020383EA000B20EA0A032198A9
:10372000CDF868B02AEA000A83EA000B1C9BCDF8AA
:1037300084B08AEA030A20EA0300CDF87CA0049A48
:10374000379C80EA020A3898A308319ACDF870A015
:1037500043EA807A8008CDF810A040EA847A399C48
:10376000500A630ACDF8B8A040EAC450249C43EA4A
:10377000C25A279A530ECDF8BCA043EAC41A249C1F
:10378000630ECDF808A03A9C43EAC21A3B9B299AE3
:10379000CDF80CA04FEAD45A4AEA432ADB0D43EA9B
:1037A000442B3C9CA300CDF8C0B043EA927B299AFD
:1037B0009300CDF8D0B025EA0E0B2B9A43EA947310
:1037C000059C8BEA040B059CCDF890B028EA010B10
:1037D0008BEA070BCDF894B026EA050B8BEA0E0BAB
:1037E0002EEA040E24EA0C048EEA0C0E2CEA060CD7
:1037F000CDF898B08CEA050CCDF8B0E084EA060E5E
:1038000029EA0804CDF8A0C084EA010C21EA0701E6
:1038100027EA0207CDF8A8E0CDF89CC081EA020CA7
:1038200022EA0902CDF8B4C087EA090CCDF8ACC091
:1038300082EA080C099D119F1E9C85EA070E249DB3
:103840000A9F8EEA040ECDF8A4C01B998EEA050EDD
:10385000129D87EA050C1A9D259F8CEA050C0B9D8D
:103860008CEA070C139F85EA0706069F149D4E40BD
:1038700059464E40109987EA01021C9F27997A40C9
:103880001F9F82EA01080C992A9A81EA05041D9D6E
:1038900028996C40079DCDF8DC804C40159985EA4D
:1038A000010B2999089D8BEA070B0D9F8BEA010BF1
:1038B00016994F4020994F40179957406940219AD7
:1038C00051402B9A229D5140189A6A400E9D6A40A1
:1038D0002C9D6A40199D3892239A55400F9A554065
:1038E0002D9A5540029A22EA0008049A399588EAEE
:1038F0000208039A049D8EEA080ECDF8C8E09646A9
:103900002F9A2EEA02092E9A89EA0209029A8CEA73
:10391000090C2AEA020E029A8EEA000ECDF8CCC0FB
:1039200020EA050025EA030C86EA0E0658408CEAD8
:103930000A0C23EA0A0302966546369083EA020CD3
:10394000389A3595CDF8C4C0424087EA050C3198C5
:10395000309F84EA0003CDF814C0BC46039F049353
:103960002CEA07072F9B2E985F40349E23EA000322
:10397000354620EA060083EA060C309E644625EAB6
:10398000060380EA060C0398399D43403798664643
:10399000654080EA070C2E948BEA0300029C4FEAF4
:1039A0004C0B714003964BEAD47B1A9E129C8BEA17
:1039B000050B89EA0B0986EA0B0A259ECDF8D09003
:1039C00084EA0B090A9CCDF8E09086EA0B09CDF851
:1039D000BCA0CDF8F09084EA0B09029C1E9E4FEA31
:1039E000440ACDF848904AEADC7A8AEA020A86EA72
:1039F0000A0988EA0A08119ECDF8C08086EA0A08FA
:103A0000249ECDF86890CDF8DC8086EA0A08099EED
:103A1000CDF8EC8086EA0A08049ECDF824804FEAAF
:103A2000400848EAD678339E88EA0608109E86EA5F
:103A30000809CDF82890279E069C86EA08091C9E56
:103A4000CDF8789084EA0809049CCDF8949086EA31
:103A5000080987EA08086700329E47EAD077139C76
:103A6000CDF8F8807740269ECDF89C9084EA070B2D
:103A700086EA07080B9C8EEA070ECDF8708084EA70
:103A800007081B9C059ECDF8908084EA07084F002C
:103A9000159CCDF8F4E04FEA460947EAD677029E36
:103AA00049EAD179CDF8988087EA0C0C1F9F89EA02
:103AB000060683EA0C0E299B87EA0C0A319FCDF893
:103AC0006CE084EA0C0E1D9CCDF87CE083EA0C0EC1
:103AD000079BCDF8A4E083EA0C0CCDF8E4C084EA9F
:103AE000060C149CCDF808C087EA060CCDF81CC063
:103AF00084EA060CCDF874C0289C0C9B84EA060C62
:103B00002B9C0D9FCDF8A0C083EA060C6B00CDF86E
:103B1000C4C043EAD27352005840049B42EAD575B0
:103B2000329A84EA000C219C5D40089B84EA000ED6
:103B30002A9C83EA0009209B87EA0506CDF810E05D
:103B400083EA0508359B169F6C4083EA050ECDF885
:103B5000A8E087EA050E039FCDF8D4E087EA000EBF
:103B6000179FCDF8ACE087EA000E339FCDF8E8E070
:103B70004FEA420E7B002D984EEAD77743EAD27384
:103B8000189A5940059B5F4080EA010E2E9B7A40AF
:103B9000CDF814E083EA0105369803922C9A784018
:103BA000199B82EA070E0E9A4B407A400D92229A98
:103BB0007A404FEA1B5706920F9A4A401692239A70
:103BC00051400A9A2E9147EA02310891110D029A4A
:103BD00041EA0B3B510DCDF828B041EACA2B4FEA20
:103BE0005A5ACDF808B04FEA4C5B4AEAC22A039A07
:103BF000CDF830A04BEAD42A6405CDF83CA044EAC5
:103C0000DC21079C0B91A90341EA904C4FEA097112
:103C10008003CDF838C041EA161C360740EA9545C6
:103C2000CDF850C0180546EA191C2F9ECDF840C0AB
:103C300040EA123C1205F000CDF854C042EA133CB1
:103C40001A9B1E9ACDF844C040EA537CDB001C98B6
:103C50004FEAD24BCDF84CC043EA567CC60CCDF8A7
:103C60000CC04BEA403C1B9846EA4236E208CDF8CD
:103C70005CC0C30842EA4072249843EA4473259C1E
:103C80006100189341EAD07C4000CDF868C040EA5A
:103C9000D47C1F981D9B8101CDF864C0309C41EA03
:103CA000936C319F9901049BCDF870C04FEA844911
:103CB00041EA906C5906CDF86CC041EAD81C0599D0
:103CC0004FEA48680802CDF874C048EAD31C379B15
:103CD000CDF810C040EA1E6C34984FEA0E2ECDF895
:103CE00078C04EEA116E810449EA903941EA943C69
:103CF000169C0D99CDF880C04FEAC46CC8064CEAFA
:103D0000511CCDF888C040EA541C389C180FCDF8DF
:103D100084C0210F40EA041C279CCDF88CC041EAE6
:103D2000031C269BA102CDF894C0980241EA935C43
:103D3000B908CDF890C040EA945C2898299C4FEAD5
:103D4000C03ACDF814C04FEAC43C4AEA544A2A9C0F
:103D50004CEA504C2B984FEA1428CDF898C048EA0A
:103D60000068000A40EA046CCDF8A0C0399C3A9B78
:103D700041EA847C580ACDF8A4C04FEA940C359CE3
:103D80004CEA877C3C9F610ACDF8A8C04FEAD75B1C
:103D900041EAC35C069BCDF8B0C0590E40EAC45C52
:103DA0002E9C069BCDF8B4C041EAC41C610E3D9820
:103DB000CDF8B8C041EAC31C3B9BCDF8ACC04BEA80
:103DC000432B4FEAD35C3E9BCDF8BCB04CEA472C6A
:103DD0009900870041EA907B47EA9374019F029B18
:103DE000CDF8C4B007F1100BB8683094CDF804B02A
:103DF0009B46099C089B6040F9682BEA030B129CC8
:103E000080EA0B0B0C986140CDF818B083460A98F5
:103E10002BEA000081EA000B0299CDF81CB00B9848
:103E200020EA010080EA030B099823EA0001CDF89B
:103E300020B020EA050B0A9B81EA05070B990E9832
:103E400025EA01058BEA010B0299CDF82CB085EA31
:103E5000010B0C9D0F99CDF824B021EA05010D97B7
:103E600081EA030B23EA04010F9BCDF808B024EA92
:103E7000000B81EA000720EA03018BEA030B159C83
:103E80000E97CDF830B081EA050B0399CDF828B034
:103E90008B461199109D139F2BEA0101149B81EA17
:103EA000050B039827EA0401CDF83CB081EA030B27
:103EB00026EA00011198CDF840B081EA000B20EA13
:103EC000050025EA0201CDF844B080EA020B22EA9F
:103ED00006020398CDF858B081EA060BCDF850B031
:103EE00082EA000B24EA0300CDF848B0179E139D28
:103EF000189F26EA050223EA070127EA060382EA59
:103F0000040B1C9C1A9ACDF80CB080EA070B1D9F7D
:103F1000CDF85CB081EA060B1B9ECDF854B083EA65
:103F2000050B049D199925EA06050498CDF84CB0B7
:103F300026EA010385EA010B27EA0405CDF860B003
:103F400085EA020B2EEA000521EA0900CDF864B0EB
:103F500024EA020185EA060B1E9ECDF868B083EACA
:103F6000090B29EA0E0980EA0E0E049826EA0705D5
:103F7000CDF874E089EA000E209BCDF87CB0CDF836
:103F80006CE085EA040E22EA0300239DCDF810E0E0
:103F900081EA030E23EA0601249ACDF880E080EA44
:103FA000060E059ECDF878E081EA070E26EA0503A5
:103FB0002199CDF870E02AEA060483EA010E25EA89
:103FC000010021EA0806CDF884E084EA050E259F69
:103FD000229B22EA0709CDF888E027EA030180EA5C
:103FE000080E1A4689EA0309289B28EA0A08269D32
:103FF0002498059CCDF89CE086EA0A0E22EA030686
:1040000023EA050ACDF894E088EA040E25EA0004C4
:104010007540CDF88CE0269584EA070E8AEA000503
:104020002E9ECDF814E081EA030E24952B9B2D9D46
:104030002C99299A23EA050ACDF8A0E09E462CEA9D
:104040000603309C26EA010B2A984B4021EA020124
:104050008BEA020B22EA0402299381EA040324EA90
:104060000C072F992E9382EA0C03319C72462C93F5
:10407000034621EA0E0E7E4023EA040C0B4624EA96
:1040800001018AEA000A8CEA030325EA0000019F85
:104090008EEA050E2D9381EA020360402A962B9347
:1040A0003C4B2F90BB427FF43DA83F9B0699196083
:1040B00007995960089999600299D960099919611D
:1040C0000A9959610B9999610C99D9610D991962F5
:1040D0000E9959620F9999621099D96211991963D1
:1040E00003995963129999631399D9631499C3F881
:1040F0007C90196415995964169999641799D96433
:1041000018991965199959651A9999650499D96584
:104110001B9919661C9959661D9999661E99D9664D
:104120001F99196720995967219999672299C3F8AE
:10413000801005992F9AC3F884102399C3F8ACE036
:10414000C3F888102499C3F8B060C3F88C1025997F
:10415000C3F8C420C3F890102699C3F89410279987
:10416000C3F898102899C3F89C102999C3F8A8108F
:104170002B99C3F8B4102C99C3F8B8102D99C3F833
:10418000BC102E99C3E928BAC3F8C01041B0BDE8ED
:10419000F08F00BFF80F010843692DE9F0410D468B
:1041A000D907044628D58168334F8268394083682F
:1041B000324E3348B94202EA060203EA000301D153
:1041C0000127A760B24202D14FF48076A6608342F5
:1041D00002D14FF48030A0602748814205D02749A2
:1041E0008A4202D0264A934206D1264B0121264A12
:1041F0001B6852F825009847E2686369920708D067
:104200009F0706D51F4B00211F4A1B6852F8250047
:104210009847A16962698E0763690AD5900508D538
:10422000190406D5174B0521174A1B6852F82500BB
:104230009847A769666917F00407626906F4806603
:1042400009D046B1120406D50E4B07210E4A1B6851
:1042500052F82500984763695FB156B11B0408D531
:10426000084B0221084A1B6852F82500BDE8F041BE
:104270001847BDE8F08100BF0300000400030008F8
:1042800000000310040F0020F80E00200021014858
:10429000FFF782BF00640040FFF7F8BFFFF7F6BFEB
:1042A00001210148FFF778BF00680040FFF7F8BF21
:1042B000FFF7F6BF02210148FFF76EBF0034004050
:1042C000FFF7F8BFFFF7F6BF102300F009B820236F
:1042D00000F006B8302300F003B8402300F000B827
:1042E000EFF30880042172460A4201D0EFF30980FF
:1042F0009C46244B196802680A60043142680A60CF
:10430000043182680A600431C2680A600431F0C175
:1043100047460F6004314F460F60043157460F6027
:1043200004315F460F60043102690A600831426956
:104330000A60043182690A600431C2690A6004318A
:10434000034620334FF40076324200D004337546E2
:104350001026354200D148330C46103C2360EFF361
:1043600009820A600431EFF308820A600431724660
:104370000A600431EFF314820A606046014900F0DC
:10438000FDF9FEE78410010830B5036891FAA1F445
:10439000B4FA84F491FAA1F10325B1FA81F1640031
:1043A000490005FA04F402FA01F123EA040319436F
:1043B000016030BD00B5454B8DB00A2800F2838006
:1043C000DFE800F006131E29343F4A55606B760083
:1043D0001A6B3F4842F001021A631B6B03F00103A2
:1043E0000193019B0DB05DF804FB1A6B394842F054
:1043F00002021A631B6B03F002030293029BF1E7B4
:104400001A6B354842F004021A631B6B03F0040375
:104410000393039BE6E71A6B304842F008021A63E5
:104420001B6B03F008030493049BDBE71A6B2C4817
:1044300042F010021A631B6B03F010030593059BF7
:10444000D0E71A6B274842F020021A631B6B03F077
:1044500020030693069BC5E71A6B234842F04002EF
:104460001A631B6B03F040030793079BBAE71A6BB1
:104470001E4842F080021A631B6B03F0800308930E
:10448000089BAFE71A6B1A4842F480721A631B6BE1
:1044900003F480730993099BA4E71A6B154842F44F
:1044A00000721A631B6B03F400730A930A9B99E76B
:1044B0001A6B114842F480621A631B6B03F4806329
:1044C0000B930B9B8EE70D4803F064FA0038024013
:1044D000000002400004024000080240000C0240BC
:1044E000001002400014024000180240001C02406C
:1044F000002002400024024000280240F80F01087A
:10450000431C10B5044604D176220649064803F040
:10451000F5F8002104F00F0400F05AFD0120A0403E
:1045200010BD00BF191001086910010870B54B1CBF
:1045300004460E46218216D0C1F30310FFF73AFF5E
:1045400005463046FFF7DCFF238A074A03F00F03D6
:104550006561206052F82330A36105F1100318351E
:104560006360A560E56070BDDC150108B0F910005E
:1045700000F0C0BD0A4619B981694069FFF704BF60
:104580000122F9E708B502F0B3FA002008BD0000E7
:1045900008B50A4B1B684BB102F08EFF02F076FFA4
:1045A0004FF47A7200230BF061F908BD02F000FBB2
:1045B0004FF47A73B0FBF3F008BD00BF080F002082
:1045C00000B589B0144E154D03F0B4F8102101A8C0
:1045D00002F03DFD0424019A3046039B1A6003F06B
:1045E00091FA019B049A30461B04136003F08AFA87
:1045F000013CF0D10424019A2846039B1A6003F081
:1046000081FA019B049A28461B04136003F07AFA8E
:10461000013CF0D1DEE700BFF0490200801A06003D
:1046200010B5044603F086F8204605F009F8214647
:104630000246022000F08CFABDE8104003F090B86A
:1046400010B5A2B00B460246842101A806F02EFE4A
:104650008328044605D9052205490DF1830004F09D
:1046600031FB002C02DD01A8FFF7DAFF22B010BDFC
:104670007C1001080FB407B504A951F8040B01918F
:10468000FFF7DEFF03B05DF804EB04B070470000F5
:10469000F0B52C4C85B000252B4F264654F825202C
:1046A000294601353846FFF7E5FF0D2DF6D1A36CFD
:1046B00004F1340125480293636C0193236C244C6C
:1046C00000930EC9FFF7D6FF21682248FFF7D2FFFB
:1046D000E16AA26AA36AA06AD2B2256BC3F3072378
:1046E000E76B000C0195009002971B48FFF7C2FF93
:1046F000A36A1D0603D5616B1848FFF7BBFFA36AC9
:10470000180403D5A16B1648FFF7B4FFF36C190723
:1047100012D51448FFF7AEFF336DDA070FD51248F4
:10472000FFF7A8FFF36C5B074CBF1048104805B0BB
:10473000BDE8F040FFF79EBF0E48FFF79BFF0E4815
:10474000EEE700BFF801002018110108261101084A
:1047500000ED00E07511010883110108D211010874
:10476000E0110108EE110108FD1101082D120108E8
:10477000391201081D1201080A12010813B5044676
:104780001548FFF777FF302C17D0402C1AD0202C7B
:104790001DD1124C1248FFF76DFF1248FFF76AFF58
:1047A000FFF776FF1048FFF765FF00230F4A20460A
:1047B00000930F49D26B03F00DF90E48FFF75AFF33
:1047C0000D4CEAE70D48FFF755FF0D4CE5E70D48A6
:1047D000FFF750FF0C4CE0E7881001083E01FF8016
:1047E000B1100108DE100108E9100108F8010020ED
:1047F00008110108C01001083F01FF80C91001081D
:104800004001FF80D41001083D01FF80F8B5284B1E
:104810005A6912F4003211D1BFF34F8FBFF36F8F7B
:10482000C3F85022BFF34F8FBFF36F8F5A6942F422
:1048300000325A61BFF34F8FBFF36F8F1C4A536929
:1048400013F4803328D1C2F88430BFF34F8FD2F8ED
:10485000803043F6E076C3F3C904C3F34E33A507B3
:104860005B0103EA060E284621464EEA000701399D
:1048700000F14040C2F860724F1CF6D1203B13F1AA
:10488000200FEED1BFF34F8F536943F48033536150
:10489000BFF34F8FBFF36F8F02F0D8F800F07AFFAD
:1048A00002F0C6F802F0D2F80122024B1A60F8BDFD
:1048B00000ED00E0080F002000207047036801228F
:1048C00000211B691847036800221B69114618471D
:1048D00003681B69184703689B69184703689B6A4C
:1048E000184700290CBF6FF0180000207047012006
:1048F00070471120704770476FF01C0070476FF0D1
:104900001500704701207047002070477047000075
:10491000F8B515460C468F18054EBC4205D014F864
:10492000011B304600F0F2FEF7E72846F8BD00BF55
:104930008C10002038B58DB215F0010405D0084860
:1049400000F036FC041C18BF0124EB0605D5044812
:1049500000F03EFC08B144F01004204638BD00BF12
:104960008C10002010B5044604F01EF9204610BD3E
:1049700010B50C462AB1044800F0B6FE20700120A4
:1049800010BD104610BD00BF8C10002038B51D466C
:10499000074B04460360074B1B6833B9064800F019
:1049A00097FC2946044800F04FFC204638BD00BF64
:1049B000B81201082C0F00208C1000200020704736
:1049C0000020704708B5012000F096F90C4A1368E2
:1049D00010B51844EFF30881884205D30C22094B27
:1049E0004FF0FF301A6010BD07490C6824B1074929
:1049F000096821448842F1D21060184610BD00BFFA
:104A00000404002054100020240F0020280F002050
:104A10000120704701207047002104F065BB7047FA
:104A2000704708B5FFF7FBFF08BD08B5FFF7F8FFB3
:104A300008BD000008B5037803F00302012A0BD07B
:104A40002AB140F28C520549054802F057FE43F066
:104A500002030370012008BD002008BD00130108F7
:104A60004D13010808B5037803F00302022A05D0AC
:104A700040F294520449054802F040FE23F003033B
:104A800043F00103037008BD00130108731301080C
:104A90003F2870B504462FDC184D55F820305A1CBD
:104AA00013D1022811DCFFF78BFF034658B92046CB
:104AB000FFF784FF034630B9114E3378BFF35B8FA5
:104AC000DB0704D50F4B45F82430184670BD30463F
:104AD000FFF7B0FF0028F5D04FF4165339223821E4
:104AE0000848FFF753FF3046FFF7BCFF064A074967
:104AF0000448FFF78DFFE5E70023E6E70403002005
:104B00000C0F0020200F0020F80200200D490008A3
:104B100038B505460024FFF7BBFF0B4B43F8254093
:104B200030B903F0E1F8092303604FF0FF3038BDDE
:104B300003685B699847051E04DA6D4203F0D4F8F8
:104B40000560F2E7204638BD04030020FFF7E0BF10
:104B500038B50C461546FFF79BFF38B903F0C4F88B
:104B6000092303604FF0FF34204638BD0368214617
:104B70002A46DB689847041EF6DA644203F0B4F86C
:104B80000460EFE708B5131E06DA03F0ADF816234C
:104B900003604FF0FF3008BD04D0FFF7D9FF40EAB3
:104BA000E07008BD184608BD38B50C461546FFF73D
:104BB0006FFF38B903F098F8092303604FF0FF3412
:104BC000204638BD036821462A469B689847041E44
:104BD000F6DA644203F088F80460EFE7002A08B5CB
:104BE00003DBBDE80840FFF7DFBF03F07DF81623C5
:104BF00003604FF0FF3008BD10B5FFF749FF0446D2
:104C000028B903F071F809230360204610BD03683A
:104C1000DB699847041EF8DA644203F065F8046023
:104C20000024F2E71FB504220C46402301900DEB4F
:104C300002010DF109008DF8083004F043F8214617
:104C400002A803F01FFB044630B10198FFF7D4FF20
:104C500010B12046FFF7E0FE204604B010BDFFF77C
:104C6000CBBF38B50C461546FFF712FF38B903F035
:104C70003BF8092303604FF0FF34204638BD03683A
:104C800021462A461B699847041EF6DA644203F05F
:104C90002BF80460EFE7FFF7E4BF10B5FFF7F8FE6D
:104CA00030B903F021F8092303604FF0FF3010BD45
:104CB00003689B699847041E04DA644203F014F801
:104CC0000460F2E7002010BD0A4C054608B52368D1
:104CD000986803F043F92368D86803F03FF901208E
:104CE000FFF7DBFF0220FFF7D8FF0DB1FFF768FCED
:104CF000FEE700BF1004002008B5FFF7E5FF38B558
:104D00000D46FFF7C5FE044630B902F0EDFF09235A
:104D100003604FF0FF3038BD0368DB699847002817
:104D2000204614BF4FF400534FF400436B602368D8
:104D30009B6A98472861002038BDFFF7E0BF03F069
:104D400033BF000008B5034653F8082B02B90360CF
:104D500002689A4204D068220249034802F0CEFC5D
:104D6000184608BD451201089A12010810B50446FC
:104D70000948FFF7E7FF0023084A194652F82300C5
:104D8000A04208BF42F823100133402BF6D102485D
:104D9000FFF7D8FF10BD00BF100F00200403002054
:104DA00010B50F480324FFF7CDFF0E4B53F8242016
:104DB0006AB10134402CF9D102F096FF18234FF06C
:104DC000FF3403600648FFF7BDFF204610BD4FF0DB
:104DD000FF32034843F82420FFF7B4FFF5E700BF94
:104DE000100F00200403002010B50446FFF7D8FF81
:104DF0000028A4BF014B43F8204010BD040300204D
:104E000070B506460C46FFF7EFFF054690B1214608
:104E1000FFF708FF044630B9074B53F825209642A8
:104E200003D143F82500204670BD02F05DFF092341
:104E30000360F8E70446F6E7040300200EB42DE90A
:104E4000F04185B00546FFF7ABFF041E13DB0023DE
:104E5000294602A81E4D019302F044FB02A802F06D
:104E600091FB064668B902F03FFF1323036045F843
:104E700024604FF0FF34204605B0BDE8F04103B098
:104E8000704702A802F06CFB074602A837B102F097
:104E900070FB0190019B45F82430ECE702F057FBD2
:104EA00006460028DFD0036802A8D3F8088002F085
:104EB00043FB0B9B024601A93046C047064600282B
:104EC000E8D0764202F010FF066045F82470D0E783
:104ED0000403002073B50E461849054604F034FA61
:104EE000044620B9FFF7D4FD204602B070BD144936
:104EF000284604F029FA20B901200124FFF7C8FD53
:104F0000F2E71049284604F01FFA20B902200224D3
:104F1000FFF7BEFDE8E72B78402B07D10422691C80
:104F20000DEB020003F0CEFE019CDDE726F400410C
:104F30002846FFF783FF0446D6E700BFBA130108EF
:104F4000C1130108B213010870477047074B0849A5
:104F50009A680848043A10B552F8044F41F8044FD3
:104F60008142F9D14FF000529A6010BD00ED00E08F
:104F7000FCFFFF1FC401002008B5FFF7E7FFFFF7A4
:104F800045FCFFF7E2FF08BD08B5FFF7DDFFBDE810
:104F90000840FBF7EFB930B5C36891FAA1F4B4FA51
:104FA00084F491FAA1F10325B1FA81F1640049007A
:104FB00005FA04F402FA01F123EA04031943C1607B
:104FC00030BD012A02D0022A18BF0022FFF7E3BF3A
:104FD0002DE9F0410E46411C04D13E224149424890
:104FE00002F08CFB00F00F08404BC0F3031006F0FA
:104FF000070553F82840FFF7DDF9836894FAA4F118
:10500000B1FA81F194FAA4F203274900B2FA82F2CC
:1050100007FA01F1520023EA0103022101FA02F228
:1050200013438360BD4259D8DFE805F01D1D021D02
:10503000B8F1070FC6F303273AD9426A230A93FA55
:10504000A3F1B1FA81F193FAA3F34FF00F0EB3FA83
:1050500083F389009B000EFA01F107FA03F322EAB9
:10506000010213434362026894FAA4F1B1FA81F198
:1050700094FAA4F30327B3FA83F349005B0007FA19
:1050800001F105FA03F3013D22EA0102012D43EA91
:105090000203036005D8436832074CBF2343A34390
:1050A0004360C6F301122146BDE8F041FFF789BF16
:1050B000026A94FAA4F3B3FA83F394FAA4F14FF0DA
:1050C0000F0EB1FA81F19B0089000EFA03F322EA78
:1050D000030207FA01F313430362C4E7672201499D
:1050E00003487DE71C16010869100108DC1501085A
:1050F000B9190108431C70B50D4604D188221F4917
:105100001F4802F0FBFA00F00F021E4BC0F3031021
:1051100053F82240FFF74EF9066894FAA4F1B1FA69
:1051200081F394FAA4F259000323B2FA82F28B407D
:1051300052003340D340013B012B05D8EB1E022B1C
:10514000436809D823434360032D08D10122214637
:10515000BDE87040FFF735BF23EA04034360012D2B
:10516000F4D0052D01D0022D01D10222EFE7214616
:105170000022BDE87040FFF70EBF00BF1C160108FB
:1051800069100108DC1501080FB4074B1B6807B54F
:10519000064905AAD868019206F03AF803B05DF80E
:1051A00004EB04B0704700BF100400206A16010829
:1051B000426870235343054AD358DA69120701D570
:1051C00008221A62D869C0F340107047D810002036
:1051D000426870235343034AD358D869C0F3C010C0
:1051E000704700BFD81000204368702215495A4309
:1051F00010B404685318545082685A60C2689A60A8
:105200000269DA6042691A61026A9A610022A3F8AF
:105210005220DA61A3F85020A3F85A20A3F85820AE
:10522000B0F91A20013206D108225A6118465DF8F9
:10523000044B01F014BBB0F9182001320CBF04225A
:105240000C22F2E7D810002010B581600C46FFF761
:10525000CBFF28B121460348BDE81040FFF794BFBB
:1052600010BD00BF6A160108184B98421FD0A3F565
:105270004C4398421DD003F5806398421BD003F540
:105280008063984219D003F58063984217D003F5E4
:105290004443984215D0A3F51C43984213D003F51C
:1052A000806398420CBF07204FF0FF30704700200A
:1052B0007047012070470220704703207047042088
:1052C0007047052070470620704700BF001001405E
:1052D000F0B50E46154689B004466749304601F0E0
:1052E00001FF07466549284601F0FCFE01463846A5
:1052F00001F0D4FE2060013004D13D2260496148B4
:1053000002F0FCF9382E0AD0392D08D05A4938203D
:1053100001F0E8FE874221D15B4802F03BFB012708
:1053200020685A4B98421BD103F594335A6C42F0D3
:1053300010025A645B6C03F010030093009B544B03
:1053400098422AD103F592335A6C42F020025A64F3
:105350005B6C03F020030593059B58E00027DFE713
:105360004C4B98420BD103F5FA331A6C42F40032DD
:105370001A641B6C03F400330193019BDFE7464B77
:10538000984219D103F5F8331A6C42F480221A645A
:105390001B6C03F480230293029B404B984219D16B
:1053A00003F5E0331A6C42F080421A641B6C03F080
:1053B00080430693069B2AE0394B984219D103F5A6
:1053C000F6331A6C42F400221A641B6C03F40023B7
:1053D0000393039B334B984219D103F5DE331A6CC8
:1053E00042F000421A641B6C03F000430793079BD2
:1053F0000DE02D4B9842A2D103F5F4331A6C42F420
:1054000080121A641B6C03F480130493049BFFF74F
:105410002BFF0028606003DAA422194923486FE7B4
:105420001549304601F016FE1449284601F012FED7
:10543000721C03D001213046FFF75CFE6B1C03D0C9
:1054400001212846FFF756FE4FF416532683658345
:105450002046A3600023E360236163612362FFF7BA
:10546000C3FE3FB10122124B214612481A604C2262
:1054700003F028FC09B0F0BDD4140108CC130108D6
:1054800094160108E61601080217010800100140F1
:1054900000140140004400400048004000780040F3
:1054A000004C0040007C00400050004037170108CD
:1054B0002C0F00208C100020002808DB420901235B
:1054C00000F01F0003FA00F0014B43F82200704780
:1054D00000E100E000280DDB4309012200F01F007D
:1054E000203302FA00F0044A42F82300BFF34F8F42
:1054F000BFF36F8F704700BF00E100E070B5FFF7AA
:10550000B3FE051E2BDB164E56F8250038B370236C
:10551000144C6B43E358DA69120606D5DB691906A9
:1055200003D5114B01211B68984770236B43E35847
:10553000DA69920608D5DB69980605D50A4B002181
:1055400056F825001B68984770235D436359DA6954
:10555000110704D5DA69120701D508221A6270BD55
:10556000340F0020D8100020300F00200148FFF732
:10557000C5BF00BF007C00400148FFF7BFBF00BFB0
:10558000007800400148FFF7B9BF00BF0014014098
:105590000148FFF7B3BF00BF005000400148FFF7CC
:1055A000ADBF00BF004C00400148FFF7A7BF00BFE0
:1055B000004800400148FFF7A1BF00BF0044004081
:1055C0000148FFF79BBF00BF00100140034B19606B
:1055D0004168034B43F82120704700BF300F002083
:1055E000340F002070B4334B41C898423FD00ED8DE
:1055F000A3F50063984234D003F58063984233D01A
:10560000A3F5006398420AD12B4C262016E02B4BC1
:10561000984232D006D8A3F5806398422AD000245D
:1056200020460BE0264B984206D003F58063984253
:10563000F5D1244C472001E0234C25207023234D35
:10564000734302B3EA581368D1B943F020031360DF
:1056500000F110021E4B9B6843F8224070BCFFF71C
:105660002BBF1C4C2720E9E71B4C3420E6E71B4CE2
:105670003520E3E71A4C5220E0E71A4C5320DDE7CF
:1056800043F08003E3E7EB581A6849B922F020029F
:105690001A601B6813F0800F09D170BCFFF71ABFA6
:1056A00022F080021A601B6813F0200FF4E770BC30
:1056B000704700BF00500040B5550008007C004016
:1056C0000010014085550008C1550008D810002081
:1056D00000ED00E0A95500089D550008915500080F
:1056E000795500086D55000838B5044645682046D0
:1056F000FFF75EFD0028FAD07023034A6B43D358AE
:10570000586AC0F3080038BDD810002070B50546AF
:105710000C4646682846FFF75BFD0028FAD0702348
:10572000034AC4F308047343D3589C6270BD00BF9E
:10573000D8100020DFF820D0002103E0074B5B5891
:10574000435004310648074B42189A42F6D301F001
:10575000D9F8FAF775FD7047000008208822010883
:10576000F8020020D00D0020FEE70000074A0002EA
:10577000D36800F4E06023F4E0631B041B0C43F0E7
:10578000BF6343F400330343D360704700ED00E090
:105790007047000008B5094B03201A6842F40072F4
:1057A0001A601A6842F480721A60FFF7DFFF0F2058
:1057B000FEF7E8FEFFF7ECFF002008BD003C0240CA
:1057C000194B37B51A6C194C42F080521A641B6C95
:1057D00003F080530193019B236843F480332360DB
:1057E000FEF7D6FE05466368DA030CD5236843F45A
:1057F00000332360FEF7CCFE0C4C054663689B0328
:105800000AD5002006E0FEF7C3FE401BB0F57A7F04
:10581000E9D9032003B030BDFEF7BAFE401BB0F556
:105820007A7FEBD9F5E700BF0038024000700040F6
:105830002DE9F7430268044612F001060BD0BA4B7B
:10584000996821F400019960466B99683143B6FA72
:1058500086F67609996012F4002512D0B249E56BFC
:10586000D1F88C30B5F5801F23F4401308BF012612
:1058700043EA050316BFB5FA85F500256D09C1F8A1
:105880008C30D70210D5A848216CD0F88C30B1F5F7
:10589000800F23F4400343EA0103C0F88C3000F08A
:1058A000A981002908BF012512F0807F18BF0126B9
:1058B000900631D59C4B9D4F1A6C42F080521A6471
:1058C0001B6C03F080530193019B3B6843F480738E
:1058D0003B60FEF75DFE80463B68D90540F18C8158
:1058E000914F3B6F13F4407340F09181236B03F4AD
:1058F0004072B2F5407F8C4A40F0AF81916823F04E
:10590000704021F4F81120F4407001439160C3F31A
:105910000B03116F0B4313672368DF060CD5824A14
:10592000D2F88C1021F08071C2F88C10D2F88C1053
:10593000A06B0143C2F88C10580408D57A49606EF8
:10594000D1F8902022F440320243C1F8902019048B
:1059500008D57549A06ED1F8902022F44022024368
:10596000C1F89020DA0308D56F49E06ED1F8902095
:1059700022F440120243C1F890209F0308D56A49DF
:10598000206FD1F8902022F440020243C1F8902009
:10599000580608D56449606CD1F8902022F00302C3
:1059A0000243C1F89020190608D55F49A06CD1F8D0
:1059B000902022F00C020243C1F89020DA0508D5AD
:1059C0005949E06CD1F8902022F030020243C1F82E
:1059D00090209F0508D55449206DD1F8902022F0E1
:1059E000C0020243C1F89020580508D54E49606DA9
:1059F000D1F8902022F440720243C1F8902019059A
:105A000008D54949A06DD1F8902022F440620243A4
:105A1000C1F89020DA0408D54349E06DD1F8902010
:105A200022F440520243C1F890209F0408D53E4919
:105A3000206ED1F8902022F440420243C1F8902019
:105A4000580208D53849A06FD1F8902022F0806222
:105A50000243C1F8902099020CD53348E16FD0F889
:105A60009020B1F1006F22F0006208BF01250A43C7
:105A7000C0F8902013F0080F18BF01255A0308D56D
:105A80002949606FD1F8902022F040720243C1F89A
:105A900090201F0209D52449D4F88000D1F8902025
:105AA00022F080520243C1F89020580109D51E49C6
:105AB000D4F88400D1F8902022F000520243C1F8BB
:105AC0009020190109D51849D4F88800D1F88C2004
:105AD00022F000720243C1F88C20DA0009D5124985
