:020000040800F2
:100000000000082055AA000889AA0008AD9500083C
:10001000B3950008B9950008BF95000800000000DE
:1000200000000000000000000000000089AA000895
:1000300089AA00080000000089AA000889AA00080F
:1000400089AA000889AA000889AA000889AA0008C4
:1000500089AA000889AA000889AA000889AA0008B4
:1000600089AA000889AA000889AA000889AA0008A4
:1000700089AA000889AA000889AA000889AA000894
:1000800089AA000889AA000889AA00087D950008A5
:100090008195000889AA00087195000889AA0008BE
:1000A00089AA000889AA000889AA000889AA000864
:1000B00089AA000889AA000889AA000889AA000854
:1000C00089AA000889AA000889AA000889AA000844
:1000D00089AA000889AA000889AA000889AA000834
:1000E00089AA000889AA000889AA000889AA000824
:1000F00089AA000889AA000889AA000889AA000814
:1001000089AA000889AA000889AA000889AA000803
:1001100089AA000889AA000889AA000889AA0008F3
:1001200089AA000889AA000889AA000889AA0008E3
:1001300089AA000889AA000889AA000891950008E0
:100140009595000889AA00088595000889AA0008E5
:1001500089AA000889AA000889AA000889AA0008B3
:1001600089AA000889AA000889AA000889AA0008A3
:1001700089AA000889AA000889AA000800000000CE
:1001800089AA000889AA000889AA000889AA000883
:1001900089AA000889AA000889AA000889AA000873
:1001A00089AA000889AA000889AA000889AA000863
:1001B00089AA000889AA000889AA000889AA000853
:1001C00089AA000889AA00080000000089AA00087E
:1001D00089AA000889AA000889AA000889AA000833
:1001E000A5950008A995000889AA00089995000816
:1001F00089AA000889AA000810B5054C237833B9EC
:10020000044B13B10448AFF300800123237010BDE9
:10021000D80D0020000000007414020808B5034B3C
:100220001BB103490348AFF3008008BD0000000084
:10023000DC0D002074140208A3F5803A704700BF5B
:10024000174B002B08BF134B9D46FFF7F5FF00210E
:100250008B460F461348144A121A0FF0A1F90E4BA1
:10026000002B00D098470D4B002B00D09847002062
:10027000002104000D000D48002802D00C4809F0B0
:1002800047FD0EF013FF200029000AF00DF809F0D9
:10029000B1FE00BF000008000000000099A20008A5
:1002A00000000820D80D0020D8140020119D00085F
:1002B0000000000090B587B000AF786039603B68FF
:1002C000DB0FFB75FB7D002B02D03B685B4200E03F
:1002D0003B683B610A21386900F0A0FAF860FA7DBA
:1002E000FB68D41807F1080318460CF093FE07F1D9
:1002F00008032D22214678680CF0DCFE07F1080384
:1003000018460CF089FEFB7D194678680CF0E8FE73
:1003100003463A69F968184600F0C0FA00BF7868E9
:100320001C37BD4690BD80B483B000AF78603960A3
:100330003B68002B05D07B689B687A6812681A605E
:1003400005E07B681A687B68DB6812041A6000BFEE
:100350000C37BD465DF8047B704780B483B000AFB6
:1003600078607B685B681A687B681B681340002BA9
:1003700001D0012300E0002318460C37BD465DF88C
:10038000047B704780B582B000AF78600B467B80FD
:100390007B681A460023136053609360D360136137
:1003A000536193617B68B7F90220114618460BF040
:1003B000E3FF7B6818460837BD4680BD80B582B034
:1003C00000AF786039607B6839681846FFF7ABFF8B
:1003D00000BF0837BD4680BD80B582B000AF7860F1
:1003E0007B681846FFF7B9FF034618460837BD4635
:1003F00080BD80B582B000AF7860396039687868B8
:10040000FFF7DCFF7B6818460837BD4680BD80B526
:1004100082B000AF78607868FFF7DEFF03461846C9
:100420000837BD4680BD80B582B000AF786078687F
:1004300000F08AFA7B6818460837BD4680BD000088
:100440002DE9B04FADF5934D8EB004AF2C4A4FF06F
:10045000000344F698113944C1E900234AF6C36207
:100460004FF0000344F690113944C1E90023254BB5
:10047000DB68244A43F08073D360234B234AC3F8DC
:10048000B02F214B00225A601F4B1B681E4A43F0BD
:1004900001031360002344F68C123A4413600023D6
:1004A00044F688123A441360012344F6A4123A44F5
:1004B000136044F6A4133B441B68032B2EDC4FF05F
:1004C0007E500CF0C5FC44F6A4133B441B685A1C38
:1004D00044F6A41139440A601A460D490D480CF03F
:1004E00083FA0D48FFF793FF0346002B0CBF01234F
:1004F0000023DBB219460848FFF77BFFD9E700BFAE
:1005000000770100F0ED00E0001000E055CEACC532
:10051000708B0108A40E0020C00E0020002344F6BA
:1005200038123A44136044F63C133B4400221A60EC
:100530005A609A6044F63811394444F668033B44E3
:100540001022184600F0D6FB44F6A8133B44A3F251
:10055000446300221A60043340F2FD420021184631
:100560000FF01EF844F6A8133B44A3F6C81300226C
:100570001A60043340F27D32002118460FF010F863
:1005800007F6A813A3F5FA6300221A60043343F6B2
:100590000362002118460FF003F894480BF0A3FE05
:1005A00092480BF05CFE91480BF094FE44F68413E5
:1005B0003B4418608E4B5B6807F5934213608C4B8D
:1005C0005B6844F67C123A4413604FF000024FF02F
:1005D000000344F670113944C1E9002344F2643247
:1005E0003A4444F66800384443F607630393814B6A
:1005F00044F6A81139440B44029340F2813301932D
:1006000043F6E0733B44009340F20153092100F0AC
:10061000B3FB44F66C133B441860754B5A6807F5FE
:1006200093431B68D31A07F59342136007F593436E
:100630001B6800221C46154644F670133B44D3E960
:10064000002312EB040A43EB050B44F670133B4402
:10065000C3E900AB65480BF03DFE024644F6841347
:100660003B441B68D31A44F684123A44136044F6A0
:1006700084133B441C6807F593431B680022BB604E
:10068000FA6044F698133B44D3E90023D7E902010A
:1006900016F024FB02460B461346E31A44F6841276
:1006A0003A44136044F684133B441B68DA173B60FA
:1006B0007A6044F690133B44D3E90023D7E9000164
:1006C00016F00CFB02460B46104619464FF000028E
:1006D0004FF000030300002244F670113944D1E9C1
:1006E000000110EB020841EB030944F670133B4490
:1006F000C3E900893E4B5B6844F668123A441360D4
:100700003A480BF0E7FD44F684133B44186044F686
:1007100068133B441A6844F67C133B441B68D31AA5
:1007200044F664123A441360334A44F6A8133B4437
:100730001A44324944F6A8133B441944304B44F65A
:10074000A81038440344184600F052FC44F66013E5
:100750003B44186044F664133B441A6829492A480C
:100760000CF042F944F684133B441A6827492648A2
:100770000CF03AF944F670133B44D3E900232449C2
:1007800021480CF031F944F684133B441A681F49A0
:100790001D480CF029F91F491B480CF025F944F6B7
:1007A00048133B4444F66C123A4411681846FFF76C
:1007B00081FD44F648133B4418460CF095FC034673
:1007C000194611480CF010F944F648133B441846FA
:1007D0000CF07AFC10490C480CF006F9002318467E
:1007E00007F593472837BD46BDE8B08FE00E0020DF
:1007F000001000E030B8FFFF90B6FFFF68B6FFFFC3
:1008000060B7FFFF988B0108A40E0020B48B01088D
:10081000CC8B0108E88B0108048C010880B487B0F8
:1008200000AF7860396001237B613B6803FB03F311
:100830003B613A683B6902FB03F3FB603A68FB6883
:1008400002FB03F3BB603B687A689A4201D27B6982
:100850001DE07A683B699A4202D27B69013316E057
:100860007A68FB689A4202D27B6902330FE07A68A9
:10087000BB689A4202D27B69033308E07A68BB689E
:10088000B2FBF3F37B607B6904337B61DBE71846E3
:100890001C37BD465DF8047B7047000080B489B00A
:1008A00000AFF860B9607A60BB68013BFB617B68B0
:1008B000632B25D97A68224BA3FB02135B096421C1
:1008C00001FB03F3D31A5B00BB617B681C4AA2FBEC
:1008D00003235B097B60BB695A1CF968FB690B4405
:1008E00018498A5C1A70FB69013BFA681344154980
:1008F000BA690A4412781A70FB69023BFB61D6E7B9
:100900007B68092B10D97B685B007B617B695A1C73
:10091000FB6801330B498A5C1A700A4A7B691344ED
:100920001A78FB681A7005E07B68DBB23033DAB204
:10093000FB681A7000BF2437BD465DF8047B704722
:100940001F85EB51088C010880B483B000AF78603C
:100950007B6818460C37BD465DF8047B7047000085
:1009600080B582B000AF7860104A7B681A60104A88
:100970007B68C3F8B0200F4A7B68C3F8B4207B685B
:10098000C8331846FFF74FFD786800F067F87B68BA
:10099000B03318460CF016F87B6818460BF00CFCC8
:1009A0007B6818460837BD4680BD00BF08070208AF
:1009B0002807020888070208A0F1B000D0E7A0F1DC
:1009C000B400CDE780B582B000AF78607868FFF7FB
:1009D000C7FFCC2178680CF01BFB7B6818460837F2
:1009E000BD4680BDA0F1B000ECE7A0F1B400E9E79E
:1009F00080B582B000AF786039607B68012B1CD174
:100A00003B684FF6FF72934217D14FF4E13339221E
:100A100038210C480BF0B4FA0B4A0C49094809F08C
:100A200075F910210A48FFF7ADFC0A480BF06CFC81
:100A3000054A0949074809F069F900BF0837BD466A
:100A400080BD00BFF40D0020F802002061090008FD
:100A5000C00E0020E00E00203FC2000880B483B02A
:100A600000AF78607B6818460C37BD465DF8047BA4
:100A7000704780B500AF4FF6FF710120FFF7B8FF58
:100A800080BD80B48BB000AFF860B9607A603B6025
:100A900001223B6802FA03F37B6100237B620CE0D6
:100AA0007B6A5B007A6813441B88B3F5405F01D909
:100AB000002352E07B6A01337B627A6A7B699A4247
:100AC000EED37A691346DB009B1A5B000733DB0821
:100AD0003B61FB68002B01D13B693EE03A69BB6892
:100AE0009A4201D9002338E0FB683B620023FB6196
:100AF0000023BB6100237B621EE0FB699B037A6AD3
:100B0000520079680A4412881343FB61BB690E33B3
:100B1000BB610BE0BB69083BBB61FA69BB6922FAA8
:100B200003F13B6A5A1C3A62CAB21A70BB69072BBE
:100B3000F0DC7B6A01337B627A6A7B699A42DCD3A0
:100B4000BB69002B08DDBB69C3F10803FA6902FA2F
:100B500003F3DAB23B6A1A703B6918462C37BD467C
:100B60005DF8047B704780B48FB000AFF860B96067
:100B70007A603B6001223B6802FA03F37B623B6CC4
:100B8000013B012202FA03F3013B3B623B6A5B42F9
:100B9000FB6100237B6316E07A687B6B134493F957
:100BA00000301A46FB69934208DC7A687B6B134479
:100BB00093F900301A463B6A934201DA00235FE062
:100BC0007B6B01337B637A6B7B6A9A42E4D37B6AEB
:100BD0003A6C02FB03F30733DB08BB61FB68002BB5
:100BE00001D1BB694CE0BA69BB689A4201D90023C4
:100BF00046E0FB683B630023FB620023BB620122EB
:100C00003B6C02FA03F3013B7B6100237B6324E02E
:100C1000FA6A3B6C9A4079687B6B0B4493F900301D
:100C2000DBB219467B690B401343FB62BA6A3B6C2B
:100C30001344BB620BE0BB6A083BBB62FA6ABB6A47
:100C400022FA03F13B6B5A1C3A63CAB21A70BB6AB0
:100C5000072BF0D87B6B01337B637A6B7B6A9A42FC
:100C6000D6D3BB6A002B0AD0BB6AC3F10803FA6A69
:100C700002FA03F13B6B5A1C3A63CAB21A70BB69A1
:100C800018463C37BD465DF8047B704780B483B09E
:100C900000AF78607B6818460C37BD465DF8047B72
:100CA000704780B582B000AF7860786808F0BBF814
:100CB00000BF0837BD4680BD80B584B000AFF86086
:100CC000B9607A607A68B968F86808F0C1F800BF5E
:100CD0001037BD4680BD80B584B000AFF860B96004
:100CE0007A607A68B968F86808F005F900BF1037CB
:100CF000BD4680BD80B584B000AFF860B9607A6051
:100D0000F868FFF7CEFF7A68B968F868FFF7D4FF94
:100D100000BF1037BD4680BD80B485B000AF78609D
:100D20007B68FB60FB6803F00703BB60BB68002BBC
:100D300005D0BB68C3F10803FA681344FB60FB6885
:100D400018461437BD465DF8047B704780B485B003
:100D500000AF78607B68FB60FB6803F00103002B49
:100D600002D0FB680133FB60FB6818461437BD46B0
:100D70005DF8047B7047000080B596B004AFF86062
:100D8000B9607A603B60BB68002B02D0BB680A2B5D
:100D900002D96FF0040323E1BB68032B05D80322BB
:100DA000BB6802FA03F301330DE0BB685B08C3F1D3
:100DB0000A02BB68023B02FA03F30121BA6801FA96
:100DC00002F2134401333A68934223D83B6D002B5F
:100DD0000DD0BB68012B06D9BB68023B072202FA83
:100DE00003F3013300E005237A6D934212D8BB6808
:100DF000032B04D91C22BB6802FA03F301E04FF471
:100E000088730321BA6801FA02F213440733FA6DBA
:100E10009A4202D26FF00103E2E00122BB6802FABB
:100E200003F37B64BB6D3B643A6C7B6C1344FB63E4
:100E3000FA6B7B6C1344BB63BA6B7B6C1344184630
:100E4000FFF76AFF78630220FFF720FF38637B6BB0
:100E50000393BB6802930023019300230093BB6BB1
:100E6000FA6B396CF86807F037FA386BFFF70EFF4A
:100E70007B68FB62BB68032B05D80322BB6802FAC0
:100E800003F301330DE0BB685B08C3F10A02BB68E2
:100E9000023B02FA03F30121BA6801FA02F2134499
:100EA0000133BB62BB68DBB25033DAB2FB6A1A7043
:100EB00001237B62FA6A7B6AD018BA6A7B6AD11A0C
:100EC000494ABB6813441B780093BB683A6CFFF730
:100ED0004AFE38623B6A002B02D16FF005037FE0C7
:100EE0007A6A3B6A13447B62FA6A7B6AD018BA6AF0
:100EF0007B6AD11A3C4ABB6813441B780093BB68D9
:100F0000FA6BFFF730FE38623B6A002B02D16FF0BC
:100F1000050365E07A6A3B6A13447B62FA6A7B6A7E
:100F2000D018BA6A7B6AD11A304ABB6813441B785E
:100F30000093BB68BA6BFFF716FE38623B6A002B62
:100F400002D16FF005034BE07A6A3B6A13447B627F
:100F50007A6ABB6A9A4202D06FF0050340E03B6DAB
:100F6000002B3CD0FA6B7B6C13441846FFF7EEFE67
:100F7000F8617B6C5B00FA6913447B637B6B0093C5
:100F8000BB68FA6B396CF86908F008FA0346002B65
:100F900002D16FF0050323E03B6DBB61BB68012B01
:100FA00006D9BB68023B072202FA03F3013300E0D3
:100FB00005237B61BB68DAB2BB691A70BB69581C38
:100FC0007B69591EBB68FA69FFF75BFD38627B6974
:100FD000013B3A6A9A4202D06FF0050300E0002319
:100FE00018464837BD4680BDD48C0108E08C010806
:100FF00080B584B000AFF860B9607A602822B96823
:10100000F868FFF768FE7868FFF74BFE2822B9689A
:101010007868FFF751FE002318461037BD4680BDA3
:10102000B0B584B000AFC7E90201C7E90023D7E932
:101030000023144603F10045C7E90045D7E9002322
:10104000D7E9020100F0E6FE02460B4610461946BB
:101050001037BD46B0BD80B483B000AFC7E9000112
:10106000D7E90001024601F10043C7E90023D7E9AF
:101070000023104619460C37BD465DF8047B7047C7
:1010800080B582B000AFC7E90001D7E90023D7E9F6
:10109000000100F060FF02460B4610461946083773
:1010A000BD4680BD80B582B000AFC7E90001D7E979
:1010B00000234FF00000054900F0C4FF02460B4634
:1010C000104619460837BD4680BD00BF0000F03FFE
:1010D000B0B5AEB000AF7860396001223B6802FA6B
:1010E00003F3C7F89C30D7F89C305B08C7F89830FA
:1010F000D7F89830C7F8B0300123C7F8B4300223CE
:10110000C7F8AC3028E1D7F8B0305B08C7F89430A6
:10111000D7F8AC305B08C7F890300023C7F8A83088
:101120000023C7F8A43002E1D7F8A420D7F8943000
:101130001344C7F88C30D7F8AC20D7F8A830134444
:101140005B008B4ADB001344D3E90023C7E920236B
:10115000D7F8AC20D7F8A83013445B000133844A99
:10116000DB001344D3E90023C7E91E23D7F8A430DA
:10117000C7F8A030C8E0D7F8A030DB007A68134485
:10118000D3E90023C7E91C23D7F8A020D7F898306B
:101190001344DB007A681344D3E90023C7E91A2318
:1011A000D7F8A020D7F894301344DB007A681344B2
:1011B000D3E90023C7E91823D7F8A020D7F8943043
:1011C0001A44D7F898301344DB007A681344D3E903
:1011D0000023C7E91623D7E91823C7E91423D7E961
:1011E0001623C7E91223D7E92023C7E91023D7E93B
:1011F0001E23C7E90E23D7E91023D7E9140100F015
:10120000AAFE04460D46D7E90E23D7E9120100F0E5
:10121000A2FE02460B4620462946FFF701FFC7E91A
:101220000C01D7E90E23D7E9140100F094FE04461F
:101230000D46D7E91023D7E9120100F08CFE0246D3
:101240000B462046294600F0E5FDC7E90A01D7E92B
:101250000C23C7E91823D7E90A23C7E91623D7E9DE
:101260001823D7E91C0100F0D5FDC7E90801D7E92B
:101270001623D7E91A0100F0CDFDC7E90601D7F81A
:10128000A030DB007A68D118D7E90823C1E9002330
:10129000D7F8A020D7F898301344DB007A68D1182B
:1012A000D7E90623C1E90023D7E91823D7E91C01B0
:1012B000FFF7B6FEC7E90401D7E91623D7E91A01FB
:1012C000FFF7AEFEC7E90201D7F8A020D7F89430A7
:1012D0001344DB007A68D118D7E90423C1E900235D
:1012E000D7F8A020D7F894301A44D7F89830134490
:1012F000DB007A68D118D7E90223C1E90023D7F8C7
:10130000A0300133C7F8A030D7F8A020D7F88C3030
:101310009A42FFF430AFD7F8A8300133C7F8A830AD
:10132000D7F8A420D7F8B0301344C7F8A430D7F8C2
:10133000A820D7F890309A42FFF4F6AED7F8943050
:10134000C7F8B030D7F8B4300133C7F8B430D7F8A5
:10135000AC305B00C7F8AC30D7F8B4203B689A4299
:10136000FFF4D1AE00BF00BFB837BD46B0BD00BF6F
:10137000F08C0108B0B5B0B000AF786039600122E0
:101380003B6802FA03F3C7F8A4300123C7F8B8306A
:10139000D7F8A430C7F8B430D7F8A4305B08C7F842
:1013A000A0303B68C7F8BC302BE1D7F8B4305B08FD
:1013B000C7F89430D7F8B8305B00C7F890300023F6
:1013C000C7F8B0300023C7F8AC3006E1D7F8AC203E
:1013D000D7F8B8301344C7F88C30D7F89420D7F832
:1013E000B03013445B00A24ADB001344D3E900236E
:1013F000C7E92023D7F89420D7F8B03013445B0016
:1014000001339B4ADB001344D3E9002310461946FD
:10141000FFF721FEC7E91E01D7F8AC30C7F8A830A6
:10142000C8E0D7F8A830DB007A681344D3E900237A
:10143000C7E91C23D7F8A820D7F8A0301344DB0055
:101440007A681344D3E90023C7E91A23D7F8A82000
:10145000D7F8B8301344DB007A681344D3E900238B
:10146000C7E91823D7F8A820D7F8B8301A44D7F816
:10147000A0301344DB007A681344D3E90023C7E9A2
:101480001623D7E91823D7E91C0100F0C3FCC7E9EC
:101490001401D7E91623D7E91A0100F0BBFCC7E90C
:1014A0001201D7F8A830DB007A68D118D7E91423E5
:1014B000C1E90023D7F8A820D7F8A0301344DB00F7
:1014C0007A68D118D7E91223C1E90023D7E9182394
:1014D000D7E91C01FFF7A4FDC7E91001D7E91623DE
:1014E000D7E91A01FFF79CFDC7E90E01D7E91023E0
:1014F000C7E91C23D7E90E23C7E91A23D7E91C2320
:10150000C7E90C23D7E91A23C7E90A23D7E920231F
:10151000C7E90823D7E91E23C7E90623D7E908232B
:10152000D7E90C0100F017FD04460D46D7E9062364
:10153000D7E90A0100F00FFD02460B462046294676
:10154000FFF76EFDC7E90401D7E90623D7E90C01CF
:1015500000F001FD04460D46D7E90823D7E90A014A
:1015600000F0F9FC02460B462046294600F052FCEA
:10157000C7E90201D7F8A820D7F8B8301344DB0038
:101580007A68D118D7E90423C1E90023D7F8A82045
:10159000D7F8B8301A44D7F8A0301344DB007A6883
:1015A000D118D7E90223C1E90023D7F8A8300133C5
:1015B000C7F8A830D7F8A820D7F88C309A42FFF4A3
:1015C00030AFD7F8B0300133C7F8B030D7F8AC201F
:1015D000D7F890301344C7F8AC30D7F8AC20D7F820
:1015E000A0309A42FFF4F2AED7F89030C7F8B83086
:1015F000D7F89430C7F8B430D7F8BC30013BC7F8FF
:10160000BC30D7F8BC30012B3FF6CFAE3B68002B87
:101610002AD0184A3B68DB001344D3E90023C7E90A
:1016200026230023C7F8BC3018E0D7F8BC30DB0015
:101630007A681344D3E90001D7F8BC30DB007A683C
:10164000D418D7E9262300F086FC02460B46C4E9ED
:101650000023D7F8BC300133C7F8BC30D7F8BC2022
:10166000D7F8A4309A42E0D300BFC037BD46B0BD22
:10167000F08C0108F0CC0108B0B586B000AFF8607E
:10168000B9607A6001227B6802FA03F33B610023B0
:101690007B6118E07B69DB00FA681344D3E9000141
:1016A0007B69DB00BA681344D3E900237C69E4005A
:1016B000FD682C4400F0AEFB02460B46C4E9002353
:1016C0007B6901337B617A693B699A42E2D300BF4F
:1016D00000BF1837BD46B0BDB0B586B000AFF860EA
:1016E000B9607A6001227B6802FA03F33B61002350
:1016F0007B6118E07B69DB00FA681344D3E90001E1
:101700007B69DB00BA681344D3E900237C69E400F9
:10171000FD682C44FFF784FC02460B46C4E9002315
:101720007B6901337B617A693B699A42E2D300BFEE
:1017300000BF1837BD46B0BD90B585B000AF78602A
:10174000396001223B6802FA03F3BB60BB685B08A7
:10175000FB6014E0FB68DB007A681344D3E90023E4
:10176000F968C9007868441810461946FFF773FCF9
:1017700002460B46C4E90023FB680133FB60FA68AC
:10178000BB689A42E6D300BF00BF1437BD4690BD88
:10179000B0B59CB000AFF860B9607A6001227B6898
:1017A00002FA03F3BB66BB6E5B087B660023FB6635
:1017B00074E0FB6EDB00FA681344D3E90023C7E949
:1017C0001623FA6E7B6E1344DB00FA681344D3E9E8
:1017D0000023C7E91423FB6EDB00BA681344D3E986
:1017E0000023C7E91223FA6E7B6E1344DB00BA684C
:1017F0001344D3E90023C7E91023D7E91623C7E927
:101800000E23D7E91423C7E90C23D7E91223C7E92C
:101810000A23D7E91023C7E90823D7E90A23D7E920
:101820000E0100F098FB04460D46D7E90823D7E9DE
:101830000C0100F090FB02460B4620462946FFF7BC
:10184000EFFBC7E90601D7E90823D7E90E0100F04D
:1018500082FB04460D46D7E90A23D7E90C0100F0C4
:101860007AFB02460B462046294600F0D3FAC7E928
:101870000401FB6EDB00FA68D118D7E90623C1E941
:101880000023FA6E7B6E1344DB00FA68D118D7E9A7
:101890000423C1E90023FB6E0133FB66FA6E7B6E05
:1018A0009A4286D300BF00BF7037BD46B0BD90B529
:1018B00087B000AFF860C7E900230122BB6A02FAD3
:1018C00003F33B6100237B6114E07B69DB00FA6872
:1018D0001344D3E900017B69DB00FA68D418D7E927
:1018E000002300F038FB02460B46C4E900237B6965
:1018F00001337B617A693B699A42E6D300BF00BF3E
:101900001C37BD4690BD2DE9B04390B000AFF860E4
:10191000B9607A603B6001223B6802FA03F3BB6363
:10192000BB6B5B087B630023FB635CE0FB6BDB0052
:10193000BA681344D3E90023C7E90A23FA6B7B6B27
:101940001344DB00BA681344D3E90023C7E9082332
:10195000FB6BDB007A681344D3E90023C7E9062355
:10196000FA6B7B6B1344DB007A681344D3E90023E2
:10197000C7E90423D7E90A01FFF782FB04460D46B5
:10198000D7E90801FFF77CFB02460B4620462946B3
:1019900000F040FA04460D46D7E90601FFF770FB58
:1019A00080468946D7E90401FFF76AFB02460B46E9
:1019B0004046494600F02EFA02460B46204629468C
:1019C00000F028FA02460B46F96BC900F868441883
:1019D00010461946FFF766FB02460B46C4E9002392
:1019E000FB6B0133FB63FA6B7B6B9A429ED300BFA8
:1019F00000BF4037BD46BDE8B083B0B5B8B000AF5A
:101A0000F860B9607A603B600122D7F8F43002FADE
:101A100003F3C7F8D830D7F8D8305B08C7F8D4300C
:101A20000023C7F8DC3007E1D7F8DC30DB00BA6808
:101A30001344D3E90023C7E93223D7F8DC20D7F8D1
:101A4000D4301344DB00BA681344D3E90023C7E958
:101A50003023D7F8DC30DB007A681344D3E9002365
:101A6000C7E92E23D7F8DC20D7F8D4301344DB00A5
:101A70007A681344D3E90023C7E92C23D7F8DC3074
:101A8000DB003A681344D3E90023C7E92A23D7F8D7
:101A9000DC20D7F8D4301344DB003A681344D3E990
:101AA0000023C7E92823D7F8DC30DB00D7F8F02083
:101AB0001344D3E90023C7E92623D7F8DC20D7F85D
:101AC000D4301344DB00D7F8F0201344D3E90023CB
:101AD000C7E92423D7E93223C7E92223D7E93023F2
:101AE000C7E92023D7E92A23C7E91E23D7E928011C
:101AF000FFF7B1FAC7E91C01D7E91E23D7E9220194
:101B000000F029FA04460D46D7E91C23D7E9200145
:101B100000F021FA02460B4620462946FFF780FADC
:101B2000C7E91A01D7E91C23D7E9220100F013FA0B
:101B300004460D46D7E91E23D7E9200100F00BFA31
:101B400002460B462046294600F064F9C7E9180111
:101B5000D7E91A23C7E91623D7E91823C7E91423BD
:101B6000D7E92E23C7E91223D7E92C23C7E910238D
:101B7000D7E92623C7E90E23D7E92401FFF76BFA3B
:101B8000C7E90C01D7E90E23D7E9120100F0E3F908
:101B900004460D46D7E90C23D7E9100100F0DBF924
:101BA00002460B4620462946FFF73AFAC7E90A01E2
:101BB000D7E90C23D7E9120100F0CDF904460D4610
:101BC000D7E90E23D7E9100100F0C5F902460B460C
:101BD0002046294600F01EF9C7E90801D7E90A2383
:101BE000C7E90623D7E90823C7E90423D7F8DC307F
:101BF000DB00FA68D418D7E90623D7E9160100F00C
:101C000009F902460B46C4E90023D7F8DC20D7F8CF
:101C1000D4301344DB00FA68D418D7E90423D7E999
:101C2000140100F0F7F802460B46C4E90023D7F888
:101C3000DC300133C7F8DC30D7F8DC20D7F8D430FB
:101C40009A42FFF4F1AE00BF00BFE037BD46B0BD21
:101C5000B0B588B000AFF860B9607A6001227B68E7
:101C600002FA03F3BB61BB695B087B610023FB6184
:101C700032E0FB69DB00FA681344D3E90001FB6939
:101C8000DB00BA681344D3E90023FC69E400FD6873
:101C90002C4400F060F902460B46C4E90023FA69BF
:101CA0007B691344DB00FA681344D3E90001FB6944
:101CB000DB00BA681344D3E90023FD697C692C4436
:101CC000E400FD682C4400F046F902460B46C4E9E6
:101CD0000023FB690133FB61FA697B699A42C8D32F
:101CE00000BF00BF2037BD46B0BD90B58BB000AF80
:101CF000F860B9607A6001227B6802FA03F33B6204
:101D00003B6A5B08FB6100237B6236E07B6ADB0099
:101D1000BA681344D3E9002310461946FFF7C2F905
:101D2000C7E904017B6ADB00FA681344D3E90001C8
:101D30007B6ADB00FA68D418D7E9042300F00BF9BA
:101D400002460B46C4E900237A6AFB691344DB00B0
:101D5000FA681344D3E900017A6AFB691344DB0093
:101D6000FA68D418D7E9042300F0F5F802460B46C8
:101D7000C4E900237B6A01337B627A6AFB699A4279
:101D8000C4D300BF00BF2C37BD4690BD70B5CB1784
:101D900058405940C01A994102F2FE3250EA0104FB
:101DA00034EAE27465422C4312EAE47220324C4277
:101DB0000C4390EA010535EAE475694010EAE470E5
:101DC000E40F12EB4412B1FA81F4121BD4F1200596
:101DD000A14030FA05F5A04029436FF3DF710500FB
:101DE000C00A50EA4150C90A51EA0251C5F3080637
:101DF00006F2FF163543C5F34225C826EE4016F01D
:101E00000106801951F1000151EAC37170BD00BF94
:101E1000104619462DE9F04DC1F31E04C3F31E050B
:101E2000871AAC4127437D422F4331EA07062643F8
:101E300090EA020491EA030514EAE67415EAE675ED
:101E40006040694062406B40C1F30A5404F2FF7580
:101E5000ED0A6FF31E5151EA0551CD176FF3DF7193
:101E6000C3F30A5606F2FF77FF0A6FF31E5353EAD5
:101E70000753DF176FF3DF73C90051EA5071C000D9
:101E8000DB0053EA5273D200A61BB6F13C0812EAFB
:101E9000E87213EAE873B6F1200832EAE87B12EA46
:101EA000E87233EAE87A52EA0A0213EAE87316F0B3
:101EB0001F06D6F1200812FA08FA5BEA0A0BF24074
:101EC00013FA08FA52EA0A02F340DBF1000656EA76
:101ED0000B0652EAD6726F407A407B40D21BBB4160
:101EE00080185941B0FA80F2B1FA81F343F34016F9
:101EF0003240D218A41AB2F1200710FA07F7914025
:101F0000D2F12006394330FA06F6314390400734C7
:101F100014EAE1740300C00A50EA4150C90AC3F34D
:101F2000080606F2FF163343C3F34223C826DE40F9
:101F300016F00106801951F1000111EB04516442C1
:101F400010EAE47011EAE47165F3DF71BDE8F08D29
:101F500000BF104619462DE9F04D30F07E44CD010A
:101F600055EA506555F0006535F0704532F07E4613
:101F7000DF0157EA526757F0006737F07047A4FB5C
:101F8000068A5FEACA1A5AEA586A9BEA0B0BE4FB14
:101F900007ABE5FB06AB58EACA185FEA5A6A5AEA89
:101FA000CB1A9BEA0B0BE5FB07ABD8F1000458EA10
:101FB00004085AEAD87A1AF001065FEADB556D4246
:101FC00056EA5A0656EACB765FEA5B079AEA060AB1
:101FD0009BEA070B3AEA050A3BEA050B96EA0A0672
:101FE00097EA0B0748005A00400D00F2FF74520DAB
:101FF00002F2FF781218A2F20042521B14EA0804FF
:10200000D54315EA045512EAE57216EAE57617EAB1
:10201000E57759406FF31E0162F31E513400B0089A
:1020200050EA877011EB970114F00704C823E340CE
:1020300013F00103C01851F10001BDE8F08D00BF9D
:10204000104619462DE9F04DC1F31304C3F31305EF
:1020500054F4801455F4801598EA0808861A74EB35
:1020600005074FEA380812EAE87615EAE877801B98
:10207000BC4100186441861A74EB05074FEA380822
:1020800012EAE87615EAE877801BBC410018644143
:10209000861A74EB05074FEA380812EAE87615EA63
:1020A000E877801BBC4100186441861A74EB050771
:1020B0004FEA380812EAE87615EAE877801BBC4157
:1020C00000186441861A74EB05074FEA380812EAD3
:1020D000E87615EAE877801BBC4100186441861A4F
:1020E00074EB05074FEA380812EAE87615EAE87754
:1020F000801BBC4100186441861A74EB05074FEA47
:10210000380812EAE87615EAE877801BBC41001827
:102110006441861A74EB05074FEA380812EAE8763C
:1021200015EAE877801BBC4100186441861A74EBFD
:1021300005074FEA380812EAE87615EAE877801BC7
:10214000BC4100186441861A74EB05074FEA380851
:1021500012EAE87615EAE877801BBC410018644172
:10216000861A74EB05074FEA380812EAE87615EA92
:10217000E877801BBC4100186441861A74EB0507A0
:102180004FEA380812EAE87615EAE877801BBC4186
:1021900000186441861A74EB05074FEA380812EA02
:1021A000E87615EAE877801BBC4100186441861A7E
:1021B00074EB05074FEA380812EAE87615EAE87783
:1021C000801BBC4100186441861A74EB05074FEA76
:1021D000380812EAE87615EAE877801BBC41001857
:1021E0006441861A74EB05074FEA380812EAE8766C
:1021F00015EAE877801BBC4100186441861A74EB2D
:1022000005074FEA380812EAE87615EAE877801BF6
:10221000BC4100186441861A74EB05074FEA380880
:1022200012EAE87615EAE877801BBC4100186441A1
:10223000861A74EB05074FEA380812EAE87615EAC1
:10224000E877801BBC4100186441861A74EB0507CF
:102250004FEA380812EAE87615EAE877801BBC41B5
:1022600000186441861A74EB05074FEA380812EA31
:10227000E87615EAE877801BBC4100186441861AAD
:1022800074EB05074FEA380812EAE87615EAE877B2
:10229000801BBC4100186441861A74EB05074FEAA5
:1022A000380812EAE87615EAE877801BBC41001886
:1022B0006441861A74EB05074FEA380812EAE8769B
:1022C00015EAE877801BBC410018644198FAA8FA27
:1022D000861A74EB05074FEA380812EAE87615EA21
:1022E000E877801BBC4100186441861A74EB05072F
:1022F0004FEA380812EAE87615EAE877801BBC4115
:1023000000186441861A74EB05074FEA380812EA90
:10231000E87615EAE877801BBC4100186441861A0C
:1023200074EB05074FEA380812EAE87615EAE87711
:10233000801BBC4100186441861A74EB05074FEA04
:10234000380812EAE87615EAE877801BBC410018E5
:102350006441861A74EB05074FEA380812EAE876FA
:1023600015EAE877801BBC4100186441861A74EBBB
:1023700005074FEA380812EAE87615EAE877801B85
:10238000BC4100186441861A74EB05074FEA38080F
:1023900012EAE87615EAE877801BBC410018644130
:1023A000861A74EB05074FEA380812EAE87615EA50
:1023B000E877801BBC4100186441861A74EB05075E
:1023C0004FEA380812EAE87615EAE877801BBC4144
:1023D00000186441861A74EB05074FEA380812EAC0
:1023E000E87615EAE877801BBC4100186441861A3C
:1023F00074EB05074FEA380812EAE87615EAE87741
:10240000801BBC4100186441861A74EB05074FEA33
:10241000380812EAE87615EAE877801BBC41001814
:102420006441861A74EB05074FEA380812EAE87629
:1024300015EAE877801BBC4100186441861A74EBEA
:1024400005074FEA380812EAE87615EAE877801BB4
:10245000BC4100186441861A74EB05074FEA38083E
:1024600012EAE87615EAE877801BBC41001864415F
:10247000861A74EB05074FEA380812EAE87615EA7F
:10248000E877801BBC4100186441861A74EB05078D
:102490004FEA380812EAE87615EAE877801BBC4173
:1024A00000186441861A74EB05074FEA380812EAEF
:1024B000E87615EAE877801BBC4100186441861A6B
:1024C00074EB05074FEA380812EAE87615EAE87770
:1024D000801BBC4100186441861A74EB05074FEA63
:1024E000380812EAE87615EAE877801BBC41001844
:1024F0006441861A74EB05074FEA380812EAE87659
:1025000015EAE877801BBC4100186441861A74EB19
:1025100005074FEA380812EAE87615EAE877801BE3
:10252000BC4100186441861A74EB05074FEA38086D
:1025300012EAE87615EAE877801BBC41001864418E
:10254000861A74EB05074FEA380812EAE87615EAAE
:10255000E877801BBC4100186441861A74EB0507BC
:102560004FEA380812EAE87615EAE877801BBC41A2
:1025700000186441861A74EB05074FEA380812EA1E
:10258000E87615EAE877801BBC4100186441861A9A
:1025900074EB05074FEA380812EAE87615EAE8779F
:1025A000801BBC4100186441861A74EB05074FEA92
:1025B000380812EAE87615EAE877801BBC41001873
:1025C0006441861A74EB05074FEA380812EAE87688
:1025D00015EAE877801BBC4100186441861A74EB49
:1025E00005074FEA380812EAE87615EAE877801B13
:1025F000BC4100186441013874F100044FEA380806
:1026000098FAA8F818F001045FEADA56764254EA1C
:10261000580454EACA745FEA5A0598EA04089AEA28
:10262000050A38EA06083AEA060A94EA080495EA2E
:102630000A0548005A00400D00F2FF77B0EB5250F7
:1026400000F2FD30801BC24312EA075210EAE2702A
:1026500014EAE27415EAE27559406FF31E0160F363
:102660001E512600A00850EA857011EB950116F066
:102670000706C823F34013F00103C01851F100010D
:10268000BDE8F08D00BF104619462DE9F00F8AB065
:1026900000AFC7E90801FA61D7E908234FF000004D
:1026A0004FF0000118000021D7E9082380EA020654
:1026B0003E614B407B61FB695B11DA17BB60FA60DE
:1026C0000023D7E902010246D2F1000A0A4663EB71
:1026D000020BD7E904120B4603EA0A04134603EA85
:1026E0000B05D7E9082382EA040139606B407B605F
:1026F000D7E90034C7E90834FB6903F01F01D7E9C3
:102700000823C1F12004A1F1200022FA01F803FA04
:1027100004F448EA040823FA00F048EA000823FA1F
:1027200001F942464B46104619462837BD46BDE8DA
:10273000F00F70472DE9F00F8AB000AFC7E908012C
:10274000FA61D7E908234FF000004FF000011100B3
:102750000020D7E9082380EA02063E614B407B61F6
:10276000FB695B11DA17BB60FA600023D7E902014D
:102770000246D2F1000A0A4663EB020BD7E90412C3
:102780000B4603EA0A04134603EA0B05D7E90823BC
:1027900082EA040139606B407B60D7E90034C7E905
:1027A0000834FB6903F01F01D7E90823A1F12004D5
:1027B000C1F1200003FA01F902FA04F449EA04091C
:1027C00022FA00F049EA000902FA01F842464B46B3
:1027D000104619462837BD46BDE8F00F704780B552
:1027E00082B000AFC7E900010022D7E90001FFF77E
:1027F000CDFA02460B46104619460837BD4680BD45
:102800002DE9B04FA0B000AFC7E91401D7E91423F8
:102810004FF000004FF00001990241EA92519002FE
:10282000044621F04045A24645F0804BC7E91EAB67
:10283000D7E914234FF000004FF00001180D0021DC
:102840000346C3F30A0240F23D439B1A7B677B6F4A
:10285000403BDB0F0022BB64FA640023D7E912017E
:102860000246D2F100080A4663EB0209D7E91E23AB
:1028700002EA0801B96003EA0903FB60D7E9023400
:10288000C7E91E347B6F03F03F037B677B6FC3F1A7
:102890003F031A46D7E91E01FFF74CFFC7E91A01AB
:1028A000BC6ED7E91A234FF000004FF0000118006A
:1028B0000021034623F0604323437B66D7E91A23B4
:1028C0004FF000004FF00001580F002101467B6ED1
:1028D0005A427B6E1343DB0F0B433B667A6FD7E99B
:1028E0001E01FFF7D2FEC8223B6E22FA03F300223C
:1028F0003B647A643B6C03F00103BB630023FB631E
:10290000D7E90E452346C3183B602B4641EB030332
:102910007B60D7E90034C7E91E34D7E914014FF0D2
:1029200000024FF00003CA0F00231346FB65FB6D46
:1029300000223B637A630023D7E90C01024652422E
:10294000BA620A4663EB0203FB62D7E91E23D7E9AA
:102950000A45214651403962294659407962FB6D4A
:102960000022BB61FA61D7E908452346D7E9060191
:1029700002469B183B610B462A4642EB03037B61F0
:10298000D7E90423104619468037BD46BDE8B08F0D
:1029900080B582B000AFC7E90001D7E90023D7E9CD
:1029A0000001FFF7D8FA02460B46104619460837D1
:1029B000BD4680BDF0B486B000AFC7E90201C7E9EB
:1029C000002307F10803D3E900013B46D3E90023C4
:1029D000904271EB0303B4BF01230023DBB27B61A0
:1029E00007F10803D3E900233946D1E900019042F9
:1029F00071EB0303B4BF01230023DBB23B617A69AF
:102A00003B6982EA0306D7E90201D7E9002300EA1D
:102A1000020401EA03054FF000024FF00003EA0F41
:102A20000023134606EA03027B6953401846183711
:102A3000BD46F0BC704780B485B000AF78603960A7
:102A40007B68FB60FB68DB171A463B681340FA683B
:102A50001344FB60FB6818461437BD465DF8047BE1
:102A6000704780B483B000AF786039603B68013351
:102A70005B087A68D31ADB0F5A1E3B6813407A68EA
:102A8000D31A18460C37BD465DF8047B704780B4F6
:102A900085B000AF78607B68C3F10203FB607B68A0
:102AA000FA6802FB03F3C3F10202FB6802FB03F3C3
:102AB000FB607B68FA6802FB03F3C3F10202FB6868
:102AC00002FB03F3FB607B68FA6802FB03F3C3F1CC
:102AD0000202FB6802FB03F3FB607B68FA6802FBFF
:102AE00003F3C3F10202FB6802FB03F3FB60FB6824
:102AF0005B4223F0004318461437BD465DF8047B63
:102B0000704780B483B000AF78607B68C3F1004346
:102B100018460C37BD465DF8047B704780B487B01B
:102B200000AFF860B9607A60FA68BB681A447B68E5
:102B3000D31A7B617B69DB171A467B6813407A697D
:102B400013447B617B6918461C37BD465DF8047BE6
:102B5000704780B487B000AFF860B9607A60FA68F7
:102B6000BB68D31A7B617B69DB171A467B6813400D
:102B70007A6913447B617B6918461C37BD465DF852
:102B8000047B70472DE9B00F97B000AFF863B963CD
:102B90007A633B63FB6B0022BB62FA62BB6B002271
:102BA0003B627A62D7E90A010B463A6A02FB03F2FA
:102BB0007B6AC7E90A01014601FB03F31344BA6AC1
:102BC000396AA2FB01452B441D46C7E91445C7E9F4
:102BD00014453B6B0022BB60FA603B6DD7E90245B0
:102BE0002A4602FB03F27B6D214601FB03F31344EB
:102BF0003A6D2146A2FB0112FA610A46BA61FA69EE
:102C00001344FB61BB6923F000433B6000237B60FE
:102C10007B6B00223B617A61D7E900010B46D7E963
:102C20000445224602FB03F2C7E904452B4604464D
:102C30000D46214601FB03F3134422463969A2FBEA
:102C400001894B449946C7E91289C7E91289D7E936
:102C50001401D7E9122310EB020A41EB030B4FF0EA
:102C600000024FF000034FEADA7242EA4B024FEAE9
:102C7000DB737B6BD31A7B647B6CDB171A467B6B35
:102C800013407A6C13447B647B6C18465C37BD46FA
:102C9000BDE8B00F704780B584B000AF7860396090
:102CA0007868FFF72EFFF8607A68F968F868FFF730
:102CB00035FFF8603B687A68F968F868FFF762FFEB
:102CC000F8603B687A68F968F868FFF75BFFF860BE
:102CD0003B687A68F968F868FFF754FFF8603B686A
:102CE0007A68F968F868FFF74DFFF8603B687A6822
:102CF000F968F868FFF746FFF860FB6803F0010326
:102D00005A427B681A40FB6813445B08FB60FB680F
:102D100018461037BD4680BD80B588B000AFF8605A
:102D2000B9607A603B60FB68013BFB603B68BB615C
:102D3000B868FFF7E6FE78610023FB6118E0FA68E7
:102D4000FB6922FA03F303F00103002B06D07B6832
:102D5000BA68B9697869FFF715FF78617B68BA6866
:102D6000B969B869FFF70EFFB861FB690133FB6110
:102D70000122FB6902FA03F3FA689A42DFD27B6907
:102D800018462037BD4680BD80B588B000AFF860DA
:102D9000B9607A603B607B68023B7B61BB6AFB6128
:102DA0001E23BB611EE03B687A68F969F869FFF78A
:102DB000E9FEF8613B687A68B968F869FFF7E2FEF6
:102DC0003861FA693B695A407969BB6921FA03F3B2
:102DD00003F001035B421340FA695340FB61BB6996
:102DE000013BBB61BB69002BDDDA3B687A680121DE
:102DF000F869FFF7C7FEF8613B687A68F969F86817
:102E0000FFF7C0FE034618462037BD4680BD0000D0
:102E100080B58EB002AFF860B9607A603B60012285
:102E20007B6802FA03F3FB61F96BB86BFFF733FFC2
:102E3000B861FB6BBA6BB9693868FFF7A3FE3860FD
:102E40007B68BB6209E0FB6BBA6B39683868FFF7D7
:102E500099FE3860BB6A0133BB62BB6A092BF2D9A9
:102E6000B86BFFF74EFE03460093FB6BBA6B3968F5
:102E7000B869FFF789FF78617B68C3F10A03BB6219
:102E8000B86BFFF73EFE38623B6A7B620023FB6251
:102E900024E0FA6ABB6A02FA03F3154A32F81330E7
:102EA0003B613B699B00FA6813447A6A1A603B698C
:102EB0009B00BA6813443A6A1A60FB6BBA6B3968B4
:102EC000786AFFF75FFE7862FB6BBA6B7969386AE4
:102ED000FFF758FE3862FB6A0133FB62FA6AFB694E
:102EE0009A42D6D300BF00BF3037BD4680BD00BF79
:102EF000C0E5010880B590B000AFF860B9607A60B5
:102F00003B603B68002B6DD001223B6802FA03F363
:102F10003B623B6AFB630123BB635EE0FB6B5B08C8
:102F2000FB6100237B6300233B634DE0BA6B7B6B4B
:102F300013449B007A6813441B68BB613B6BBA68FF
:102F400002FB03F39B00FA681344BB62FB69BA6897
:102F500002FB03F39B00BA6A13447B620023FB620B
:102F600027E0BB6A1B687B617B6A1868FB6CBA6CE4
:102F7000B969FFF707FE3861BA6C39697869FFF7FC
:102F8000CDFD0246BB6A1A60BA6C39697869FFF7F1
:102F9000E0FD02467B6A1A60FB6A0133FB62BB6894
:102FA0009B00BA6A1344BB62BB689B007A6A1344F5
:102FB0007B62FA6AFB699A42D3D37B6B01337B63F2
:102FC0003A6BFB6B13443B637A6BBB6B9A42ADD39A
:102FD000FB69FB63BB6B5B00BB63BA6B3B6A9A42EA
:102FE0009CD300E000BF4037BD4680BD80B594B0A3
:102FF00000AFF860B9607A603B603B68002B00F07E
:10300000918001223B6802FA03F3BB620123FB6457
:10301000BB6ABB6461E0BB6C5B083B62FB6C5B0042
:10302000FB610023FB630023BB634DE03A6AFB6B4B
:1030300013449B007A6813441B68BB61BB6BBA687E
:1030400002FB03F39B00FA6813443B63FB6CBA6812
:1030500002FB03F39B003A6B1344FB6200237B6388
:1030600027E03B6B1B687B61FB6A1B683B61BA6DA9
:1030700039697869FFF752FD02463B6B1A60BA6DF9
:1030800039697869FFF765FDFB6DBA6DB969FFF7BE
:1030900079FD0246FB6A1A607B6B01337B63BB6878
:1030A0009B003A6B13443B63BB689B00FA6A134472
:1030B000FB627A6BFB6C9A42D3D3FB6B0133FB63ED
:1030C000BA6BFB691344BB63FA6B3B6A9A42ADD39C
:1030D000FB69FB64BB6C5B08BB64BB6C012B9AD8BF
:1030E0004FF000423B6822FA03F37B6200237B64CB
:1030F000FB683B6411E03B6C1868FB6DBA6D796A44
:10310000FFF740FD02463B6C1A607B6C01337B6429
:10311000BB689B003A6C13443B647A6CBB6A9A426E
:10312000E9D300E000BF5037BD4680BD90B589B0FF
:1031300000AFF860B9607A603B60BB68013B012278
:1031400002FA03F3BB610023FB6120E0FB69DB00B3
:10315000FA6813441B687B61FB69DB000433FA687F
:1031600013441B683B613B687A6839697869FFF7EB
:1031700009FDFB699B00FA68D4183B687A68396BD3
:10318000FFF700FD03462360FB690133FB61FA6929
:10319000BB699A42DAD300BF00BF2437BD4690BD59
:1031A00080B48BB000AFF860B9607A603B600023F8
:1031B0003B623B685B42FB6100237B6225E07B6AEC
:1031C0009B00FA6813441B68BB617B6A9B00BA686A
:1031D00013441B68BA69D21A3B6AD31A7B617B69B4
:1031E000DB0F3B627B6923F00042BB695A40FB69FD
:1031F0001340BA695340BB617B6A9B00FA68134471
:10320000BA691A607B6A01337B627A6A7B689A4288
:10321000D5D33B6A18462C37BD465DF8047B704712
:103220002DE9B00F8DB000AFF861B9617A6100236C
:10323000BB620023FB623CE0FB6A9B00FA6913441B
:103240001B680022984691467B6900229A46934665
:103250000AFB09F208FB0BF31344A8FB0A452B44B5
:103260001D46BB6A0022BB60FA60D7E902120B461A
:10327000E3183B60134645EB03037B60D7E900236B
:10328000C7E908233A6AFB6A9B00F9690B4422F0FC
:1032900000421A60D7E908014FF000024FF0000326
:1032A000C20F42EA4102CB0F1346BB62FB6A0133F5
:1032B000FB62FA6ABB699A42BED3BB6A18463437CE
:1032C000BD46BDE8B00F704780B588B000AFF8606C
:1032D000B9607A603B600023FB61BB68BB611CE0A6
:1032E0003B687A68B96AF869FFF74CFCF861BB691A
:1032F0009B00FA6813441A687B68D31A7B617B6968
:10330000DB171A467B6813407A6913447B617A683D
:103310007969F869FFF702FCF861BB695A1EBA6166
:10332000002BDDD1FB6918462037BD4680BD80B536
:1033300088B002AFF860B9607A603B60BB68002B70
:1033400001D100231BE03B6A00933B687A68B968AF
:10335000F868FFF7B9FF7861BA686FF0404313442B
:103360009B00FA6813441B689B0F5A427B6A134008
:103370007A6819467869FFF7ECFB78617B69184633
:103380001837BD4680BD2DE9B00F93B000AFF8628D
:10339000B9627A623B6200233B6400237B6456E09F
:1033A0007B6C9A00FB6A13441B68FB637B6C9A007E
:1033B000BB6A13441B68BB63BB6B00229A469346EF
:1033C0003B6A0022BB61FA61D7E90601034603FBB1
:1033D0000BF20B460AFB03F313440246AAFB024519
:1033E0002B441D46FB6B00223B617A61D7E9041236
:1033F0000B4614EB0308134645EB03093B6C002214
:10340000BB60FA60D7E902120B4618EB03033B607E
:10341000134649EB03037B60D7E90023C7E90C237C
:10342000396B7B6C9A00FB6A1A4421F000431360ED
:10343000D7E90C234FF000004FF00001D00F40EA15
:103440004300D90F03463B647B6C01337B647A6C89
:103450007B6A9A42A4D37B6A9B00FA6A13443A6C53
:103460001A6000BF4C37BD46BDE8B00F704780B54D
:103470008AB000AFF860B9607A6000233B62002335
:10348000FB617B687B622BE07B6A9B00FA681344DC
:103490001B68BB617B6A9B00BA6813441B685A08AF
:1034A000FB699B0713437B617B6A9B00BA681344EB
:1034B0001B6803F00103FB617A69BB69D31A3B61A6
:1034C0003B695B42DB0F3A69D21713433B613B6AAE
:1034D00003F001035A1E3B6913403A6A13433B62EF
:1034E0007B6A5A1E7A62002BCED13B6ADB0F7A6868
:1034F000B968F868FFF754FE00BF2837BD4680BDA5
:1035000090B591B002AFF860B9607A603B60BB6C77
:103510001A683B6D1A6001237B635CE07A6B13468B
:103520005B0013449B001A46BB6C13441B68BB62D0
:103530007A6B13465B0013449B001A46BB6C134422
:103540009B687B62B86AFFF7A2FA3862396AB86A88
:10355000FFF7A1FBF8610023FB62FB683B6328E0F7
:103560007B6B9B003A6B13441B68BB61FB69009348
:103570003B6ABA6A796B386BFFF7A6FE7861BA6A64
:103580007969B869FFF7E5FA01463B6ABA6A786A71
:10359000FFF7F8FA38613B697A6B396D386BFFF7E2
:1035A000F2FEFB6A0133FB627B689B003A6B1344BB
:1035B0003B63FA6A3B689A42D2D37B6B9B003A6DBD
:1035C000D418BA6A796B386DFFF72AFE0346236078
:1035D0007B6B01337B637A6BBB689A429ED3FB6C37
:1035E000002B15D000237B63FB683B630CE0BA68BB
:1035F000396D386BFFF73BFF7B6B01337B637B6877
:103600009B003A6B13443B637A6B3B689A42EED360
:1036100000BF3C37BD4690BD80B489B000AFF860B4
:10362000B9607A607B68BB617B685B425B087B61E9
:103630000023FB6119E0FB699B00FA6813441B68D7
:103640003B613A697B695340BA6913443B61FB694A
:103650009B00FA6813443A6922F000421A603B6901
:10366000DB0FBB61FB690133FB61FA69BB689A42FE
:10367000E1D300BF00BF2437BD465DF8047B70472F
:103680002DE9B04FA4B000AF78653965FA644FF00A
:1036900000024FF00003C7E920234FF000024FF073
:1036A0000003C7E91E230023C7F88C30C6E0D7F813
:1036B0008C309A007B6D13441B68FB66D7F88C3006
:1036C0009A003B6D13441B68BB66FB6E00223B6493
:1036D0007A64D7E92C23796C02FB01F0396C01FB89
:1036E00003F10144386CA0FB02AB01EB0B039B46DA
:1036F000BB6E0022BB63FA63D7E92E23F96B02FB92
:1037000001F0B96B01FB03F10144B86BA0FB02238C
:103710007B6313463B637B6BCB187B63D7E90C124F
:103720000B461AEB0303BB6113464BEB0303FB6130
:10373000D7E92023B9698918B960F96941EB030316
:10374000FB60D7E90223C7E91823FB6E0022BB62A6
:10375000FA62D7E93023F96A02FB01F0B96A01FB8A
:1037600003F10144B86AA0FB02454B191D46BB6E2C
:1037700000223B627A62D7E93223796A02FB01F0C8
:10378000396A01FB03F10144386AA0FB028901EBAD
:103790000903994614EB08033B6145EB09037B6180
:1037A000D7E91E23396989183960796941EB030328
:1037B0007B60D7E90023C7E91623D7F88C30002BAC
:1037C0001BD0D7E918231146D7F88C206FF040435F
:1037D00013449A007B6D1A4421F000431360D7E92B
:1037E00016231146D7F88C206FF0404313449A00FB
:1037F0003B6D1A4421F00043136007F16003D3E9E5
:1038000000234FF000004FF00001D00F40EA4300CA
:10381000D917C7E9200107F15803D3E900234FF076
:1038200000004FF00001D00F40EA4300D917C7E96C
:103830001E01D7F88C300133C7F88C30D7F88C20B4
:10384000FB6C9A42FFF433AFFA6C6FF040431344C1
:103850009B007A6D1344D7F880201A60FA6C6FF0E1
:10386000404313449B003A6D1344BA6F1A60D7E982
:1038700020014FF000024FF00003CA0F002313464F
:103880007B67D7E91E014FF000024FF00003CA0F1B
:10389000002313463B677A6FF96C786DFFF7BCFE27
:1038A0003A6FF96C386DFFF7B7FE3B6F5A007B6FCC
:1038B000134318469037BD46BDE8B08F80B48BB037
:1038C00000AFF860B9607A603B6000233B62002380
:1038D0007B6211E07B6A9B00FA6813441A687B6A7A
:1038E0009B0079680B441B68D21A3B6AD31ADB0F22
:1038F0003B627B6A01337B627A6ABB689A42E9D396
:103900003B685B425B08FB613B6AC3F101023B68B9
:1039100013435B42BB613B683B6200237B6223E055
:103920007B6A9B00FA6813441B687B617B6A9B007F
:103930007A6813441A68FB695340BA6913403B61C3
:103940007A693B69D21A3B6AD31A7B617B6A9B0016
:10395000FA6813447A6922F000421A607B69DB0F2F
:103960003B627B6A01337B627A6ABB689A42D7D337
:1039700000BF00BF2C37BD465DF8047B70472DE9C2
:10398000B04FB4B000AFC7F89400C7F89010C7F8B4
:103990008C20C7F888304FF000024FF00003C7E9D1
:1039A00030234FF000024FF00003C7E92E23D7F871
:1039B00094301A68D7F8F83003FB02F1D7F890304A
:1039C0001A68D7F8003102FB03F3CA18D7F8F030B1
:1039D00002FB03F323F00043C7F8B430D7F8943068
:1039E0001A68D7F8083103FB02F1D7F890301A684B
:1039F000D7F8103102FB03F3CA18D7F8F03002FBF6
:103A000003F323F00043C7F8B0300023C7F8CC30ED
:103A100035E1D7F8CC309A00D7F8943013441B68BE
:103A2000C7F8AC30D7F8CC309A00D7F890301344B0
:103A30001B68C7F8A830D7F8AC300022BB67FA671C
:103A4000D7E93E23F96F02FB01F0B96F01FB03F1E7
:103A50000144B86FA0FB0223C7F884301346C7F8AF
:103A60008030D7F88430CB18C7F88430D7F8A83026
:103A700000223B677A67D7E94023796F02FB01F0A8
:103A8000396F01FB03F10144386FA0FB0223FB6691
:103A90001346BB66FB6ECB18FB66D7F88030D7E9C0
:103AA0001A0102469B18BB62D7F884300A4653417C
:103AB000FB62D7F8CC309A00D7F88C3013441B68DF
:103AC00000223B667A66D7F8B4300022BB65FA65FF
:103AD000D7E918010B46BA6D02FB03F2FB6DC7E98B
:103AE0001801014601FB03F313443A6EB96DA2FBC2
:103AF00001127A650A463A657A6D13447B65BB6AA2
:103B0000D7E9140102469B183B62FB6A0A465341FF
:103B10007B62D7E93023396A89183961796A41EBC8
:103B200003037B61D7E90423C7E92823D7F8AC3026
:103B30000022BB64FA64D7E94223F96C02FB01F06E
:103B4000B96C01FB03F10144B86CA0FB02454B19B1
:103B50001D46D7F8A83000223B647A64D7E9442395
:103B6000796C02FB01F0396C01FB03F10144386C04
:103B7000A0FB02AB01EB0B039B4614EB0A03BB60FB
:103B800045EB0B03FB60D7F8CC309A00D7F88C30AC
:103B900013441B680022BB63FA63D7F8B0300022DD
:103BA0003B637A63D7E90E010B463A6B02FB03F2E3
:103BB0007B6BC7E90E01014601FB03F31344BA6BAB
:103BC000396BA2FB01894B449946D7E902120B4697
:103BD00013EB0803BB61134643EB0903FB61D7E911
:103BE0002E23B96989183960F96941EB03037B60B9
:103BF000D7E90023C7E92623D7F8CC30002B1DD006
:103C0000D7E928231146D7F8CC206FF0404313445E
:103C10009A00D7F894301A4421F000431360D7E992
:103C200026231146D7F8CC206FF0404313449A0066
:103C3000D7F890301A4421F00043136007F1A00335
:103C4000D3E900234FF000004FF00001D00F40EA0D
:103C50004300D917C7E9300107F19803D3E90023DE
:103C60004FF000004FF00001D00F40EA4300D91799
:103C7000C7E92E01D7F8CC300133C7F8CC30D7F8DC
:103C8000CC20D7F888309A42FFF4C3AED7F888200A
:103C90006FF0404313449B00D7F894201344D7F8A7
:103CA000C0201A60D7F888206FF0404313449B006F
:103CB000D7F890201344D7F8B8201A60D7E930011C
:103CC0004FF000024FF00003CA0F00231346D7F84D
:103CD0008C20D7F88810D7F89400FFF7EFFDD7E9CC
:103CE0002E014FF000024FF00003CA0F00231346CD
:103CF000D7F88C20D7F88810D7F89000FFF7DEFDB2
:103D000000BFD037BD46BDE8B08F2DE9F04FADF50F
:103D10005F7D0AAFC7F89C02C7F89812C7F89422D3
:103D2000C7F89032D7F87833002B02D1002300F087
:103D300001BED7F89C32C7F8E832D7F89832C7F8F6
:103D4000E432D7F87C33C7F8E032D7F878339A00FA
:103D5000D7F8E0321344C7F8DC32D7F878339A004A
:103D6000D7F8DC321344C7F8D832D7F878339A0042
:103D7000D7F8D8321344C7F8D432D7F894321B6836
:103D80001846FEF784FEC7F8D002D7F890321B68B9
:103D90001846FEF77CFEC7F8CC02D7F878339B00B4
:103DA0001A46D7F89412D7F8D8020BF0E3FAD7F8EE
:103DB00078339B001A46D7F89012D7F8D4020BF04C
:103DC000D9FAD7F8E82201231360D7F8E832181D92
:103DD000D7F87833013B9B001A4600210BF0E0FB3B
:103DE000D7F878339B001A460021D7F8E4020BF08D
:103DF000D7FBD7F878339B001A46D7F89012D7F83C
:103E0000E0020BF0B7FAD7F878339B001A46D7F8E0
:103E10009412D7F8DC020BF0ADFAD7F8DC321B684D
:103E20005A1ED7F8DC321A60D7F8782313465B01A4
:103E30009B1A5B001E33C7F84C3300F044BD4FF0B3
:103E4000FF33C7F840334FF0FF33C7F83C3300234C
:103E5000C7F838330023C7F834330023C7F83033AA
:103E60000023C7F82C33D7F87833C7F8443358E029
:103E7000D7F844339A00D7F8D83213441B68C7F8F0
:103E8000A432D7F844339A00D7F8D43213441B68CD
:103E9000C7F8A032D7F83823D7F8A4325A40D7F859
:103EA00040331A40D7F838335340C7F83833D7F87F
:103EB0003423D7F8A4325A40D7F83C331A40D7F805
:103EC00034335340C7F83433D7F83023D7F8A0320F
:103ED0005A40D7F840331A40D7F830335340C7F828
:103EE0003033D7F82C23D7F8A0325A40D7F83C33D8
:103EF0001A40D7F82C335340C7F82C33D7F8403347
:103F0000C7F83C33D7F8A422D7F8A0321A436FF091
:103F100000431344DB0F5A1ED7F840331340C7F851
:103F20004033D7F84423531EC7F84433002A9FD1A7
:103F3000D7F83823D7F83C331A40D7F83433134333
:103F4000C7F83433D7F83C33DA43D7F83833134063
:103F5000C7F83833D7F83023D7F83C331A40D7F8AE
:103F60002C331343C7F82C33D7F83C33DA43D7F854
:103F700030331340C7F83033D7F838330022C7F84E
:103F80005831C7F85C21D7E956120B465B08C7F8D1
:103F90008C320B46DB07C7F88832D7F8343300225F
:103FA000C7F85031C7F85421D7F88832D7E95401FF
:103FB00002469B18C7F8B030D7F88C320A465341F6
:103FC000C7F8B430D7E92C23C7E9C823D7F8303372
:103FD0000022C7F84831C7F84C21D7E952120B46E6
:103FE0005B08C7F884320B46DB07C7F88032D7F886
:103FF0002C330022C7F84031C7F84421D7F880326B
:10400000D7E9500102469B18C7F8A830D7F8843288
:104010000A465341C7F8AC30D7E92A23C7E9C6237B
:10402000D7F8D8321B68C7F81433D7F8D4321B68D6
:10403000C7F810334FF001024FF00003C7E9C22365
:104040004FF000024FF00003C7E9C0234FF0000219
:104050004FF00003C7E9BE234FF001024FF0000309
:10406000C7E9BC230023C7F8EC32EAE2D7E9C6016E
:10407000D7E9C823861AC7F8A06061EB0303C7F825
:10408000A430D7E92823C7E9B023D7E9C801D7E985
:10409000C62380EA0206C7F878624B40C7F87C3234
:1040A000D7E9C801D7E9B02380EA0206C7F838612A
:1040B0004B40C7F83C31D7F87832D7E94E01024679
:1040C0001340C7F87032D7F87C320A461340C7F85D
:1040D0007432D7E9B023D7F870125140C7F83011C5
:1040E000D7F874124B40C7F834314FF000024FF04C
:1040F0000003D7F83411CA0F00231346C7F8BC32A7
:10410000D7F81423D7F8EC3222FA03F303F00103B3
:10411000C7F8B832D7F81023D7F8EC3222FA03F3F5
:1041200003F00103C7F8B432D7F8B822D7F8B43295
:104130001A40D7F8BC321340C7F8B032D7F8B822CB
:10414000D7F8B4321A40D7F8BC32DB431340C7F873
:10415000AC32D7F8B83283F00102D7F8B03213434B
:10416000C7F8A832D7F8B0325A42D7F810331A40FD
:10417000D7F814339B1AC7F81433D7F8B03200229B
:10418000C7F82831C7F82C210023D7E94A01024695
:104190005242C7F868220A4663EB0203C7F86C3242
:1041A000D7E9C623D7F868121140C7F86012D7F8CC
:1041B0006C120B40C7F86432D7E9C823D7F86012F5
:1041C000511AC7F89810D7F8641263EB0103C7F8C7
:1041D0009C30D7E92623C7E9C823D7F8B03200229C
:1041E000C7F82031C7F824210023D7E94801024647
:1041F0005242C7F858220A4663EB0203C7F85C3202
:10420000D7E9BE23D7F858121140C7F85012D7F893
:104210005C120B40C7F85432D7E9C223D7F85012CA
:10422000511AC7F89010D7F8541263EB0103C7F87E
:104230009430D7E92423C7E9C223D7F8B03200224B
:10424000C7F81831C7F81C210023D7E946010246F8
:104250005242C7F848220A4663EB0203C7F84C32C1
:10426000D7E9BC23D7F848121140C7F84012D7F855
:104270004C120B40C7F84432D7E9C023D7F840129C
:10428000511AC7F88810D7F8441263EB0103C7F836
:104290008C30D7E92223C7E9C023D7F8AC325A4281
:1042A000D7F814331A40D7F810339B1AC7F81033D5
:1042B000D7F8AC320022C7F81031C7F81421002318
:1042C000D7E9440102465242C7F838220A4663EB56
:1042D0000203C7F83C32D7E9C823D7F83812114097
:1042E000C7F83012D7F83C120B40C7F83432D7E980
:1042F000C623D7F83012511AC7F88010D7F83412F5
:1043000063EB0103C7F88430D7E92023C7E9C6234C
:10431000D7F8AC320022C7F80831C7F80C210023C7
:10432000D7E9420102465242C7F828220A4663EB07
:104330000203C7F82C32D7E9C223D7F8281211405C
:10434000C7F82012D7F82C120B40C7F82432D7E94F
:10435000BE23D7F82012511AB967D7F8241263EB9D
:104360000103FB67D7E91E23C7E9BE23D7F8AC32A8
:104370000022C7F80031C7F804210023D7E9400123
:1043800002465242C7F818220A4663EB0203C7F8F6
:104390001C32D7E9C023D7F818121140C7F8101201
:1043A000D7F81C120B40C7F81432D7E9BC23D7F852
:1043B0001012511A3967D7F8141263EB01037B67A7
:1043C000D7E91C23C7E9BC23D7F8A8325A1ED7F86F
:1043D00014331A40D7F814331344C7F81433D7F8FA
:1043E000A8320022C7F8F830C7F8FC20D7E93E12FF
:1043F0000B46013BC7F80832134643F1FF33C7F8B9
:104400000C32D7E9C223D7F808121140C7F80012BE
:10441000D7F80C120B40C7F80432D7E9C223D7F8FB
:1044200000125118B966D7F804124B41FB66D7E960
:104430001A23C7E9C223D7F8A8320022C7F8F03000
:10444000C7F8F420D7E93C120B46013BC7F8F83116
:10445000134643F1FF33C7F8FC31D7E9C023D7F83F
:10446000F8111140C7F8F011D7F8FC110B40C7F84C
:10447000F431D7E9C023D7F8F01151183966D7F8CD
:10448000F4114B417B66D7E91823C7E9C023D7E96C
:10449000C8234FF000004FF00001500840EAC370FD
:1044A0005908D7E9C82380EA0206C7F8E8614B40FB
:1044B000C7F8EC31D7F8A8320022C7F8E830C7F8BF
:1044C000EC200023D7E93A0102465242C7F8E02027
:1044D0000A4663EB0203C7F8E430D7F8E831D7E9BE
:1044E000380102461340C7F8E031D7F8EC310A46EC
:1044F0001340C7F8E431D7E9C823D7F8E011514099
:10450000B965D7F8E4114B40FB65D7E91623C7E935
:10451000C823D7F8A8325A42D7F810331A40D7F830
:1045200010331344C7F81033D7F8A8320022C7F865
:10453000D830C7F8DC200023D7E9360102465242C2
:10454000C7F8D8210A4663EB0203C7F8DC31D7E984
:10455000BE23D7F8D8111140C7F8D011D7F8DC1115
:104560000B40C7F8D431D7E9BE23D7F8D011511882
:104570003965D7F8D4114B417B65D7E91423C7E9D6
:10458000BE23D7F8A8320022C7F8D030C7F8D4200D
:104590000023D7E9340102465242C7F8C8210A462F
:1045A00063EB0203C7F8CC31D7E9BC23D7F8C811B5
:1045B0001140C7F8C011D7F8CC110B40C7F8C4316F
:1045C000D7E9BC23D7F8C0115118B964D7F8C41182
:1045D0004B41FB64D7E91223C7E9BC23D7E9C623C3
:1045E0004FF000004FF00001500840EAC370590836
:1045F000D7E9C62380EA020A81EA030BD7F8A8327A
:104600000022C7F8C830C7F8CC20D7E932120B46D1
:1046100013F1FF38134643F1FF390AEA08040BEAA5
:104620000905D7E9C62382EA040139646B407B643B
:10463000D7E91023C7E9C623D7F8EC320133C7F80E
:10464000EC32D7F8EC321E2B7FF710ADD7E9BC2344
:10465000CDE90623D7E9BE23CDE90423D7E9C0235A
:10466000CDE90223D7E9C223CDE90023D7F8782387
:10467000D7F8D412D7F8D802FFF702F8C7F8C80263
:10468000D7E9C2239118B9635B41FB63D7E90E01F7
:10469000D7F8C8320022C7F8C030C7F8C420D7F80E
:1046A000C03003F00103C7F8B8310023C7F8BC31AC
:1046B0000023D7F8B8215242C7F8B021D7F8BC215F
:1046C00063EB0203C7F8B431D7F8B0310340C7F841
:1046D000A831D7F8B4310B40C7F8AC31D7E9C223C1
:1046E000D7F8A811511A3963D7F8AC1163EB01035D
:1046F0007B63D7E90C23C7E9C223D7E9C02391180C
:10470000B9625B41FB62D7E90A01D7F8C8320022DF
:10471000C7F8B830C7F8BC20D7F8B83003F00103A9
:10472000C7F8A0310023C7F8A4310023D7F8A0218F
:104730005242C7F89821D7F8A42163EB0203C7F8C7
:104740009C31D7F898310340C7F89031D7F89C31A5
:104750000B40C7F89431D7E9C023D7F89011511A0C
:104760003962D7F8941163EB01037B62D7E9082320
:10477000C7E9C023D7E9BE239118B9615B41FB614A
:10478000D7E90601D7F8C8325B080022C7F888319C
:10479000C7F88C210023D7F888215242C7F880211E
:1047A000D7F88C2163EB0203C7F88431D7F8803146
:1047B0000340C7F87831D7F884310B40C7F87C3113
:1047C000D7E9BE23D7F87811511A3961D7F87C118F
:1047D00063EB01037B61D7E90423C7E9BE23D7E973
:1047E000BC239118B9605B41FB60D7E90201D7F89F
:1047F000C8325B080022C7F87031C7F87421002363
:10480000D7F870215242C7F86821D7F8742163EBBA
:104810000203C7F86C31D7F868310340C7F860313C
:10482000D7F86C310B40C7F86431D7E9BC23D7F80F
:104830006011511A3960D7F8641163EB01037B6092
:10484000D7E90023C7E9BC23D7E9BC23CDE9082376
:10485000D7E9BE23CDE90623D7E9C023CDE9042358
:10486000D7E9C223CDE90223D7F8CC320093D7F899
:104870007833D7F89022D7F8E012D7F8E802FFF79C
:104880007EF8D7E9BC23CDE90823D7E9BE23CDE9DB
:104890000623D7E9C023CDE90423D7E9C223CDE914
:1048A0000223D7F8D0320093D7F87833D7F8942280
:1048B000D7F8DC12D7F8E402FFF761F8D7F84C33E9
:1048C0001E3BC7F84C33D7F84C331D2B3FF6B7AA25
:1048D000D7F8D8321B6883F00103C7F848330123A7
:1048E000C7F8443310E0D7F844339B00D7F8D822F8
:1048F00013441B68D7F848231343C7F84833D7F845
:1049000044330133C7F84433D7F84423D7F8783316
:104910009A42E8D3D7F848335A42D7F8483313437A
:10492000DB175A1CD7F894321B681A40D7F890321C
:104930001B681340184607F55577BD46BDE8F08F54
:104940002DE9B00F99B000AFF862B9627A623B62AC
:104950003B6A002B00F08F803A6A6FF040431344AB
:104960009A007B6A13441B689B0F5B425B083B65A4
:104970000023BB6500237B65D7F88430FB6575E0B9
:10498000FA6DD7F88430D31AFB64FA6C3B6A9A420A
:1049900005D2FB6C9A007B6A13441B6800E03B6DF8
:1049A000BB64BA6CD7F8883002FA03F323F00042F4
:1049B000BB6D13437B64D7F88830C3F11F02BB6C17
:1049C000D340BB657B6C00229A469346D7F8803073
:1049D000DA17BB61FA61D7E90601034603FB0BF264
:1049E0000B460AFB03F313440246AAFB02452B4481
:1049F0001D46FB6D9A00FB6A13441B6800223B6155
:104A00007A61D7E904120B4614EB0308134645EB11
:104A100003097B6DDA17BB60FA60D7E902120B4617
:104A200018EB03033B60134649EB03037B60D7E9B4
:104A30000023C7E90E23B96BFB6D9A00FB6A1A4489
:104A400021F000431360D7E90E234FF000004FF030
:104A50000001D00F40EA4300D90F03467B6307F102
:104A600034031B687B65FB6D0133FB65FA6DBB6A24
:104A70009A4285D300E000BF6437BD46BDE8B00F61
:104A8000704780B48DB000AFF860B9607A603B6069
:104A90003B68002B4FD03A686FF0404313449B00B3
:104AA0007A6813441B689B0F5B425B083B620023E0
:104AB000BB6200237B62BB6BFB6237E0FA6ABB6BB5
:104AC000D31AFB61FA693B689A4205D2FB699B00E5
:104AD0007A6813441B6800E03B6ABB61BA69FB6BF0
:104AE00002FA03F323F00043BA6A13437B61FB6BC2
:104AF000C3F11F03BA6922FA03F3BB62FB6A9B008E
:104B0000FA6813441A687B69D21A7B6AD31A3B612C
:104B1000FB6A9B00FA6813443A6922F000421A606B
:104B20003B69DB0F7B62FB6A0133FB62FA6ABB689D
:104B30009A42C3D300E000BF3437BD465DF8047B22
:104B4000704780B485B000AF78607B681B68FB60FD
:104B5000FB685B0003F00042FB681343FB6007F156
:104B60000C031B6818461437BD465DF8047B70477C
:104B7000B0B590B000AFF860B9607A603B600122D8
:104B80003B6D02FA03F3FB617B68002B14D1002319
:104B9000FB630CE0FB6BDB00FA68D1184FF00002FE
:104BA0004FF00003C1E90023FB6B0133FB63FA6B99
:104BB000FB699A42EED374E00023FB636DE07A68F0
:104BC0006FF0404313449B00BA6813441B689B0F6B
:104BD0005B42BB61BB695B087B61BB6903F001039E
:104BE0007B634FF000024FF00003C7E90A234FF048
:104BF00000022D4BC7E908230023BB6339E0BB6BE0
:104C00009B00BA6813441A687B695A407B6B134453
:104C10003B613B69DB0F7B633B6923F000433B61F6
:104C20003A693B695900BB690B40D31A3B6107F1F4
:104C300010031B68DA171C46154620462946FDF767
:104C4000CEFDD7E90823FDF786F902460B46D7E9E2
:104C50000A01FDF7DFF8C7E90A01BB6B0133BB634B
:104C60004FF00002114BD7E90801FDF774F9C7E9CD
:104C70000801BA6B7B689A42C1D3FB6BDB00FA6810
:104C8000D118D7E90A23C1E90023FB6B0133FB6389
:104C90003B689B00BA681344BB60FA6BFB699A429D
:104CA0008DD34037BD46B0BD0000F03F0000E0416D
:104CB00080B588B000AFF860B9607A603B600122CF
:104CC0003B6802FA03F3BB610023FB611BE0FB6955
:104CD0009B00BA6813441846FFF733FF78617B687E
:104CE0005B427A699A4203DB7A697B689A4201DD0A
:104CF00000230DE0FA68FB6913447A6952B21A7016
:104D0000FB690133FB61FA69BB699A42DFD3012376
:104D100018462037BD4680BD80B58EB004AFF86020
:104D2000B9607A603B6001227B6C02FA03F33B615D
:104D300000237B6240E07B6A9B00BA6B13441B68D4
:104D40005B423B627B6A7A6802FB03F39B00FA6872
:104D50001344BB613B687B610023FB6125E03B6C36
:104D60000293FB6B01933B6A00933B6B7A69B968D2
:104D7000B869FFF7E5FD7A6AFB691A443B69013BB4
:104D80009A4205D1FB68BB613B6A5B423B6204E02F
:104D90007B689B00BA691344BB617B6B9B007A699B
:104DA00013447B61FB690133FB61FA693B699A42F9
:104DB000D5D37B6A01337B627A6A3B699A42BAD364
:104DC00000BF00BF2837BD4680BD000090B599B038
:104DD00004AFF860B9607A603B6001227B6F02FA31
:104DE00003F3FB633B6E0133BB63BB6F7B63042246
:104DF0007B6F02FA03F37A6B13443B6304227B6FED
:104E000002FA03F33A6B1344FB62FB6BBA6B02FBCF
:104E100003F39B00FA6A1344BB627C4B7B62002362
:104E20007B64BAE07A6C13465B0013449B001A461D
:104E30007B6A13441B683B62386AFDF728FEF86101
:104E4000F969386AFDF727FFB861BB69FA69396A01
:104E5000386EFDF761FF78617A6C13465B0013448E
:104E60009B001A467B6A13445A68FB6901933B6AAC
:104E7000009313467A6F396B786BFDF7C9FF0023F7
:104E80003B6410E03B6C9B00BA6E134418683B6CAB
:104E90009B00BA6AD418396AFDF7CDFD034623603A
:104EA0003B6C01333B643A6CFB6B9A42EAD3FB697F
:104EB00001933B6A00937B6F7A6B0121B86AFEF71E
:104EC00019F800233B643B68BB647B6C9B00FA6A67
:104ED0001344FB6419E07B690193BB690093FB6990
:104EE0003A6A396EB86CFEF722FA0246FB6C1A6019
:104EF0003B6C01333B647B6E9B00BA6C1344BB6418
:104F0000BB6B9B00FA6C1344FB643A6CFB6B9A42DC
:104F1000E1D37B6C9B00FA6AD018FB6901933B6A72
:104F200000937B6F7A6BB96BFDF7E4FF00233B6462
:104F30007B6C9B00FA6A1344FB641AE03B6C9B0099
:104F4000BA6A13441868FB6C1968FB693A6AFDF782
:104F500019FEFB693A6AB969FDF714FE0246FB6C5B
:104F60001A603B6C01333B64BB6B9B00FA6C1344CF
:104F7000FB643A6CFB6B9A42E0D37B6C9B00FA6A51
:104F8000D018FB6901933B6A00937B6F3A6BB96B56
:104F9000FEF72CF87B6C01337B647A6CBB6B9A4216
:104FA000FFF440AFBB6A0293012301937B6A009335
:104FB000FB6BBA6BB96BF86AFEF7A2FA00237B644D
:104FC000FB68FB64FB6ABB6416E03B6F0193FB6EFE
:104FD0000093BB6BBA6CB968F86CFFF752FD7B6C41
:104FE00001337B647B689B00FA6C1344FB64BB6BEE
:104FF0009B00BA6C1344BB647A6CFB6B9A42E4D39B
:1050000000BF00BF5437BD4690BD00BF48CD01086A
:1050100080B584B000AF786007F108030822194614
:10502000786803F068FFD7E9022310461946103765
:10503000BD4680BD000000002DE9B04F90B000AF2C
:10504000F860B960BB68C3F10A03012202FA03F3F6
:10505000FB620023BB630023FB6375E0F868FFF786
:10506000D7FFC7E90801D7E908014FF000024FF068
:105070000003CA0F00231346FB61D7E908239246B9
:1050800023F0004BC7E908AB36A1D1E90001D7E90D
:105090000823141A63EB01054FF000024FF00003E0
:1050A000EA0F002313467B6300237B61F868FFF758
:1050B000AFFFC7E90801D7E908233A6023F00043AE
:1050C0007B60D7E90023C7E9082301233B6328E07D
:1050D000234A3B6BDB001344D3E90023D7E90801E3
:1050E000B0EB020861EB03094FF000024FF0000340
:1050F0004FEAD9720023134683F00103BB617B6B37
:1051000083F00102BB6913405A423B6B1A407B6932
:1051100013437B617A6BBB6913437B633B6B013346
:105120003B633B6B1A2BD3D9FB695A427B695A40CC
:10513000FB6913447B6107F114031B68BA6B1344CA
:10514000BB63FB6B0133FB63FA6BFB6A9A4285D34B
:10515000BB6B18464037BD46BDE8B08FAFF300804B
:10516000C0ED010858ABF22DD837D11180B489B009
:1051700000AF7860396001223B6802FA03F33B61BB
:105180000023BB6100237B610023FB6113E07A688D
:10519000FB69134493F90030FB60FB6803FB03F3E6
:1051A0001A46BB691344BB617A69BB6913437B61CF
:1051B000FB690133FB61FA693B699A42E7D37B697A
:1051C000DB171A46BB69134318462437BD465DF802
:1051D000047B704780B487B000AF786039607B682B
:1051E0003B613B68FB60FA683B69D31A7B617B6972
:1051F00003F00703BB60BB68002B04D07A69BB686F
:10520000D31A08337B613A697B69134418461C370B
:10521000BD465DF8047B704780B487B000AF78600E
:1052200039607B683B613B68FB60FA683B69D31A75
:105230007B617B6903F00303BB60BB68002B04D078
:105240007A69BB68D31A04337B613A697B6913447A
:1052500018461C37BD465DF8047B7047F0B587B033
:1052600000AFF860B9607A6001227B6802FA03F34C
:105270003B6100237B6117E0BA687B69134493F9B3
:1052800000305BB2DA171C4615467B69DB00FA6812
:10529000D61820462946FDF7A2FA02460B46C6E973
:1052A00000237B6901337B617A693B699A42E3D3CE
:1052B00000BF00BF1C37BD46F0BD000090B5A9B0CF
:1052C00004AFF860B9607A603B600122BB6802FA03
:1052D00003F3BB67BB6F5B087B67944A7B6852F83C
:1052E00023303B677B680133904A52F82330FB66DA
:1052F0008F4BBB66FB687B667B6FFA6E02FB03F32A
:105300009B007A6E13443B667B6FFA6E02FB03F3DD
:105310009B003A6E1344FB65BB6F3A6F02FB03F3CD
:105320009B00FA6D1344BB65BB6F3A6F02FB03F33E
:105330009B00BA6D13447B65BB6F9B007A6D134471
:105340003B65BB6F9B003A6D1344FB64BB6F3A6FC8
:1053500002FB03F3DB001A46F968F86D0AF0A4F8C3
:105360000023C7F88C304EE1D7F88C2013465B0041
:1053700013449B001A46BB6E13441B68BB62B86A99
:10538000FDF785FB7862796AB86AFDF784FC3862BC
:10539000D7F88C2013465B0013449B001A46BB6E63
:1053A00013445A687B6A0193BB6A00931346BA6838
:1053B000396D786DFDF72CFD0023C7F88830D7F8DC
:1053C0008C309B00FA6D1344C7F8843014E0D7F892
:1053D00088309B00FA6C1344D7F8842012681A6056
:1053E000D7F888300133C7F888303B6F9B00D7F877
:1053F00084201344C7F88430D7F88820BB6F9A42C2
:10540000E5D33B68002B09D17B6A0193BB6A00930B
:10541000BB687A6D0121F86CFDF76CFD0023C7F8BD
:105420008830D7F88C309B007A6E1344C7F88430EC
:1054300029E0D7F88830DB00FA6C13441B687B61E5
:10544000D7F88830DB000433FA6C13441B683B61E7
:105450007B6ABA6A39697869FDF794FB7B6ABA6A34
:10546000396AFDF78FFB0246D7F884301A60D7F807
:1054700088300133C7F88830FB6E9B00D7F8842052
:105480001344C7F88430D7F888207B6F9A42D0D372
:105490003B68002B0DD0D7F88C309B00FA6DD018EC
:1054A0007B6A0193BB6A0093BB683A6D396FFDF765
:1054B0009DFD0023C7F88830D7F88C309B00BA6D6B
:1054C0001344C7F8843014E0D7F888309B00FA6C96
:1054D0001344D7F8842012681A60D7F88830013353
:1054E000C7F888303B6F9B00D7F884201344C7F877
:1054F0008430D7F88820BB6F9A42E5D33B68002BF5
:1055000009D17B6A0193BB6A0093BB687A6D012164
:10551000F86CFDF7EFFC0023C7F88830D7F88C3023
:105520009B003A6E1344C7F884302DE098EE0108D2
:1055300048CD0108D7F88830DB00FA6C13441B68AB
:10554000FB61D7F88830DB000433FA6C13441B6826
:10555000BB617B6ABA6AB969F869FDF713FB7B6ABC
:10556000BA6A396AFDF70EFB0246D7F884301A6032
:10557000D7F888300133C7F88830FB6E9B00D7F826
:1055800084201344C7F88430D7F888207B6F9A4270
:10559000D0D33B68002B0DD0D7F88C309B00BA6D70
:1055A000D0187B6A0193BB6A0093BB683A6D396F70
:1055B000FDF71CFDD7F8A030002B1FD1D7F88C3099
:1055C0009B007A6ED018BB685A1E7B6A0193BB6A37
:1055D000009313463A6DF96EFDF708FDD7F88C304D
:1055E0009B003A6ED018BB685A1E7B6A0193BB6A57
:1055F000009313463A6DF96EFDF7F8FCD7F88C303E
:105600000133C7F88C30D7F88C203B6F9A42FFF4F7
:10561000ABAE7B6D029301230193BB6E0093BB6F16
:105620003A6F396FF86DFDF76BFF7B6D02930123C5
:105630000193BB6E0093BB6F3A6F396FB86DFDF786
:105640005FFF3B6FC7F88C3023E1D7F88C201346FF
:105650005B0013449B001A46BB6E13441B68BB647B
:10566000B86CFDF714FA7864796CB86CFDF713FB2D
:1056700038643B6C7A6CB96C386FFDF74DFBF8639E
:10568000D7F88C2013465B0013449B001A46BB6E70
:1056900013445A687B6C0193BB6C00931346BA6841
:1056A000396D786DFDF7B4FB0023C7F88030FB6DD2
:1056B000FB671AE0D7F880309B00FA6CD418FB6BBC
:1056C00001933B6C00937B6CBA6C396FF86FFDF7FC
:1056D0002EFE03462360D7F880300133C7F88030B0
:1056E0003B6F9B00FA6F1344FB67D7F88020BB6FBA
:1056F0009A42DFD37B6C0193BB6C0093BB687A6DDD
:105700000121F86CFDF7F6FB0023C7F88030D7F8CD
:105710008C309B007A6E1344FB6726E0D7F880300C
:10572000DB00FA6C13441B683B63D7F88030DB0066
:105730000433FA6C13441B68FB627B6CBA6CF96A25
:10574000386BFDF71FFA7B6CBA6C396CFDF71AFAEF
:105750000246FB6F1A60D7F880300133C7F88030FB
:10576000FB6E9B00FA6F1344FB67D7F880207B6FBA
:105770009A42D3D30023C7F88030BB6DFB671AE091
:10578000D7F880309B00FA6CD418FB6B01933B6C0C
:1057900000937B6CBA6C396FF86FFDF7C8FD034658
:1057A0002360D7F880300133C7F880303B6F9B000F
:1057B000FA6F1344FB67D7F88020BB6F9A42DFD3A0
:1057C0007B6C0193BB6C0093BB687A6D0121F86C14
:1057D000FDF790FB0023C7F88030D7F88C309B0092
:1057E0003A6E1344FB6726E0D7F88030DB00FA6C92
:1057F00013441B68BB63D7F88030DB000433FA6CBA
:1058000013441B687B637B6CBA6C796BB86BFDF7D8
:10581000B9F97B6CBA6C396CFDF7B4F90246FB6FD1
:105820001A60D7F880300133C7F88030FB6E9B00D8
:10583000FA6F1344FB67D7F880207B6F9A42D3D36B
:10584000D7F8A030002B1FD1D7F88C309B007A6E90
:10585000D018BB685A1E7B6C0193BB6C0093134637
:105860003A6DF96EFDF7C2FBD7F88C309B003A6EAB
:10587000D018BB685A1E7B6C0193BB6C0093134617
:105880003A6DF96EFDF7B2FBD7F88C300133C7F8EB
:105890008C30D7F88C20FB6E9A42FFF4D6AE00BF56
:1058A00000BF9437BD4690BD90B593B002AFF8608D
:1058B000B9607A603B6001223B6802FA03F37B63C4
:1058C000FB683B637B6B9B003A6B1344FB62474B6B
:1058D000BB62BB6A1B687B620023FB6320E0BA6883
:1058E000FB6B134493F900301846FB6B9B003A6B3B
:1058F000D418796AFDF79FF8034623607A68FB6B3A
:10590000134493F900301846FB6B9B00FA6AD418D5
:10591000796AFDF790F803462360FB6B0133FB6364
:10592000FA6B7B6B9A42DAD33B6D002B36D17B6DE1
:10593000002B33D0BB6A1B683B62386AFDF7A7F8BF
:10594000F8617B6B9B00FA6A1344BB6104223B68DD
:1059500002FA03F3BA6913447B61BB6A5A68FB69B4
:1059600001933B6A009313463A687969B869FDF779
:105970004FFAFB6901933B6A00933B68BA690121C6
:10598000386BFDF7B7FAFB6901933B6A00933B68FC
:10599000BA690121F86AFDF7ADFA24E00023BB6380
:1059A0001DE03A68BB6BD11ABB6B002B14BF0123FF
:1059B0000023DBB21846BB6B01333A6D9A4202D822
:1059C0007B6D002B01D0012300E0002300930346F0
:1059D000BA6BF868FFF772FCBB6B0133BB63BA6B41
:1059E0003B6D9A42DDD34437BD4690BD48CD01089A
:1059F00080B590B004AFF860B9607A603B602E4A21
:105A0000FB6852F82330FB622C4BBB623B687B6225
:105A1000FB6A9B007A6A13443B62FB6A9B003A6A0A
:105A20001344FB61FB6A9B00FA691344BB61FB6A88
:105A30009B00BA6913447B6100230193FB680093C8
:105A4000FB687A68B968F869FFF72EFF7B690293F3
:105A500000230193BB6A00930223FA6AF96AF8698A
:105A6000FDF74EFD7B690193FB6A0093BB69FA6900
:105A7000796A386AFEF749F90346002B01D1002301
:105A800015E043F201033B613A69F96A786AFDF770
:105A9000C7FB0346002B07D13A69F96A386AFDF75C
:105AA000BFFB0346002B01D0002300E00123184672
:105AB0003037BD4680BD00BF98EE010848CD0108D3
:105AC00090B5D3B008AF07F59474A4F58E74206038
:105AD00007F59470A0F59070016007F59471A1F539
