:020000040800F2
:10000000000008205154000885540008A93F00084A
:10001000AF3F0008B53F0008BB3F000800000000EC
:1000200000000000000000000000000085540008EF
:10003000855400080000000085540008855400081D
:10004000855400088554000885540008855400082C
:10005000855400088554000885540008855400081C
:10006000855400088554000885540008855400080C
:1000700085540008855400088554000885540008FC
:10008000855400088554000885540008793F00080D
:100090007D3F0008855400086D3F00088554000826
:1000A00085540008855400088554000885540008CC
:1000B00085540008855400088554000885540008BC
:1000C00085540008855400088554000885540008AC
:1000D000855400088554000885540008855400089C
:1000E000855400088554000885540008855400088C
:1000F000855400088554000885540008855400087C
:10010000855400088554000885540008855400086B
:10011000855400088554000885540008855400085B
:10012000855400088554000885540008855400084B
:100130008554000885540008855400088D3F000848
:10014000913F000885540008813F0008855400084D
:10015000855400088554000885540008855400081B
:10016000855400088554000885540008855400080B
:1001700085540008855400088554000800000000DC
:1001800085540008855400088554000885540008EB
:1001900085540008855400088554000885540008DB
:1001A00085540008855400088554000885540008CB
:1001B00085540008855400088554000885540008BB
:1001C000855400088554000800000000855400088C
:1001D000855400088554000885540008855400089B
:1001E000A13F0008A53F000885540008953F00087E
:1001F000855400088554000810B5054C237833B9A0
:10020000044B13B10448AFF300800123237010BDE9
:10021000E00D0020000000008C50010808B5034BE1
:100220001BB103490348AFF3008008BD0000000084
:10023000E40D00208C500108A3F5803A704700BF00
:10024000174B002B08BF134B9D46FFF7F5FF00210E
:100250008B460F461348144A121A09F081FE0E4BC2
:10026000002B00D098470D4B002B00D09847002062
:10027000002104000D000D48002802D00C4804F0B5
:1002800045FA09F0F3FB2000290004F00BFD04F00F
:10029000AFFB00BF0000080000000000954C000804
:1002A00000000820E00D0020E01400200D470008A9
:1002B00000000000084B10B503F12001044603F1D3
:1002C0008002B0302360C4E92C1207F073F8204696
:1002D00006F070FC204610BD244301080A4B10B5FF
:1002E00003F12001044603F1800240F8B43C40F8D9
:1002F000041C043844F8B42907F05CF8204606F0E2
:1003000059FC204610BD00BF24430108094A10B51E
:1003100002F1200402F1800140F8B02C0460A0F149
:10032000B004416007F046F8204606F043FC204642
:1003300010BD00BF24430108B1B10144013830B4FD
:100340000A4D01F1FF3C0A4C2A6823681A44134401
:10035000190C81EA126100F8011F8445F6D10020D2
:100360002A60236030BC704700207047FC020020E8
:100370000003002095490020954BD1F8FC202DE981
:10038000F04142F08072934CADF5A74D924DC1F80B
:10039000FC20C3F8B04F0124586096B01A688F4E05
:1003A00022438F4F1A604FF07E5007F049FA2246E1
:1003B0003146384607F010F80134D5E900321268AA
:1003C00019041A4200F0E780EB681960042CEAD1A6
:1003D00044F2D805002440F61C220BA86D442146A7
:1003E0000AAB1C6009F0BCFD284641F2FC22214604
:1003F00040F8044B09F0B4FD3B210DF64820744C45
:10040000FFF79AFF29460AA801F014FF42F6A860F8
:100410003B230DF6482203A90095684402F0D0F86A
:100420000AAA03AB41F67840009242F6A8621B6824
:1004300002A96A44684402F0ADF96A4806F04CFC2F
:10044000684806F00AFC0AA942F6A8603B236568E2
:100450000DF648220091684441F2F31102F0D0F801
:10046000646807465F4806F033FC621B04465E4939
:1004700087EAE7755A4806F0AFFF22465B49A5EBCD
:10048000E7755748FF0F06F0A7FF002200235849E1
:10049000534806F0A1FF5749514806F09DFF092D2A
:1004A00040F28880632D62D9B5F57A7F76D342F227
:1004B0000F739D4275D9294601244F484F4B504E2A
:1004C000DFF84CC1DFF84CE105E0B2426CD962457F
:1004D00065D3724566D90A46A0FB018104349A426D
:1004E0004FEA5131F1D80DF110083919013C464657
:1004F00006F1080330462D22C8F8003007F0AEFAA6
:10050000D8F8000042F20F7EDFF80C8138446427EF
:1005100003193C4CA8FB0512AC46023B5209F445BA
:1005200007FB1251154604EB410214F811105278E2
:1005300059709A70EED8BCF57A7F24D230350570A8
:10054000049904AB264806F047FF304607F07EFAD0
:100550002D49234806F040FF2C4B1B68986808F093
:1005600033FD00200DF5A74D16B0BDE8F08104AEB7
:100570002D22B91C234C06F108033046336007F0E6
:100580006DFA3068384404EB450214F8153052789F
:1005900003704270D4E7AA68136017E7012402349D
:1005A000A1E7012403349EE70DF11008791C4646AB
:1005B00021449DE704AE2D22791C06F10803304644
:1005C000336007F04BFA30683844B7E700ED00E0DD
:1005D000001000E055CEACC5FC0D00203035010800
:1005E000C80E0020E80E00205835010874350108B7
:1005F00090350108AC3501085917B7D19F86010025
:100600003F420F00D0350108A8350108180400202A
:1006100080969800FFE0F5051F85EB510A4B10B559
:1006200003F12001044603F18002B0302360C4E9E5
:100630002C1206F0BFFE204606F0BCFA2046CC2164
:1006400007F0DEF9204610BD244301080D4A38B5F5
:1006500002F18001034602F12005A0F1B40440F844
:10066000B42C40F8045C43F80419184606F0A2FEC6
:10067000204606F09FFA2046CC2107F0C1F920461B
:1006800038BD00BF244301080B4A38B502F1800190
:1006900002F12005A0F1B00440F8B02CC0E90051EF
:1006A00006F088FE204606F085FA2046CC2107F0A9
:1006B000A7F9204638BD00BF2443010810B5124CED
:1006C0004FF4E13339223821204606F057F90F4A1A
:1006D0000F49204604F018F80E4800230E4C102154
:1006E0008361C0E90033C0E90233C0E9043306F096
:1006F0003CFB204606F001FB2046044A0749BDE8C2
:10070000104004F001B800BF180E0020F8020020CD
:10071000B5020008FC0D0020E80E00203B6C00082C
:1007200020FB00002DE9F04FDFF8601A01F1040111
:10073000DFF84C2ADFF84C3ADFF84C4AD1F804C015
:10074000D1F808E051F80CBBD0F80050D0F80061A7
:10075000D0F80072D0F8008387FB0BA90AFB02F7E0
:10076000C7FB03A9A5EB090705EB090588FB0BA946
:100770000AFB02F8C8FB03A9A6EB090806EB090669
:1007800086FB0CA90AFB02F6C6FB03A9A5EB09062A
:1007900005EB090588FB0EA90AFB02F8C8FB03A9B3
:1007A000A7EB090807EB0907C0F80061C0F8007261
:1007B000C0F8008340F8045B013CC5D1A0F580700F
:1007C00040F21004D1F804C0D1F808E051F80CBB95
:1007D000D0F80050D0F84060D0F88070D0F8C080D9
:1007E00087FB0BA90AFB02F7C7FB03A9A5EB0907C7
:1007F00005EB090588FB0BA90AFB02F8C8FB03A956
:10080000A6EB090806EB090686FB0CA90AFB02F613
:10081000C6FB03A9A5EB090605EB090588FB0EA994
:100820000AFB02F8C8FB03A9A7EB090807EB0907B5
:10083000C0F84060C0F88070C0F8C08040F8045B29
:10084000013CC5D100F1C00040F21004D1F804C051
:10085000D1F808E051F80CBBD0F80050D0F8406057
:10086000D0F88070D0F8C08087FB0BA90AFB02F794
:10087000C7FB03A9A5EB090705EB090588FB0BA935
:100880000AFB02F8C8FB03A9A6EB090806EB090658
:1008900086FB0CA90AFB02F6C6FB03A9A5EB090619
:1008A00005EB090588FB0EA90AFB02F8C8FB03A9A2
:1008B000A7EB090807EB0907C0F84060C0F8807093
:1008C000C0F8C08040F8045B013CC5D100F1C00015
:1008D00040F21004D1F804C0D1F808E051F80CBB84
:1008E000D0F80050D0F84060D0F88070D0F8C080C8
:1008F00087FB0BA90AFB02F7C7FB03A9A5EB0907B6
:1009000005EB090588FB0BA90AFB02F8C8FB03A944
:10091000A6EB090806EB090686FB0CA90AFB02F602
:10092000C6FB03A9A5EB090605EB090588FB0EA983
:100930000AFB02F8C8FB03A9A7EB090807EB0907A4
:10094000C0F84060C0F88070C0F8C08040F8045B18
:10095000013CC5D100F1C00040F21004D1F804C040
:10096000D1F808E051F80CBBD0F80050D0F8406046
:10097000D0F88070D0F8C08087FB0BA90AFB02F783
:10098000C7FB03A9A5EB090705EB090588FB0BA924
:100990000AFB02F8C8FB03A9A6EB090806EB090647
:1009A00086FB0CA90AFB02F6C6FB03A9A5EB090608
:1009B00005EB090588FB0EA90AFB02F8C8FB03A991
:1009C000A7EB090807EB0907C0F84060C0F8807082
:1009D000C0F8C08040F8045B013CC5D1A0F5507060
:1009E00040F21004D1F804C0D1F808E051F80CBB73
:1009F000D0F80050D0F81060D0F82070D0F83080D7
:100A000087FB0BA90AFB02F7C7FB03A9A5EB0907A4
:100A100005EB090588FB0BA90AFB02F8C8FB03A933
:100A2000A6EB090806EB090686FB0CA90AFB02F6F1
:100A3000C6FB03A9A5EB090605EB090588FB0EA972
:100A40000AFB02F8C8FB03A9A7EB090807EB090793
:100A5000C0F81060C0F82070C0F8308040F8045B27
:100A6000D0F80050D0F81060D0F82070D0F8308066
:100A700087FB0BA90AFB02F7C7FB03A9A5EB090734
:100A800005EB090588FB0BA90AFB02F8C8FB03A9C3
:100A9000A6EB090806EB090686FB0CA90AFB02F681
:100AA000C6FB03A9A5EB090605EB090588FB0EA902
:100AB0000AFB02F8C8FB03A9A7EB090807EB090723
:100AC000C0F81060C0F82070C0F8308040F8045BB7
:100AD000D0F80050D0F81060D0F82070D0F83080F6
:100AE00087FB0BA90AFB02F7C7FB03A9A5EB0907C4
:100AF00005EB090588FB0BA90AFB02F8C8FB03A953
:100B0000A6EB090806EB090686FB0CA90AFB02F610
:100B1000C6FB03A9A5EB090605EB090588FB0EA991
:100B20000AFB02F8C8FB03A9A7EB090807EB0907B2
:100B3000C0F81060C0F82070C0F8308040F8045B46
:100B4000D0F80050D0F81060D0F82070D0F8308085
:100B500087FB0BA90AFB02F7C7FB03A9A5EB090753
:100B600005EB090588FB0BA90AFB02F8C8FB03A9E2
:100B7000A6EB090806EB090686FB0CA90AFB02F6A0
:100B8000C6FB03A9A5EB090605EB090588FB0EA921
:100B90000AFB02F8C8FB03A9A7EB090807EB090742
:100BA000C0F81060C0F82070C0F8308040F8345BA6
:100BB000B4F101047FF416AFA0F580604FF040045B
:100BC000D1F804C0D1F808E051F80CBBD0F80050BF
:100BD000D0F80460D0F80870D0F80C8087FB0BA91F
:100BE0000AFB02F7C7FB03A9A5EB090705EB0905FB
:100BF00088FB0BA90AFB02F8C8FB03A9A6EB0908AE
:100C000006EB090686FB0CA90AFB02F6C6FB03A944
:100C1000A5EB090605EB090588FB0EA90AFB02F8FE
:100C2000C8FB03A9A7EB090807EB0907C0F8046094
:100C3000C0F80870C0F80C8040F8105B013CBFD1D0
:100C4000BDE8F08F2DE9F04FDFF83425DFF83435BB
:100C5000DFF83C15DFF8304551F804CC51F808ECCA
:100C600051F80CB9D0F80050D0F80460D0F80870F2
:100C7000D0F80C80A6EB050905EB060589FB0BA651
:100C80000AFB02F9C9FB03A6A8EB070907EB080753
:100C900089FB0CA80AFB02F9C9FB03A8A7EB05090D
:100CA00005EB070589FB0EA70AFB02F9C9FB03A7A1
:100CB000A8EB060906EB080689FB0EA80AFB02F959
:100CC000C9FB03A8C0F80460C0F80870C0F80C8025
:100CD00040F8105B013CBFD1A0F5806040F21004E9
:100CE00051F804CC51F808EC51F80CB9D0F8005088
:100CF000D0F81060D0F82070D0F83080A6EB05094D
:100D000005EB060589FB0BA60AFB02F9C9FB03A646
:100D1000A8EB070907EB080789FB0CA80AFB02F9F7
:100D2000C9FB03A8A7EB050905EB070589FB0EA77F
:100D30000AFB02F9C9FB03A7A8EB060906EB0806A4
:100D400089FB0EA80AFB02F9C9FB03A8C0F81060D2
:100D5000C0F82070C0F8308040F8045BD0F8005034
:100D6000D0F81060D0F82070D0F83080A6EB0509DC
:100D700005EB060589FB0BA60AFB02F9C9FB03A6D6
:100D8000A8EB070907EB080789FB0CA80AFB02F987
:100D9000C9FB03A8A7EB050905EB070589FB0EA70F
:100DA0000AFB02F9C9FB03A7A8EB060906EB080634
:100DB00089FB0EA80AFB02F9C9FB03A8C0F8106062
:100DC000C0F82070C0F8308040F8045BD0F80050C4
:100DD000D0F81060D0F82070D0F83080A6EB05096C
:100DE00005EB060589FB0BA60AFB02F9C9FB03A666
:100DF000A8EB070907EB080789FB0CA80AFB02F917
:100E0000C9FB03A8A7EB050905EB070589FB0EA79E
:100E10000AFB02F9C9FB03A7A8EB060906EB0806C3
:100E200089FB0EA80AFB02F9C9FB03A8C0F81060F1
:100E3000C0F82070C0F8308040F8045BD0F8005053
:100E4000D0F81060D0F82070D0F83080A6EB0509FB
:100E500005EB060589FB0BA60AFB02F9C9FB03A6F5
:100E6000A8EB070907EB080789FB0CA80AFB02F9A6
:100E7000C9FB03A8A7EB050905EB070589FB0EA72E
:100E80000AFB02F9C9FB03A7A8EB060906EB080653
:100E900089FB0EA80AFB02F9C9FB03A8C0F8106081
:100EA000C0F82070C0F8308040F8345BB4F1010421
:100EB0007FF416AFA0F5806040F2100451F804CC26
:100EC00051F808EC51F80CB9D0F80050D0F8406057
:100ED000D0F88070D0F8C080A6EB050905EB0605B8
:100EE00089FB0BA60AFB02F9C9FB03A6A8EB0709BD
:100EF00007EB080789FB0CA80AFB02F9C9FB03A84A
:100F0000A7EB050905EB070589FB0EA70AFB02F90C
:100F1000C9FB03A7A8EB060906EB080689FB0EA888
:100F20000AFB02F9C9FB03A8C0F84060C0F8807052
:100F3000C0F8C08040F8045B013CC5D100F1C0009E
:100F400040F2100451F804CC51F808EC51F80CB9F7
:100F5000D0F80050D0F84060D0F88070D0F8C08051
:100F6000A6EB050905EB060589FB0BA60AFB02F9B2
:100F7000C9FB03A6A8EB070907EB080789FB0CA828
:100F80000AFB02F9C9FB03A8A7EB050905EB070556
:100F900089FB0EA70AFB02F9C9FB03A7A8EB060908
:100FA00006EB080689FB0EA80AFB02F9C9FB03A899
:100FB000C0F84060C0F88070C0F8C08040F8045BA2
:100FC000013CC5D100F1C00040F2100451F804CC3E
:100FD00051F808EC51F80CB9D0F80050D0F8406046
:100FE000D0F88070D0F8C080A6EB050905EB0605A7
:100FF00089FB0BA60AFB02F9C9FB03A6A8EB0709AC
:1010000007EB080789FB0CA80AFB02F9C9FB03A838
:10101000A7EB050905EB070589FB0EA70AFB02F9FB
:10102000C9FB03A7A8EB060906EB080689FB0EA877
:101030000AFB02F9C9FB03A8C0F84060C0F8807041
:10104000C0F8C08040F8045B013CC5D100F1C0008D
:1010500040F2100451F804CC51F808EC51F80CB9E6
:10106000D0F80050D0F84060D0F88070D0F8C08040
:10107000A6EB050905EB060589FB0BA60AFB02F9A1
:10108000C9FB03A6A8EB070907EB080789FB0CA817
:101090000AFB02F9C9FB03A8A7EB050905EB070545
:1010A00089FB0EA70AFB02F9C9FB03A7A8EB0609F7
:1010B00006EB080689FB0EA80AFB02F9C9FB03A888
:1010C000C0F84060C0F88070C0F8C08040F8045B91
:1010D000013CC5D1A0F5507040F24004D1F800B0F9
:1010E00051F804CC51F80CECDFF89010D0F8005017
:1010F000D0F80061D0F80072D0F80083A6EB0509A3
:1011000005EB060589FB0BA60AFB02F9C9FB03A642
:10111000A8EB070907EB080789FB0CA80AFB02F9F3
:10112000C9FB03A8A7EB050905EB070589FB0EA77B
:101130000AFB02F9C9FB03A7A8EB060906EB0806A0
:1011400089FB0EA80AFB02F9C9FB03A885FB01A5D0
:101150000AFB02F9C9FB03A586FB01A60AFB02F9FB
:10116000C9FB03A6C0F80061C0F80072C0F8008394
:1011700040F8045B013CB9D1BDE8F08FFAA3000050
:10118000FFDF7FFC01E07F00400000009C3601088B
:10119000983A01084B1E00F1FF3C1F3170B513F85F
:1011A00001EF8B420CF801EFF9D100F12004154654
:1011B00000F52266204604F5A074294605F58065F1
:1011C00000F036FCB442F5D170BD00BF70B50138F7
:1011D000531E02F11F0E13F801CF734500F801CF23
:1011E000F9D10D4602F1200402F52266214604F5EC
:1011F000A074284605F5806500F04CFCB442F5D19A
:1012000070BD00BFF8B501F1FF3C01F11F050446B8
:10121000411E1CF8010FAC4501F8010FF9D1591E10
:1012200004F11F0C03F11F0011F8013F81420CF87B
:10123000013FF9D1531E04F13F0102F11F0013F8E1
:10124000012F834201F8012FF9D104F16005079EB7
:1012500004F5407728466035314606F5806600F093
:101260003DFBBD42F6D1089F04F5C06628466035B7
:10127000394607F5806700F031FBAE42F6D13546BE
:1012800004F59854069E284605F5D075314606F5B6
:10129000806600F031FCAC42F5D1F8BD2DE9F0419B
:1012A000089C1D46013804F1FF3C04F11F061CF8A0
:1012B000013FB44500F8013FF9D1013A04F13F0084
:1012C0001CF8013F844502F8013FF9D14A1E04F1A0
:1012D0005F011CF8013F8C4502F8013FF9D1069FE0
:1012E00004F1600604F5407831466036384607F56B
:1012F000806700F03FFB4645F6D1DDF81C8004F521
:10130000C06731466036404608F5806800F032FB21
:10131000B742F6D104F59854394607F5D0772846F8
:1013200005F5806500F04AFCBC42F5D1BDE8F081CE
:101330002DE9F0414C1E01F11F0E06461D46411ECF
:1013400014F801CF744501F801CFF9D106F1200757
:10135000904606F58D54384607F52077414608F546
:10136000806800F0CBFCA742F5D153220021204633
:1013700041F2F21708F0F4FD41F2EA1C043D374453
:10138000B44400202A46002352F8041F09B1235414
:1013900001300133B3F5807FF6D10CF8010FBC4565
:1013A00005F58065EED1BDE8F08100BF2DE9F84F6D
:1013B000984601381646013B08F11F0413F8012F27
:1013C000A34200F8012FF9D10D4608F1200408F5D9
:1013D0008D59214604F52074284605F5806500F0F6
:1013E000B5FC4C45F5D141F2EA1B00240127C3446A
:1013F000A2465D4600214FF4806206EB8A2008F089
:10140000AFFD15F8013FA34219462FD34B2B2DD822
:10141000A34217D904F58D5219F8041023464FEA58
:101420000A20424407E0A342517803D992F800C051
:101430008C451BD201320144013346F821702978D2
:101440009942F0D80AF1010ABAF1080F01D00C460E
:10145000D0E74A290DD841F29F130B44984401E08C
:10146000D84504D018F8010F0028F9D00120BDE8B4
:10147000F88F0020FBE700BF2DE9F04F4DF6FF731A
:10148000CFF67F434EF20104C0F27F0440F2550CC8
:10149000D1F80460D1F8087051F80C5BD2F80490D0
:1014A000D2F808A052F80C8B85FB085E05FB03F808
:1014B000C8FB045E40F804EB86FB096E06FB03F9EB
:1014C000C9FB046E40F804EB87FB0A7E07FB03FAB6
:1014D000CAFB047E40F804EBBCF1010C7FF4D8AFEA
:1014E000D1F80050D2F8008085FB085E05FB03F8B8
:1014F000C8FB045EC0F800E0BDE8F08F2DE9F04FB6
:101500004DF6FF73CFF67F434EF20104C0F27F0425
:1015100040F2550CD1F80460D1F8087051F80C5B1A
:10152000D2F80490D2F808A052F80C8B85FB085E24
:1015300005FB03F8C8FB045E86FB096506FB03F99F
:10154000C9FB046587FB0A7607FB03FACAFB04762E
:10155000D0F80080D0F80490D0F808A00EEB080E68
:1015600040F80CEB05EB090540F8085C06EB0A06B1
:1015700040F8046CBCF1010C7FF4CCAFD1F8005002
:10158000D2F80080D0F8006085FB085E05FB03F808
:10159000C8FB045E0EEB060EC0F800E0BDE8F08F5D
:1015A0002DE9F0430024551EAE4615F8017F07F0E3
:1015B0000F093F090EF1020E09EB890CB9F10F0F6B
:1015C00007EB8703C9F1020809EBCC0CC7F102064F
:1015D00007EBC303AEEB020E0CEB8C0C03EB8303A7
:1015E00007D04FEA9C2C0CEB8C0CE04440F8248094
:1015F00001348C424FEA932304F101082CBF4FF0D1
:10160000000C4FF0010C0E2F03EB83030CD8334476
:10161000BCF1000F08D0414540F82430444694BF47
:101620004FF0000C4FF0010CBEF1870F02D8BCF157
:10163000000FB9D12046BDE8F08300BF01F024B906
:1016400001F082B900B50438043AA1F1040C01F5A7
:101650007F7E5CF8043F52F8041FF4450B4440F8C9
:10166000043FF6D15DF804FB00B50438043AA1F15B
:10167000040C01F57F7E5CF8043F52F8041FF4452A
:10168000A3EB010340F8043FF5D15DF804FB00BF74
:10169000031F00F57F7153F8042F52038B421A6029
:1016A000F9D17047FFF73EB8FFF7CCBAFFF7E4BEB9
:1016B000FFF724BFF8B5061F0C46151F02F57F770C
:1016C00055F8041F204600F04FFD0434BD4246F893
:1016D000040FF5D1F8BD00BFF8B5061F0C46151F65
:1016E00002F57F7755F8041F204600F049FD0434C9
:1016F000BD4246F8040FF5D1F8BD00BF2DE9F04119
:10170000061F151F0C1F01F57F78002754F8040FE2
:1017100055F8041F00F052FD4445074446F8040FF5
:10172000F4D13846BDE8F081F8B5061F151F0C1F2F
:1017300001F57F7754F8040F55F8041F00F056FDAB
:10174000BC4246F8040FF5D1F8BD00BF0A4B9942E0
:101750000EDCA0F1040C00F57F7001E0844509D097
:101760005CF8043FDA1702EA43029B1A9942F5DC5F
:10177000012070470020704700FC0F0030B5ADF22B
:10178000244D0546684601F04BF86A464FF4527105
:1017900035A801F0FDF94FF4527335AA4FF480716A
:1017A000284601F019F9FF2810D804466A46A821F6
:1017B00035A801F0EDF9C4F5807105EB8400A8238C
:1017C00035AA01F009F90444FF2CEFD90DF2244D9C
:1017D00030BD00BF30B5D7B0054622A801F03AF8B9
:1017E000882168460DEB010201F00AFA6A464FF4BF
:1017F00080712846FFF7D4FEFF2810D804468821C0
:1018000068460DEB010201F0FBF9C4F5807105EBB0
:1018100084006A46FFF7C4FE0444FF2CEFD957B09A
:1018200030BD00BFF0B5D9B0074624A8019101F042
:10183000B3F92022019924A801F0BAF924A801F0F3
:10184000BDF924AA882102A801F0DAF900230DF1DC
:1018500007041D461E4614F8010FA3F12002C3F130
:10186000200100FA03FC00FA02F220FA01F1083329
:101870004CEA05050A43402B46EA0206EBD14FF439
:10188000806200213846C42408F06AFB0823872BB5
:1018900024AA4FF0880102A806D901F0B1F99DF8F9
:1018A00008200123A24204D902AAD25C0133A24239
:1018B000EDD805F0010157F822006D0847F8240023
:1018C0004900013445EAC675C1F101017608B4F555
:1018D000807F47F82210DAD159B0F0BD2DE9F043EE
:1018E00001F5806483B00B690330CA69C3F1020358
:1018F0008D6801925FFA83FECA68019BC5F10205FB
:101900008E69C2F102094F68C3F10202D1F814C016
:10191000EDB24FEA0E13C6F102065FFA89F9C7F17C
:101920000207D2B251F8208BCCF1020EF6B2FFB210
:10193000C8F102084FEA851C8C4243EA49034FEA8A
:1019400042125FFA8EFE4CEAC70C43EA950342EA64
:1019500086024CEA080C43EACE1342EA5E0200F823
:1019600003CC00F8023C00F8012CBCD103B0BDE868
:10197000F08300BF00F5806C2DE9F0410D78203038
:10198000033105F00705604540F8205CC5F102050C
:1019900011F8034CC4F3C20440F81C4CC4F1020417
:1019A00011F8023C11F8032C4FEA830343EA921327
:1019B00003F0070340F8183CC3F1020211F802ECEF
:1019C000CEF3420340F8143CC3F1020E11F8027C3E
:1019D000C7F3021740F8107CC7F1020711F8013C69
:1019E00011F8026C4FEA430343EAD61303F00703EE
:1019F00040F80C3CC3F1020311F8016CC6F38206F7
:101A000040F8086CC6F1020611F8018C40F8205C21
:101A10004FEA581540F814ECC5F1020540E90742B9
:101A200040E9047340E90265A8D1BDE8F08100BF38
:101A300001F5806210B40B681031053000F8053CE8
:101A4000914251F80C3C51F8104C4FEA830343EAA1
:101A5000242300F8043C51F8083C51F80C4C4FEAA0
:101A6000031343EAA41300F8033C51F8043C51F873
:101A7000084C4FEA831343EA241300F8023C51F860
:101A8000043C4FEAA30300F8013CD4D15DF8044BB9
:101A9000704700BF01F5A07291F801C010300B78BB
:101AA000053143EA0C238A42C3F3090340F8103C92
:101AB00011F8033C11F804CC4FEA831343EA9C036A
:101AC000C3F3090340F80C3C11F8023C11F803CCB5
:101AD0004FEA031343EA1C13C3F3090340F8083C1D
:101AE00011F8013C11F802CC4FEA830343EA9C133E
:101AF00040F8043CD0D170472DE9F04F00F5D07C80
:101B000083B04D680D300F68C5F58055C7F5805717
:101B10004FEAD50A4FEA4519D1E90662D1E9043402
:101B2000019249EA1729CA68C3F58053C6F5805661
:101B3000C4F58054C2F5805E8A6800F80BAC203191
:101B4000C2F5805800F80D7C019A1F014FEA880BFE
:101B500000F80C9C4FEACE1AC2F580524BEAD5250C
:101B600047EA5E274FEA5E0B00F80A5C4AEA981ED5
:101B700000F8077C650000F808BC00F809EC4FEAA3
:101B800086194FEAC20E45EA13354FEA96081B093B
:101B900000F8055C520900F8038C49EAD41400F8F7
:101BA000063C4EEA962E00F8012C00F8044C00F892
:101BB00002EC8445A5D103B0BDE8F08F2DE9F043D8
:101BC00001F5D07E0B7820300D3140F8203C11F823
:101BD0000CCC43EA0C23C3F30C0340F8203CC3F5C0
:101BE000805C11F80C5C6D0940F81C5C11F80B3C32
:101BF00045EAC30540F81C5C11F80A3C45EAC325D8
:101C0000C5F30C0540F81C5CC5F5805511F80A7C3D
:101C1000BF0840F8187C11F8093C47EA8317C7F35E
:101C20000C0740F8187CC7F5805711F8094CE409F7
:101C300040F8144C11F8083C44EA430440F8144CB2
:101C400011F8073C44EA4324C4F30C0440F8144C54
:101C5000C4F5805411F8072C120940F8102C11F823
:101C6000063C42EA031240F8102C11F8053C42EA07
:101C70000332C2F30C0240F8102CC2F5805211F866
:101C8000056C760840F80C6C11F8043C46EAC31663
:101C9000C6F30C0640F80C6CC6F5805611F8043CEF
:101CA0009B0940F8083C11F8038C43EA880340F88C
:101CB000083C11F8028C714543EA8823C3F30C03F6
:101CC00040F8083CC3F5805311F8028C4FEAD8085D
:101CD00040F8048C11F8019C40F8102C48EA49188F
:101CE000C8F5805240E908C540E9067440E903633D
:101CF00040F8042C7FF466AFBDE8F08370B54FF078
:101D0000000C0E1D56F83C30053051F83C200CF10B
:101D1000010CC3F50023C2F50022BCF1800F4FEA8D
:101D2000031E4FEA131400F8052C4FEA12254FEA60
:101D3000133300F8024C4EEA124E00F8045C00F82F
:101D4000013C00F803ECDDD170BD00BF002300F1C1
:101D5000040C00B50A78053140F8332011F804EC82
:101D600042EA0E2240F8332011F803EC42EA0E4218
:101D7000C2F3130240F8332011F8032C12094CF877
:101D8000332011F802EC42EA0E124CF8332011F81D
:101D900001EC42EA0E324CF8332050F83320C2F303
:101DA0001302C2F5002240F833205CF83320C2F55C
:101DB00000224CF833200133802BCBD15DF804FB9B
:101DC00010B5ADF55E7D0446684600F043FD6A46F9
:101DD00034A84FF42A7100F013FF34A92046FFF70E
:101DE000B5FF0DF55E7D10BD0023013801F1040C37
:101DF00010B45CF8334051F83320013342EA041246
:101E0000802B00F8012FF4D15DF8044B704700BF20
:101E10002DE9F0414FF000080F4600F5E056A6F519
:101E2000E0554446284605F580652246394601348A
:101E3000FFF7A4FCAE42A4B2F4D108F5807806F511
:101E4000E0561FFA88F8B8F5006FE8D1BDE8F081D8
:101E50002DE9F0479146074601F5E05601F57C482B
:101E600002F5806A4A46A6F5E0513846A6F5C05408
:101E70005546FFF71BFC214604F580642A46384688
:101E8000FFF716FCB44205F58065F4D104F5E05681
:101E900007F580674645E5D1BDE8F087F8B505460A
:101EA0000E46144600F5E057284605F580652246A3
:101EB00031460134FFF78EFCBD42A4B2F4D1F8BD27
:101EC000C2EBC202F8B505460E4694B200F5E057E3
:101ED000284605F58065224631460134FFF770FF3C
:101EE000BD42A4B2F4D1F8BD38B5044600F5E055C2
:101EF000204604F58064FFF7A1FBAC42F8D138BD61
:101F0000F8B5002407460E4615462A193119381926
:101F100004F58064FFF796FBB4F5E05FF5D1F8BDFA
:101F200038B5044600F5E055204604F58064FFF717
:101F3000B9FBAC42F8D138BD38B5044600F5E055E0
:101F4000204604F58064FFF7AFFBAC42F8D138BD02
:101F5000F8B504460E46154600F5E057204604F550
:101F600080642A463146FFF7A1FBBC4205F5806537
:101F7000F4D1F8BD70B504460D4600F5E056204694
:101F8000294604F58064FFF7E1FB10B9B442F6D1AD
:101F900070BD012070BD00BFF8B505460E46144661
:101FA00000F50057284605F5806522463146013484
:101FB000FFF710FCBD42A4B2F4D1F8BD38B5044619
:101FC00000F50055204604F58064FFF737FBAC426E
:101FD000F8D138BD38B5044600F50055204604F563
:101FE0008064FFF72DFBAC42F8D138BDF8B5002472
:101FF00007460E4615462A193119381904F580642A
:10200000FFF720FBB4F5005FF5D1F8BDF8B500246B
:1020100007460E4615462A193119381904F5806409
:10202000FFF722FBB4F5005FF5D1F8BD38B50446E3
:1020300000F50055204604F58064FFF729FBAC420B
:10204000F8D138BD38B5044600F50055204604F5F2
:102050008064FFF727FBAC42F8D138BD38B50446A1
:1020600000F50055204604F58064FFF71DFBAC42E7
:10207000F8D138BDF8B504460E46154600F50057B0
:10208000204604F580642A463146FFF70FFBBC4228
:1020900005F58065F4D1F8BD70B504460D4600F530
:1020A00000562046294604F58064FFF74FFB10B91F
:1020B000B442F6D170BD012070BD00BFF8B5002458
:1020C00007460E4615462A193119381904F5806459
:1020D000FFF7F0FAB4F5005FF5D1F8BDF8B50024CC
:1020E00007460E4615462A193119381904F5806439
:1020F000FFF7F2FAB4F5005FF5D1F8BD2DE9F04134
:10210000002480460F46164625463219391908EB39
:10211000040004F58064FFF7F1FA0544B4F5005FAC
:10212000F3D12846BDE8F081F8B5002407460E46F5
:1021300015462A193119381904F58064FFF7F4FAA5
:10214000B4F5005FF5D1F8BD70B504460D4600F555
:10215000806620468034294605F58065FFF744FEF9
:10216000B442F6D170BD00BF0246044B01F6FF70C9
:1021700003404013C91A1160704700BF00E0FFFF21
:10218000844601F17F000B4AC0110B4B00EB80200D
:1021900000F50010C0F3835000B5A0EB802E01EBDA
:1021A0004E21521A03EAE273C91ACCF800105DF806
:1021B00004FB00BF00F03F0001E07F00084B094A2C
:1021C000034493420AD8084B0029A0EB0300B0FA5D
:1021D00080F04FEA501008BF002070470120704780
:1021E00000FF030000FE07000001FCFF00F17F0379
:1021F0000246DB1103EB832303F50013C3F3835083
:1022000091B1A0EB802C0949094B02EB4C22891AB1
:1022100003EAE173D21A002A03DD013000F00F0057
:102220007047013800F00F00704700BF00F03F001A
:1022300001E07F002DE9F041ADF5BC3D04460E46BE
:102240002021ACB043F6B0070CA82CADFEF774F813
:102250000CAA2023802110460DF1500800F0D4FC78
:102260000CAB49F6B0006F4419466844FFF7D0FD47
:10227000414628460022FFF711FE41463846072214
:10228000FFF78AFE41F6B04029464FF4E052684419
:1022900047F6B00807F04EFD41F6B040E844684408
:1022A000FFF73EFE41F6B04249F6B00145F6B000F8
:1022B0006A4469446844FFF7CBFD45F6B0006844C2
:1022C000FFF77CFE45F6B0006844FFF7C7FE45F611
:1022D000B0013A4669440846FFF788FE45F6B0006B
:1022E0006844FFF777FE45F6B00241466A4410465F
:1022F000FFF7E4FE45F6B0020CA920466A44FEF75B
:1023000049FF224604A84FF42263202100F07CFC00
:10231000304604AA24AB0CA902970195CDF80080A1
:10232000FEF770FF00200DF5BC3D2CB0BDE8F0813C
:102330002DE9F04FADF5EC3D9D4C1E4647F6C81912
:10234000F3B01546DFF86CA23AAB6C440DF5947807
:10235000E94424680DF5B967049103F1200145F6BD
:10236000C8134246029404466B443AA8CDF8049040
:1023700000970591FEF792FF06A8DFF83CB200F047
:102380000BFC0599202206A800F012FC29463246D3
:1023900006A800F00DFC06A800F010FC06AA4021DB
:1023A00052A800F02DFC42466023402162A800257F
:1023B00000F02AFC4FF6C8103AA9DFF80082684402
:1023C000FFF726FD3846FFF7ABFD4846FFF73AFE1C
:1023D00045F6C8106844FFF735FE00E0013542F2CB
:1023E000C810AAB262A96844FFF76AFD42F2C81198
:1023F00043F6C8504FF4E0526944684407F09AFC31
:1024000043F6C8506844FFF78BFD43F6C8524FF6B9
:10241000C81149F6C8106A4469446844FFF718FDBA
:1024200049F6C8106844FFF7C9FD49F6C81068446A
:10243000FFF714FE49F6C8106844FFF7CBFD49F6D4
:10244000C8124BF6C8116A4469441046FFF746FEAD
:1024500049F6C81120466944FFF776FE06A800F049
:102460009BFB402252A906A800F0A2FB21464FF494
:10247000806206A800F09CFB06A800F09FFB06AA5D
:102480002021204600F0BCFB214672A8FFF7CAF9C4
:1024900072A8FFF707F943F6C8503A4672A9684494
:1024A000FFF756FD43F6C8506844FFF745FD43F675
:1024B000C85142F2C81269446A440846FFF720FD39
:1024C00043F6C8506844FFF70FFD43F6C850414635
:1024D0006844FFF74FFD002880D14DF6C8104A46EA
:1024E00072A96844FFF7C6FD4DF6C8106844FFF7AF
:1024F000B5FD4BF6C8114DF6C81269446A4408464A
:10250000FFF784FD4BF6C8106844FFF757FD4BF604
:10251000C81051466844FFF7BFFD00287FF45EAF46
:1025200045F6C8124DF6C81072A96A446844FFF710
:10253000A1FD4DF6C8106844FFF790FD4DF6C81098
:102540006844FFF73BFD4DF6C81059466844FFF755
:10255000A3FD064600287FF441AF4BF6C8114DF6A7
:10256000C81269446A440846FFF740FD49F6C8129C
:102570004BF6C8114DF6C8106A4469446844FFF729
:10258000BDFD4B283FF62AAF4DF6C81343F6C8529F
:10259000204621466B446A44FEF7CAFE41F2F3131B
:1025A0003046049A13600DF5EC3D73B0BDE8F08F32
:1025B000F0D9010088FE030000FF030088FF070038
:1025C00070B50E4682B01D465BB141F2F31E02EBC0
:1025D000030C9E4486441CF8014D94450EF8014DB1
:1025E000F9D1069941F2F3122B460091024431468B
:1025F000FFF79EFE336800202B44336002B070BDAD
:10260000F0B5ADF5B23D04461D4641F2F310DDB024
:102610005E4B81426B441E6840F0B18042F27051C3
:102620006846174632466944FEF7D0FD46F27052BE
:1026300023460DF517616A4408A8FEF7B7FE002887
:1026400040F09D8052490DF51760FFF793FC04465A
:10265000002840F094804FF422633246202118A8CD
:1026600000F0D2FA28A800F097FA202218A928A88A
:1026700000F09EFA2A46394628A800F099FA28A8C0
:1026800000F09CFA28AA402118A800F0B9FA08A97D
:102690000DF5AE60FFF7C6F848F270506946684421
:1026A000FFF7B6FB0DF51760FFF73AFC48F27051E3
:1026B00044F270500DF5176269446844FFF7C8FB97
:1026C0000DF5AE60FEF7EEFF42F270506844FFF782
:1026D000ADFC42F270506844FFF7B4FC42F2705215
:1026E0000DF5AE616A441046FFF7C4FC44F2705128
:1026F00042F2705269446A440846FFF787FC44F28C
:1027000070506844FFF75AFC44F270506844FFF779
:10271000A5FC44F270506844FFF75CFC44F2705131
:1027200046F2705269446A440846FFF7FDFC44F2E1
:1027300070515CA86944FFF707FD28A800F02CFA47
:1027400018A9402228A800F033FA5CA94FF480624F
:1027500028A800F02DFA28A800F030FA28AA202195
:1027600010A800F04DFA10AA08AB964601E0734598
:1027700007D013F801CB12F8011B8C45F7D04FF0AE
:10278000FF3420460DF5B23D5DB0F0BD8865010017
:1027900088FF07002DE9F04141F2F21482B01E4695
:1027A0008046A3420D4611D84FF0FF330B6046B16F
:1027B000002E4FF00001404614BF3246012207F0C0
:1027C000CFFB4FF0FF3002B0BDE8F081089B174609
:1027D00010460093104B33440B6041F2F3110A444E
:1027E000FFF70EFFA0B92B68002BECD007EB040C11
:1027F00008F1FF32094C63461CF8011F234402F81C
:10280000011F2968DB1B9942F5D802B0BDE8F081B1
:102810004FF0FF332B60CBE70DEEFFFF0FEEFFFF16
:1028200010B5130A84B004468DF80D3001918DF86F
:102830000C2000F079F901992046202200F080F95F
:10284000022203A9204600F07BF9204600F07EF921
:1028500004B010BD10B5130A84B004468DF80D30D5
:1028600001918DF80C2000F097F901992046402243
:1028700000F09EF9022203A9204600F099F92046B3
:1028800000F09CF904B010BD2DE9F0074EF2010CE8
:10289000C0F27F0C40F2200AD0F80010D0F80420DB
:1028A000D0F80830D0F80C40D0F81050D0F81460B0
:1028B000D0F81870D0F81C8001F580095FEAE9595A
:1028C00009FB1C1102F580095FEAE95909FB1C228A
:1028D00003F580095FEAE95909FB1C3304F5800917
:1028E0005FEAE95909FB1C4405F580095FEAE959EB
:1028F00009FB1C5506F580095FEAE95909FB1C66CE
:1029000007F580095FEAE95909FB1C7708F580099A
:102910005FEAE95909FB1C88C0F80420C0F80830B8
:10292000C0F80C40C0F81050C0F81460C0F818701F
:10293000C0F81C8040F8201BBAF1010A7FF4ACAF4C
:10294000BDE8F007704700BF2DE9F0074EF2010C1B
:10295000C0F27F0C40F2200AD0F80010D0F804201A
:10296000D0F80830D0F80C40D0F81050D0F81460EF
:10297000D0F81870D0F81C800CEAE17949440CEAD0
:10298000E2794A440CEAE3794B440CEAE4794C449A
:102990000CEAE5794D440CEAE6794E440CEAE77915
:1029A0004F440CEAE879C844C0F80420C0F8083065
:1029B000C0F80C40C0F81050C0F81460C0F818708F
:1029C000C0F81C8040F8201BBAF1010A7FF4C4AFA4
:1029D000BDE8F007704700BF2DE970004DF8041DF9
:1029E0004EF2000CC0F27F0C00EB810602EB0303F9
:1029F000A3F10203B3EB020F40F30A8052F8035B2A
:102A0000C5F316056545D8BF40F8045BB042F1D167
:102A10005DF8045BA6EB0000A5EB9000BDE870003C
:102A2000704700BF2DE9F8431D4617460E46044681
:102A3000D0E93223A91843F10003B14273F1000336
:102A40001CD34FF000084FF000093946B31A204656
:102A500000F070F9D4F8C83020469A1BF31AC4E984
:102A6000328915441F4400F099F9D4E93223A9189A
:102A700043F10003B14273F10003E6D22B4639461D
:102A8000204600F057F9D4E932325B1942F10002D6
:102A9000C4E93232BDE8F8832DE9F0470E464FF025
:102AA0000009984615460146D2E9324AA64279EB1A
:102AB0000A030ED23346A8EB0402284600F012F9AE
:102AC000D5E932329E1B62F10002C5E93262BDE8EF
:102AD000F0872346A8EB04020719284600F002F904
:102AE000D5F8C8301B1BC5F8C830D5F8CC3063EB1F
:102AF0000A03361BC5F8CC30E9D0B0454446284619
:102B000028BF344600F04AF93946002223462846B9
:102B100000F0E8F8A8EB0403361B2744C5E9323976
:102B2000EBD1BDE8F08700BFC822002110B50446F4
:102B300007F016FA00220023C4E9322310BD00BFBB
:102B40008C461346A8216246FFF76CBF10B5A82338
:102B5000B2B0044600211A46684607F001FAD4F8DC
:102B6000C81032AA1F20A8230A44694602F8C80CDC
:102B700000229DF8A70060F07F008DF8A700204696
:102B800000F0D8F800220023C4E9322332B010BD8F
:102B9000A823FFF781BF00BFC822002110B504465B
:102BA00007F0DEF900220023C4E9322310BD00BF84
:102BB0008C46134688216246FFF734BF10B5882340
:102BC000B2B0044600211A46684607F0C9F9D4F8A5
:102BD000C81032AA1F2088230A44694602F8C80C8C
:102BE00000229DF8870060F07F008DF88700204666
:102BF00000F0A0F800220023C4E9322332B010BD57
:102C00008823FFF749BF00BF2DE9F041344DE4B000
:102C10001C460E46A5FB0138074615460021C82272
:102C2000684607F09DF9872C4FEAD8180CD9294639
:102C3000882300226846883C00F07CF86846883586
:102C400000F0ACF8872CF2D88822002132A807F0D7
:102C500087F924B12946224632A807F06BF864AB05
:102C6000002232A968461C441F2304F8C83C9DF882
:102C70004F3163F07F038DF84F31882300F05AF80D
:102C8000872E0DD945463C46684600F087F88823D4
:102C90002146002268461C4400F024F8013DF3D18F
:102CA0000F4CA4FB0634E40904EB0414B6EBC40493
:102CB00002D164B0BDE8F081684608EB081800F066
:102CC0006DF8684632A98823002200F00BF82246EE
:102CD00032A907EBC80007F02DF864B0BDE8F08119
:102CE000F1F0F0F023B301F1FF3C521A70B50CEB98
:102CF0000305541C04EB0C0222F0070E02F007033C
:102D0000D1088644DA0050F83130DEF80460C2F1B0
:102D1000200EA2F12001D34006FA0EFE26FA01F1A0
:102D200043EA0E030B430CF8013F6545E2D170BD49
:102D3000704700BF83B3521A2DE9F04301F1FF3E03
:102D400002F101090EEB030609EB0E021EF8018FDA
:102D500002F0070322F0070CD20876454FEAC303BE
:102D6000844450F83250A3F12001C3F12007DCF86D
:102D7000044008FA03F308FA01F128FA07F783EA96
:102D8000050341EA070140F8323081EA0401CCF83A
:102D90000410D9D1BDE8F083704700BF2DE9F04F92
:102DA0000268C3B00346049242684190059282686B
:102DB0000692C268002007923B4A40903D921A69F1
:102DC00008925A6909929A690A92DA690B921A6A08
:102DD0000C925A6A0D929A6A0E92DA6A0F921A6BE4
:102DE00010925A6B30929A6B0192DA6B11921A6CB4
:102DF00012925A6C13929A6C1492DA6C15921A6DA4
:102E000016925A6D17929A6D1892DA6D02921A6E96
:102E100019925A6E1A929A6E1B92DA6E1C921A6F5F
:102E20001D925A6F1E929A6F1F92DA6F2092D3F8FA
:102E30008020219248F282023F921A46D3F88430D1
:102E4000D2F8B4400393D2F88830A1462293D2F846
:102E50008C302393D2F890302493D2F89430259379
:102E6000D2F898302693D2F89C30D2E92B51279390
:102E7000D2F8A0302C462A912893D2F8B810D2F874
:102E8000A4302B912993D2F8A830D2F8BC109A46DE
:102E90003E902C91D2F8C010D2F8C4202D912E92E1
:102EA00001223C920CE000BFA03A01081A691033DD
:102EB0003C925A683E929A683F92DA683D934092FB
:102EC000049B0E9A169983EA02061F9D289F4E4086
:102ED0000F991A986E40179D86EA0703209F2F933B
:102EE000059B83EA01022999099B6A40089D7A4063
:102EF000019F4A4085EA07081999229D88EA01083E
:102F000011992A9F88EA050883EA01050A9988EA47
:102F100007084540239F12987D401B9F48402499F5
:102F200085EA090578402B9F4840139947400B9844
:102F300080EA01031C98259943402C984B400C993A
:102F40005840149B4B401D99309E4B4026994B4056
:102F50002D9983EA010E0D9B159959401E9B5940EE
:102F6000279B59402E9B5940069B9C46109B8CEA00
:102F7000030C189B8CEA030C219B8CEA030C079B27
:102F800083EA060B029B8CEA0A0C8BEA030B039B79
:102F90008BEA030B6B0043EAD8738BEA040B5340B4
:102FA0005E403096039E5E403196079E5E403396AB
:102FB000029E5E40359683EA04064FEA48032F9C42
:102FC0003B9643EAD5736340109C83EA0406219C38
:102FD00083EA0A0A079683EA0406069C029683EAB5
:102FE0000406189C5C4032963494CDF884A04FEAD5
:102FF000400A1A9B4AEAD77A8AEA0B0A8AEA030449
:103000008AEA0909099B1094119CCDF860908AEA1C
:103010000409239CCDF868908AEA0409199CCDF82C
:10302000D8908AEA03097B00CDF8E09043EAD07398
:1030300083EA0C0383EA04092A9C83EA040A019CBC
:10304000CDF818A083EA040A229CCDF844A083EAB4
:10305000040A089CCDF8A8A083EA040A4C00259B2A
:10306000CDF8DCA044EADE746C400B9D654084EA38
:10307000030A1B9B01951C9D654022952C9D654074
:103080002C95139D65404FEA4E0444EAD1743A955D
:10309000249D84EA080484EA030684EA05080A9D5C
:1030A0001C962B9B654084EA0306129B5C405300F0
:1030B0002B9639942F9C43EAD4736600159C4340A9
:1030C00046EAD27683EA0402279C86EA07002E9E0F
:1030D000099283EA040283EA06072D9C0B92269A42
:1030E0004440149E424046400A920C9A4240239229
:1030F0001D9A42400D9858402D92179A1D901E9887
:1031000058404FEA4B0343EADC732E904FEA4C0CD5
:10311000289859404CEADB7C81EA020B299A8CEA18
:103120000E0381EA020C059ACDF84CC081EA020C2C
:10313000169ACDF814C083EA000C04985A40CDF8D2
:1031400030C083EA000CCDF80CC00E9883EA000C66
:103150001F98CDF890C083EA000C0F9BCDF898C063
:1031600081EA030C209B0798CDF894C081EA030CF8
:10317000309BCDF89CC04FEA105C10994CEA033CA0
:103180001B0D43EA003E4FEA4850CDF810E04FEAED
:10319000595E40EADA2301984EEAC12E490D0893A0
:1031A000030741EAC9214FEA4A594FEA873A49EAF7
:1031B000D8294AEA944AA40343EA151844EA9744F2
:1031C000029F2D07CDF83880FF0C45EA1018319D7D
:1031D000099847EA4537CDF83480EB0C029D43EA65
:1031E0004538069DCDF840804FEAD508189D48EA3D
:1031F0004578EB08069D43EA4575330512950505AC
:1032000043EA1033339845EA16354FEACB060F935D
:1032100046EA5273329ED200019342EA5B724FEA51
:10322000400B4BEAD67BCDF87CB04FEA460B4BEA1D
:10323000D07B1A98CDF864B04FEA801B119E0B9B8F
:103240004BEA966BCDF880B04FEA861B0A9E4BEA9C
:10325000906B1398CDF868B04FEA032B4BEA166BCE
:10326000CDF85CB04FEA062B0C9E4BEA136B049B27
:10327000CDF86CB04FEA804B4BEA963BCDF860B08E
:103280004FEA864B089E4BEA903B0398CDF808B076
:103290002EEA0C0B8BEA000B3C988BEA000B05988E
:1032A000CDF818B021EA030B3E9B8BEA000B039884
:1032B0008BEA030B049BCDF81CB024EA060B8BEAC7
:1032C0000E0B26EA0E0E8EEA0C0E2CEA000CCDF840
:1032D00024B08CEA040CCDF820E020EA040E2AEA9F
:1032E0000900CDF830C08EEA060C129CCDF82CC037
:1032F00080EA010C29EA0101CDF828C081EA030C1B
:10330000059923EA0100CDF80CC021EA0A0180EA00
:103310000A0CCDF814C081EA090C28EA0701CDF89F
:1033200010C081EA020CCDF844C01098019B24EA39
:10333000000181EA030C0D9B23EA0801CDF848C087
:1033400081EA070C0F9927EA0207CDF84CC022EA60
:10335000010287EA010CCDF83CC09C4621EA030338
:1033600082EA0C0C0E9ACDF834C083EA080C22EAEB
:103370000403CDF854C083EA000C019B20EA030744
:1033800023EA0506CDF850C087EA050C25EA0205B8
:10339000229FCDF840C086EA020C1C9E7A06CDF82A
:1033A00038C085EA040C73061D9DCDF858C042EA6A
:1033B000D61243EAD713239FE9062B981B9C41EAB8
:1033C000571C3699FF0624EA030B4FEAC13ECDF89D
:1033D00004C047EA55172A9D4FEA102A4EEA554E77
:1033E000ED0345EA51452C9922954AEA016A029D6E
:1033F0000E0A25EA0401189D46EA0066199881EA3A
:10340000030C179925EA0101CDF86CC081EA020C82
:10341000CDF870C0029D20EA0501189D81EA040CD8
:103420001A9C209923EA0403CDF874C08BEA040C9B
:1034300024EA000B029CCDF868C083EA000C1F9BB5
:10344000179823EA0509CDF864C08BEA040C20EA3A
:10345000020B22EA0102CDF878C089EA000C259817
:10346000CDF860C08BEA010C21EA030B2499CDF85A
:103470005CC082EA030C349A4FEA1178359B9402BF
:10348000CDF808C08BEA050C48EA001844EA9354CA
:103490003B9DCDF87CC04FEA832C379B000F4CEA54
:1034A000925C389A4FEA930940EA011049EA82791E
:1034B0009108269A41EA837B279BD10DCDF8BCB0B9
:1034C00041EA4321DB0D43EA4223AA002B93219BCF
:1034D00042EA937B9A00CDF8B0B042EA9572229D01
:1034E0002AEA050B8BEA040BCDF890B026EA0E0B06
:1034F0008BEA0C0BCDF894B027EA0A0B8BEA050B8C
:1035000025EA040524EA0804CDF898B085EA080BFA
:1035100028EA0708CDF888B084EA070B019C88EAFE
:103520000A08399F22EA010A24EA06053A9BCDF8E7
:10353000A08085EA0E082EEA0C0E7D0A2CEA000C0B
:103540008EEA000E20EA040045EAC3558CEA040C1A
:103550005C0A2D9BCDF884C080EA060C2E985E0E86
:1035600044EAC754CDF89C8046EAC016CDF88CE0FA
:10357000400ECDF8A4C08AEA060ACDF880B040EA31
:10358000C317119B12982A97099FCDF8C0A087EA0C
:1035900003081B9B0A9F88EA0308249B87EA000E06
:1035A000259F88EA03081C9B1D988EEA030E0B9B3F
:1035B00088EA0A088EEA070E139FCDF8048083EA92
:1035C000070C269B8CEA000C14988CEA030C049BD5
:1035D00083EA0007189B2C985F40279B80462B9816
:1035E0005F402A9B28EA00082A9888EA03082B9B58
:1035F0008EEA080B29EA020E8EEA010E21EA060184
:1036000026EA05068CEA0E0A694086EA090C25EAD4
:1036100009052C9E4FEA4B092D91614685EA020C63
:103620002F9DCDF8C4E025EA0602CDF8B8C02B9155
:1036300082EA030C23EA000320EA040062466340A6
:10364000684024EA050457400D9D2C9284EA060C3C
:10365000069A199C6A400E9D029E6240209CCDF8FD
:10366000A8C06240079C6C40089D4A402D99AC461A
:1036700074400F9D219E8CEA050574401A9E75408A
:10368000229E44407540039EB446109E4D400C99C6
:103690008CEA060E179E8EEA060E239E8EEA060E12
:1036A000159EB4461E9E8EEA030E8CEA06064E4018
:1036B00028994E402E994E4016998C461F998CEAB7
:1036C000010C05998CEA010C29998CEA010C2A99C4
:1036D0008CEA010C019949EAD179109989EA040927
:1036E00081EA09011091239981EA09012391039943
:1036F00081EA09013291179981EA090183EA0909EE
:1037000035910199CDF8F0904B000F9943EADB73A6
:10371000534081EA03092299CDF80C9081EA03090C
:103720000899CDF8889081EA03091A99CDF8BC90E0
:1037300081EA03092D99CDF8D09081EA03097B0035
:103740001C9943EADA7383EA0E03594088EA0308B6
:103750000F911299CDF8708081EA03082599CDF870
:10376000B48081EA0308CDF8DC800A9981EA030875
:103770004FEA4A031B9943EAD773CDF8E4806B40C4
:1037800081EA03083099CDF8288081EA030811996D
:10379000CDF86C8081EA03082499CDF8948081EA01
:1037A00003080999CDF8D88081EA03084FEA4E034F
:1037B000029943EAD573CDF8E0806D0083EA0C03EB
:1037C00045EADE7E0E9D81EA030801998EEA060E27
:1037D000CDF8688080EA03080698CDF8C08085EAB5
:1037E0000308199DCDF8CC8085EA0E082B9DCDF8F5
:1037F0005C8085EA0E080D9DCDF8908085EA0E0864
:10380000209DCDF8AC8085EA0E0880EA0E0E219D41
:103810000798CDF820E085EA030ECDF8E880CDF8D2
:10382000ECE080EA030E4FEA4C03CDF824E043EAD3
:10383000D673279D7600049883EA0B0346EADC766C
:103840005D4086EA010880EA030118980B9E80EA31
:10385000030C269886EA080E139E80EA080B1D9832
:10386000CDF880C080EA080C3198CDF874C080EAA9
:10387000080C2C98CDF898C086EA080C169ECDF856
:10388000C4C080EA030C1498CDF89CC080EA030CF5
:1038900063002A9843EAD273CDF8B0C052005F406B
:1038A000299B42EAD472784082EA0A0C86EA070A27
:1038B00083EA07062E9B159A83EA0C0482EA0C031E
:1038C0000294289C019384EA0C080C9C84EA0C0264
:1038D000039C0C92230D1E9A82EA0C0C059ACDF8DB
:1038E00054C082EA070C1F9A57400597109A43EA82
:1038F00002370A9B0697170D0F9A47EA0437029C76
:1039000007975F0D47EAC2270497570D47EAC3227E
:10391000019B6F050B9247EADB22259F4FEA4B5B29
:103920000E924BEAD52B850345EA9442179D0D92E2
:10393000A2031A9C42EA90400A0742EA1E124FEA8A
:103940000E7E10924FEA0A524EEA111E2F99CDF8C0
:103950003CE042EA133E1B05229ACDF844E043EADC
:103960001A3EE300CDF848E043EA557EEB00239D84
:10397000CDF84CE043EA547E1B9B1C9CCDF804E040
:103980004FEAD24E4EEA453EED0C45EA423ADA089D
:10399000E508CDF858A042EA44722D9C45EA4375EB
:1039A0001492329A530043EAD17A4900A301CDF828
:1039B00064A041EAD27AB901CDF85CA043EA976AE3
:1039C0003302CDF86CA041EA946ACDF860A0209C47
:1039D0001D9A6106339F41EAD21A51062B9ACDF8FF
:1039E00068A041EAD41A309CCDF808A0A10443EAAB
:1039F000186A249B4FEA0828CDF870A04FEA834A42
:103A000048EA166641EA93380C994AEA943A4FEA32
:103A1000CC63CDF87880CC0643EA5118359944EA56
:103A20005C1C279C130FCDF88080CDF87CC043EA46
:103A3000071C3B0F349FCDF884C043EA021C389A20
:103A40008B02CDF888C043EA975CBB02369FCDF865
:103A50008CC043EA915C37994FEAC738CB03CDF865
:103A60000CC048EA5148269943EA574C319F9308C5
:103A7000CDF894C04FEA112C4CEA046C240A44EAB5
:103A80000164399943EA81732A938B0843EA82716E
:103A90007B0A29912C9943EAC15328934B0A43EAA4
:103AA000C7532B93159A059F530E43EAC7113B9BAF
:103AB0007F0E2C9147EAC2173A993C9A2D97CF0D69
:103AC00047EA4327DB0D2E9743EA41233F9F2F937D
:103AD000930043EA99714FEA8909319149EA927951
:103AE0000699049A22EA010308994B405F400B9B18
:103AF0000497079F23EA0701099B409F59402BEA3F
:103B000002034F400699059783EA0107089B069731
:103B100021EA030123EA000381EA000720EA0B00FF
:103B200083EA0B0B0E99099BCDF828B080EA020BB3
:103B30000B98CDF820B021EA000B07990C978BEA7F
:103B4000010B0D9F21EA0301CDF81CB023EA070306
:103B500081EA070B3A46CDF834B00E9F22EA0701FE
:103B600083EA070B129ACDF82CB081EA000B01987A
:103B70000F9920EA0200119BCDF824B080EA010BD6
:103B80001398109F20EA0300019BCDF838B02EEA6D
:103B9000030380EA070B1398CDF83CB083EA020BCD
:103BA00022EA0103149ACDF840B021EA020183EA27
:103BB000020B22EA0E0281EA0E0E0199CDF850B0F6
:103BC000CDF848E082EA010E1699119A21EA000325
:103BD000CDF804E0179983EA020E22EA070327EAE8
:103BE00005021B9FCDF8C0E083EA050E169BCDF8B9
:103BF00054E025EA030582EA030ECDF84CE085EA9D
:103C0000000E0298CDF844E0864618982EEA00028D
:103C10001A9882EA010E20EA0702CDF858E0199DB1
:103C2000029B82EA050E189A26EA030322EA0100A3
:103C3000CDF85CE083EA020E21EA0A01029BCDF88E
:103C400060E080EA0A0E2AEA060A1E9ACDF874E0BD
:103C500081EA060E1C9927EA05001A9ECDF86CE051
:103C60008AEA030E21EA0603CDF864E083EA070E30
:103C700025EA02031546239FCDF808E080EA020EEC
:103C80000A4625EA0101CDF878E083EA020E219D7B
:103C90001F98CDF870E081EA060E0399229E21EA72
:103CA0000503209ACDF868E083EA000E27EA0603B0
:103CB000CDF87CE083EA020E039BCDF880E028EA91
:103CC000030383EA050E25EA000320EA0C00259D84
:103CD000CDF884E083EA0C0E80EA0800039B2CEA0E
:103CE000080CCDF898E02490BE468CEA030025EA43
:103CF0000703229083EA060026EA0203039022EAE1
:103D0000040083EA040624EA0504684027962C9EF2
:103D1000259084EA0700289C2A9B26EA040B2D9F05
:103D20002B9D9C4623908BEA0300299927EA0503E3
:103D300028902E984B402F9A20EA060A29932CEAC5
:103D400009038AEA040A24EA0C0484EA090429EA39
:103D50000009584025EA01032D9489EA06042B90B6
:103D600031982A9422EA0704434021EA0006414997
:103D70006C402E9320EA0203724083EA07093D9BC0
:103D80002C9299427FF492A8419A049813461060AD
:103D900005985060069890600798D0600898106168
:103DA000099850610A9890610B98D0610C98106244
:103DB0000D9850620E9890620F98D0621098106320
:103DC00030985063019890631198D06312981064F2
:103DD00013985064149890641598D06416981065E0
:103DE00017985065189890650298D06519981066D4
:103DF0001A9850661B9890661C98D0661D9810679C
:103E00001E9850671F9890672098D06721982A992C
:103E1000C2F880000398C2F8B010C2F8840022985B
:103E20002B99C2F888002398C2F8B810C2F88C0009
:103E300024982C99C2F890002598C2F8BC10C2F8BA
:103E4000940026982D99C2F898002798C2F8AC40A3
:103E5000C2F89C002898C2F8B490C2F8A000299833
:103E6000C2F8C010C2E9290A2E9AC3F8C42043B090
:103E7000BDE8F08F503B010843692DE9F0410D4644
:103E8000D907044628D58168334F82683940836852
:103E9000324E3348B94202EA060203EA000301D176
:103EA0000127A760B24202D14FF48076A660834218
:103EB00002D14FF48030A0602748814205D02749C5
:103EC0008A4202D0264A934206D1264B0121264A35
:103ED0001B6852F825009847E2686369920708D08A
:103EE0009F0706D51F4B00211F4A1B6852F825006B
:103EF0009847A16962698E0763690AD5900508D55C
:103F0000190406D5174B0521174A1B6852F82500DE
:103F10009847A769666917F00407626906F4806626
:103F200009D046B1120406D50E4B07210E4A1B6874
:103F300052F82500984763695FB156B11B0408D554
:103F4000084B0221084A1B6852F82500BDE8F041E1
:103F50001847BDE8F08100BF03000004000300081B
:103F600000000310140F0020080F0020002101485A
:103F7000FFF782BF00640040FFF7F8BFFFF7F6BF0E
:103F800001210148FFF778BF00680040FFF7F8BF44
:103F9000FFF7F6BF02210148FFF76EBF0034004073
:103FA000FFF7F8BFFFF7F6BF102300F009B8202392
:103FB00000F006B8302300F003B8402300F000B84A
:103FC000EFF30880042172460A4201D0EFF3098022
:103FD0009C46244B196802680A60043142680A60F2
:103FE000043182680A600431C2680A600431F0C199
:103FF00047460F6004314F460F60043157460F604B
:1040000004315F460F60043102690A600831426979
:104010000A60043182690A600431C2690A600431AD
:10402000034620334FF40076324200D00433754605
:104030001026354200D148330C46103C2360EFF384
:1040400009820A600431EFF308820A600431724683
:104050000A600431EFF314820A606046014900F0FF
:10406000FDF9FEE7EC3B010830B5036891FAA1F4D5
:10407000B4FA84F491FAA1F10325B1FA81F1640054
:10408000490005FA04F402FA01F123EA0403194392
:10409000016030BD00B5454B8DB00A2800F2838029
:1040A000DFE800F006131E29343F4A55606B7600A6
:1040B0001A6B3F4842F001021A631B6B03F00103C5
:1040C0000193019B0DB05DF804FB1A6B394842F077
:1040D00002021A631B6B03F002030293029BF1E7D7
:1040E0001A6B354842F004021A631B6B03F0040399
:1040F0000393039BE6E71A6B304842F008021A6309
:104100001B6B03F008030493049BDBE71A6B2C483A
:1041100042F010021A631B6B03F010030593059B1A
:10412000D0E71A6B274842F020021A631B6B03F09A
:1041300020030693069BC5E71A6B234842F0400212
:104140001A631B6B03F040030793079BBAE71A6BD4
:104150001E4842F080021A631B6B03F08003089331
:10416000089BAFE71A6B1A4842F480721A631B6B04
:1041700003F480730993099BA4E71A6B154842F472
:1041800000721A631B6B03F400730A930A9B99E78E
:104190001A6B114842F480621A631B6B03F480634C
:1041A0000B930B9B8EE70D4803F082FA0038024018
:1041B000000002400004024000080240000C0240DF
:1041C000001002400014024000180240001C02408F
:1041D000002002400024024000280240603B010809
:1041E000431C10B5044604D176220649064803F064
:1041F00013F9002104F00F0400F078FD0120A04025
:1042000010BD00BF813B0108D13B010870B54B1CBC
:1042100004460E46218216D0C1F30310FFF73AFF81
:1042200005463046FFF7DCFF238A074A03F00F03F9
:104230006561206052F82330A36105F11003183541
:104240006360A560E56070BD68410108B0F91000C9
:1042500000F0DEBD0A4619B981694069FFF704BF65
:104260000122F9E708B502F0D1FA002008BD0000EC
:1042700008B50A4B1B684BB102F0ACFF02F094FF8B
:104280004FF47A7200230DF009FA08BD02F01EFB0C
:104290004FF47A73B0FBF3F008BD00BF180F002095
:1042A00000B589B0144E154D03F0D2F8102101A8C5
:1042B00002F05BFD0424019A3046039B1A6003F070
:1042C000AFFA019B049A30461B04136003F0A8FA6E
:1042D000013CF0D10424019A2846039B1A6003F0A4
:1042E0009FFA019B049A28461B04136003F098FA76
:1042F000013CF0D1DEE700BFF0490200801A060061
:1043000010B5044603F0A4F8204606F019FA214639
:104310000246022000F098FABDE8104003F0AEB863
:1043200010B5A2B00B460246842101A808F0A8F8F7
:104330008328044605D9052205490DF1830005F0BF
:10434000F9FC002C02DD01A8FFF7DAFF22B010BD56
:10435000E43B01080FB407B504A951F8040B01911F
:10436000FFF7DEFF03B05DF804EB04B07047000018
:10437000F0B52C4C85B000252B4F264654F825204F
:10438000294601353846FFF7E5FF0D2DF6D1A36C20
:1043900004F1340125480293636C0193236C244C8F
:1043A00000930EC9FFF7D6FF21682248FFF7D2FF1E
:1043B000E16AA26AA36AA06AD2B2256BC3F307239B
:1043C000E76B000C0195009002971B48FFF7C2FFB6
:1043D000A36A1D0603D5616B1848FFF7BBFFA36AEC
:1043E000180403D5A16B1648FFF7B4FFF36C190747
:1043F00012D51448FFF7AEFF336DDA070FD5124818
:10440000FFF7A8FFF36C5B074CBF1048104805B0DE
:10441000BDE8F040FFF79EBF0E48FFF79BFF0E4838
:10442000EEE700BFF8010020803C01088E3C010847
:1044300000ED00E0DD3C0108EB3C01083A3D0108DD
:10444000483D0108563D0108653D0108953D0108BC
:10445000A13D0108853D0108723D010813B50446E0
:104460001548FFF777FF302C17D0402C1AD0202C9E
:104470001DD1124C1248FFF76DFF1248FFF76AFF7B
:10448000FFF776FF1048FFF765FF00230F4A20462D
:1044900000930F49D26B03F02BF90E48FFF75AFF38
:1044A0000D4CEAE70D48FFF755FF0D4CE5E70D48C9
:1044B000FFF750FF0C4CE0E7F03B01083E01FF80A6
:1044C000193C0108463C0108513C0108F801002054
:1044D000703C0108283C01083F01FF80313C010885
:1044E0004001FF803C3C01083D01FF80F8B5284BAE
:1044F0005A6912F4003211D1BFF34F8FBFF36F8F9F
:10450000C3F85022BFF34F8FBFF36F8F5A6942F445
:1045100000325A61BFF34F8FBFF36F8F1C4A53694C
:1045200013F4803328D1C2F88430BFF34F8FD2F810
:10453000803043F6E076C3F3C904C3F34E33A507D6
:104540005B0103EA060E284621464EEA00070139C0
:1045500000F14040C2F860724F1CF6D1203B13F1CD
:10456000200FEED1BFF34F8F536943F48033536173
:10457000BFF34F8FBFF36F8F02F0F6F800F098FF94
:1045800002F0E4F802F0F0F80122024B1A60F8BDE4
:1045900000ED00E0180F00200020704703680122A2
:1045A00000211B691847036800221B691146184740
:1045B00003681B69184703689B69184703689B6A6F
:1045C000184700290CBF6FF0180000207047012029
:1045D00070471120704770476FF01C0070476FF0F4
:1045E0001500704701207047002070477047000099
:1045F000F8B515460C468F18054EBC4205D014F888
:10460000011B304600F010FFF7E72846F8BD00BF59
:10461000C810002038B58DB215F0010405D0084847
:1046200000F054FC041C18BF0124EB0605D5044817
:1046300000F05CFC08B144F01004204638BD00BF17
:10464000C810002010B5044605F0E4FA204610BD5D
:1046500010B50C462AB1044800F0D4FE20700120A9
:1046600010BD104610BD00BFC810002038B51D4653
:10467000074B04460360074B1B6833B9064800F03C
:10468000B5FC2946044800F06DFC204638BD00BF4B
:10469000283E01083C0F0020C81000200020704771
:1046A00000207047002307B51A46009301490248CD
:1046B00003F01EF8AD3D01082901018008B5012075
:1046C00000F096F90C4A136810B51844EFF308810E
:1046D000884205D30C22094B4FF0FF301A6010BD01
:1046E00007490C6824B10749096821448842F1D27E
:1046F0001060184610BD00BF040400209010002078
:10470000340F0020380F002001207047012070472F
:10471000002105F021BD7047704708B5FFF7FBFF8A
:1047200008BD08B5FFF7F8FF08BD000008B503781D
:1047300003F00302012A0BD02AB140F28C52054942
:10474000054802F069FE43F002030370012008BD32
:10475000002008BD8D3E0108DA3E010808B5037847
:1047600003F00302022A05D040F29452044905489E
:1047700002F052FE23F0030343F00103037008BD6F
:104780008D3E0108003F01083F2870B504462FDC2C
:10479000184D55F820305A1C13D1022811DCFFF7B0
:1047A0007FFF034658B92046FFF778FF034630B92C
:1047B000114E3378BFF35B8FDB0704D50F4B45F801
:1047C0002430184670BD3046FFF7B0FF0028F5D002
:1047D0004FF41653392238210848FFF747FF304677
:1047E000FFF7BCFF064A07490448FFF78DFFE5E7DE
:1047F0000023E6E7040300201C0F0020300F0020F8
:10480000F8020020ED45000838B505460024FFF702
:10481000BBFF0B4B43F8254030B904F09BFA09234A
:1048200003604FF0FF3038BD03685B699847051E91
:1048300004DA6D4204F08EFA0560F2E7204638BDD6
:1048400004030020FFF7E0BF38B50C461546FFF71C
:104850009BFF38B904F07EFA092303604FF0FF3460
:10486000204638BD036821462A46DB689847041E67
:10487000F6DA644204F06EFA0460EFE708B5131E3E
:1048800006DA04F067FA162303604FF0FF3008BD24
:1048900004D0FFF7D9FF40EAE07008BD184608BD14
:1048A00038B50C461546FFF76FFF38B904F052FAD9
:1048B000092303604FF0FF34204638BD03682146CA
:1048C0002A469B689847041EF6DA644204F042FACE
:1048D0000460EFE7002A08B503DBBDE80840FFF7F6
:1048E000DFBF04F037FA162303604FF0FF3008BD36
:1048F00010B5FFF749FF044628B904F02BFA092345
:104900000360204610BD0368DB699847041EF8DA8F
:10491000644204F01FFA04600024F2E71FB5042289
:104920000C46402301900DEB02010DF109008DF8BA
:10493000083005F0FFF9214602A804F0D9FC04462E
:1049400030B10198FFF7D4FF10B12046FFF7E0FE29
:10495000204604B010BDFFF7CBBF38B50C46154656
:10496000FFF712FF38B904F0F5F9092303604FF09F
:10497000FF34204638BD036821462A461B69984704
:10498000041EF6DA644204F0E5F90460EFE7FFF78D
:10499000E4BF10B5FFF7F8FE30B904F0DBF90923E6
:1049A00003604FF0FF3010BD03689B699847041EF9
:1049B00004DA644204F0CEF90460F2E7002010BD8E
:1049C0000A4C054608B52368986804F0FDFA236888
:1049D000D86804F0F9FA0120FFF7DBFF0220FFF7A7
:1049E000D8FF0DB1FFF75CFCFEE700BF1804002004
:1049F00008B5FFF7E5FF38B50D46FFF7C5FE0446DD
:104A000030B904F0A7F9092303604FF0FF3038BD37
:104A10000368DB6998470028204614BF4FF4005311
:104A20004FF400436B6023689B6A9847286100201D
:104A300038BDFFF7E0BF000013B5044605F0E2F80B
:104A4000034628B9009022460249034802F050FE6E
:104A500002B010BD703E01081F01018005F0DAB8F8
:104A600008B5034653F8082B02B9036002689A425E
:104A700004D068220249034802F0CEFC184608BD63
:104A8000B73D01080C3E010810B504460948FFF780
:104A9000E7FF0023084A194652F82300A04208BF46
:104AA00042F823100133402BF6D10248FFF7D8FF1C
:104AB00010BD00BF200F00200403002010B50F48D8
:104AC0000324FFF7CDFF0E4B53F824206AB10134C5
:104AD000402CF9D104F03EF918234FF0FF34036065
:104AE0000648FFF7BDFF204610BD4FF0FF320348D8
:104AF00043F82420FFF7B4FFF5E700BF200F0020A4
:104B00000403002010B50446FFF7D8FF0028A4BF17
:104B1000014B43F8204010BD0403002070B5064649
:104B20000C46FFF7EFFF054690B12146FFF7F6FE72
:104B3000044630B9074B53F82520964203D143F879
:104B40002500204670BD04F005F909230360F8E74D
:104B50000446F6E7040300200EB42DE9F04185B0C9
:104B60000546FFF7ABFF041E13DB0023294602A80E
:104B70001E4D019302F044FB02A802F091FB064691
:104B800068B904F0E7F81323036045F824604FF098
:104B9000FF34204605B0BDE8F04103B0704702A8DD
:104BA00002F06CFB074602A837B102F070FB0190DF
:104BB000019B45F82430ECE702F057FB064600283D
:104BC000DFD0036802A8D3F8088002F043FB0B9BF8
:104BD000024601A93046C04706460028E8D0764282
:104BE00004F0B8F8066045F82470D0E7040300200C
:104BF00073B50E461849054605F026FC044620B953
:104C0000FFF7C2FD204602B070BD1449284605F0EA
:104C10001BFC20B901200124FFF7B6FDF2E7104983
:104C2000284605F011FC20B902200224FFF7ACFD54
:104C3000E8E72B78402B07D10422691C0DEB02001A
:104C400005F078F8019CDDE726F400412846FFF7DF
:104C500083FF0446D6E700BF473F01084E3F0108E7
:104C60003F3F010870477047074B08499A6808485A
:104C7000043A10B552F8044F41F8044F8142F9D17B
:104C80004FF000529A6010BD00ED00E0FCFFFF1FE6
:104C9000C401002008B5FFF7E7FFFFF727FCFFF787
:104CA000E2FF08BD08B5FFF7DDFFBDE80840FBF7F0
:104CB00061BB30B5C36891FAA1F4B4FA84F491FAF7
:104CC000A1F10325B1FA81F16400490005FA04F469
:104CD00002FA01F123EA04031943C16030BD012A3D
:104CE00002D0022A18BF0022FFF7E3BF2DE9F041EE
:104CF0000E46411C04D13E224149424802F08CFB41
:104D000000F00F08404BC0F3031006F0070553F8FE
:104D10002840FFF7BFF9836894FAA4F1B1FA81F152
:104D200094FAA4F203274900B2FA82F207FA01F1D9
:104D3000520023EA0103022101FA02F213438360C5
:104D4000BD4259D8DFE805F01D1D021DB8F1070F5F
:104D5000C6F303273AD9426A230A93FAA3F1B1FAB8
:104D600081F193FAA3F34FF00F0EB3FA83F38900A6
:104D70009B000EFA01F107FA03F322EA0102134342
:104D80004362026894FAA4F1B1FA81F194FAA4F3AF
:104D90000327B3FA83F349005B0007FA01F105FA30
:104DA00003F3013D22EA0102012D43EA02030360FD
:104DB00005D8436832074CBF2343A3434360C6F37F
:104DC00001122146BDE8F041FFF789BF026A94FA5B
:104DD000A4F3B3FA83F394FAA4F14FF00F0EB1FAEF
:104DE00081F19B0089000EFA03F322EA030207FA1D
:104DF00001F313430362C4E76722014903487DE7D7
:104E0000A8410108D13B0108684101084545010856
:104E1000431C70B50D4604D188221F491F4802F07B
:104E2000FBFA00F00F021E4BC0F3031053F82240B0
:104E3000FFF730F9066894FAA4F1B1FA81F394FA15
:104E4000A4F259000323B2FA82F28B40520033409D
:104E5000D340013B012B05D8EB1E022B436809D838
:104E600023434360032D08D101222146BDE8704051
:104E7000FFF735BF23EA04034360012DF4D0052D6D
:104E800001D0022D01D10222EFE721460022BDE828
:104E90007040FFF70EBF00BFA8410108D13B0108D9
:104EA000684101080FB4074B1B6807B5064905AAFE
:104EB000D868019207F096FA03B05DF804EB04B0ED
:104EC000704700BF18040020F641010842687023B3
:104ED0005343054AD358DA69120701D508221A62EA
:104EE000D869C0F340107047141100204268702345
:104EF0005343034AD358D869C0F3C010704700BF6A
:104F0000141100204368702215495A4310B40468F4
:104F10005318545082685A60C2689A600269DA6015
:104F200042691A61026A9A610022A3F85220DA618A
:104F3000A3F85020A3F85A20A3F85820B0F91A205B
:104F4000013206D108225A6118465DF8044B01F07F
:104F500014BBB0F9182001320CBF04220C22F2E776
:104F60001411002010B581600C46FFF7CBFF28B16B
:104F700021460348BDE81040FFF794BF10BD00BFB5
:104F8000F6410108184B98421FD0A3F54C439842B4
:104F90001DD003F5806398421BD003F580639842CF
:104FA00019D003F58063984217D003F54443984223
:104FB00015D0A3F51C43984213D003F580639842A3
:104FC0000CBF07204FF0FF307047002070470120D2
:104FD0007047022070470320704704207047052067
:104FE00070470620704700BF00100140F0B50E4624
:104FF000154689B004466749304601F001FF07466F
:105000006549284601F0FCFE0146384601F0D4FE11
:105010002060013004D13D226049614802F0FCF972
:10502000382E0AD0392D08D05A49382001F0E8FE30
:10503000874221D15B4802F03BFB012720685A4B95
:1050400098421BD103F594335A6C42F010025A6413
:105050005B6C03F010030093009B544B98422AD1E1
:1050600003F592335A6C42F020025A645B6C03F0F1
:1050700020030593059B58E00027DFE74C4B98423F
:105080000BD103F5FA331A6C42F400321A641B6C2C
:1050900003F400330193019BDFE7464B984219D19B
:1050A00003F5F8331A6C42F480221A641B6C03F483
:1050B00080230293029B404B984219D103F5E033C1
:1050C0001A6C42F080421A641B6C03F08043069312
:1050D000069B2AE0394B984219D103F5F6331A6C36
:1050E00042F400221A641B6C03F400230393039B15
:1050F000334B984219D103F5DE331A6C42F000426B
:105100001A641B6C03F000430793079B0DE02D4BC3
:105110009842A2D103F5F4331A6C42F480121A6457
:105120001B6C03F480130493049BFFF72BFF0028F0
:10513000606003DAA422194923486FE71549304615
:1051400001F016FE1449284601F012FE721C03D02D
:1051500001213046FFF75CFE6B1C03D0012128467D
:10516000FFF756FE4FF41653268365832046A3604F
:105170000023E360236163612362FFF7C3FE3FB155
:105180000122124B214612481A604C2204F0D2FD33
:1051900009B0F0BD60400108583F010820420108F5
:1051A000724201088E4201080010014000140140C3
:1051B000004400400048004000780040004C00409F
:1051C000007C004000500040C34201083C0F00201A
:1051D000C8100020002808DB4209012300F01F004E
:1051E00003FA00F0014B43F82200704700E100E0B1
:1051F00000280DDB4309012200F01F00203302FAD2
:1052000000F0044A42F82300BFF34F8FBFF36F8FC3
:10521000704700BF00E100E070B5FFF7B3FE051E68
:105220002BDB164E56F8250038B37023144C6B4315
:10523000E358DA69120606D5DB69190603D5114B66
:1052400001211B68984770236B43E358DA69920683
:1052500008D5DB69980605D50A4B002156F82500CC
:105260001B68984770235D436359DA69110704D5B9
:10527000DA69120701D508221A6270BD440F0020B6
:1052800014110020400F00200148FFF7C5BF00BFE8
:10529000007C00400148FFF7BFBF00BF007800401E
:1052A0000148FFF7B9BF00BF001401400148FFF7F4
:1052B000B3BF00BF005000400148FFF7ADBF00BFC3
:1052C000004C00400148FFF7A7BF00BF0048004066
:1052D0000148FFF7A1BF00BF004400400148FFF7AD
:1052E0009BBF00BF00100140034B19604168034B96
:1052F00043F82120704700BF400F0020440F0020DA
:1053000070B4334B41C898423FD00ED8A3F5006328
:10531000984234D003F58063984233D0A3F50063FC
:1053200098420AD12B4C262016E02B4B984232D0C3
:1053300006D8A3F5806398422AD0002420460BE0CB
:10534000264B984206D003F580639842F5D1244C51
:10535000472001E0234C25207023234D734302B3E3
:10536000EA581368D1B943F02003136000F110022A
:105370001E4B9B6843F8224070BCFFF72BBF1C4CB0
:105380002720E9E71B4C3420E6E71B4C3520E3E7F8
:105390001A4C5220E0E71A4C5320DDE743F080031B
:1053A000E3E7EB581A6849B922F020021A601B683B
:1053B00013F0800F09D170BCFFF71ABF22F08002F2
:1053C0001A601B6813F0200FF4E770BC704700BF31
:1053D00000500040D1520008007C00400010014005
:1053E000A1520008DD5200081411002000ED00E079
:1053F000C5520008B9520008AD5200089552000885
:105400008952000838B5044645682046FFF75EFD1E
:105410000028FAD07023034A6B43D358586AC0F36C
:10542000080038BD1411002070B505460C464668CA
:105430002846FFF75BFD0028FAD07023034AC4F327
:1054400008047343D3589C6270BD00BF1411002040
:10545000DFF820D0002103E0074B5B5843500431B4
:105460000648074B42189A42F6D301F0D9F8FAF7EA
:10547000E7FE70470000082064530108F80200208E
:10548000E00D0020FEE70000074A0002D36800F4A8
:10549000E06023F4E0631B041B0C43F0BF6343F4A0
:1054A00000330343D360704700ED00E07047000015
:1054B00008B5094B03201A6842F400721A601A6892
:1054C00042F480721A60FFF7DFFF0F20FEF7CAFE7A
:1054D000FFF7ECFF002008BD003C0240194B37B538
:1054E0001A6C194C42F080521A641B6C03F0805302
:1054F0000193019B236843F480332360FEF7B8FED9
:1055000005466368DA030CD5236843F4003323604F
:10551000FEF7AEFE0C4C054663689B030AD50020DF
:1055200006E0FEF7A5FE401BB0F57A7FE9D903201F
:1055300003B030BDFEF79CFE401BB0F57A7FEBD97F
:10554000F5E700BF00380240007000402DE9F74346
:105550000268044612F001060BD0BA4B996821F498
:1055600000019960466B99683143B6FA86F6760970
:10557000996012F4002512D0B249E56BD1F88C3055
:10558000B5F5801F23F4401308BF012643EA050345
:1055900016BFB5FA85F500256D09C1F88C30D70224
:1055A00010D5A848216CD0F88C30B1F5800F23F4C9
:1055B000400343EA0103C0F88C3000F0A9810029C0
:1055C00008BF012512F0807F18BF0126900631D553
:1055D0009C4B9D4F1A6C42F080521A641B6C03F076
:1055E00080530193019B3B6843F480733B60FEF75B
:1055F0003FFE80463B68D90540F18C81914F3B6F5F
:1056000013F4407340F09181236B03F44072B2F5C0
:10561000407F8C4A40F0AF81916823F0704021F4C4
:10562000F81120F4407001439160C3F30B03116F34
:105630000B4313672368DF060CD5824AD2F88C101F
:1056400021F08071C2F88C10D2F88C10A06B01434D
:10565000C2F88C10580408D57A49606ED1F89020B1
:1056600022F440320243C1F89020190408D575494C
:10567000A06ED1F8902022F440220243C1F890207D
:10568000DA0308D56F49E06ED1F8902022F4401279
:105690000243C1F890209F0308D56A49206FD1F8D2
:1056A000902022F440020243C1F89020580608D509
:1056B0006449606CD1F8902022F003020243C1F8E3
:1056C0009020190608D55F49A06CD1F8902022F0EF
:1056D0000C020243C1F89020DA0508D55949E06C64
:1056E000D1F8902022F030020243C1F890209F05AB
:1056F00008D55449206DD1F8902022F0C002024311
:10570000C1F89020580508D54E49606DD1F8902019
:1057100022F440720243C1F89020190508D5494986
:10572000A06DD1F8902022F440620243C1F890208D
:10573000DA0408D54349E06DD1F8902022F44052B4
:105740000243C1F890209F0408D53E49206ED1F84D
:10575000902022F440420243C1F89020580208D51C
:105760003849A06FD1F8902022F080620243C1F83E
:10577000902099020CD53348E16FD0F89020B1F118
:10578000006F22F0006208BF01250A43C0F8902094
:1057900013F0080F18BF01255A0308D52949606F77
:1057A000D1F8902022F040720243C1F890201F02ED
:1057B00009D52449D4F88000D1F8902022F08052F5
:1057C0000243C1F89020580109D51E49D4F884003D
:1057D000D1F8902022F000520243C1F89020190124
:1057E00009D51849D4F88800D1F88C2022F000722D
:1057F0000243C1F88C20DA0009D51249D4F88C0094
:10580000D1F88C2022F080620243C1F88C20012E56
:1058100000F0B580B3F1007F00F0B180012D75D1AB
:10582000084D2B6823F080532B60FEF721FD0646C0
:105830002B689F0000F1278121680E0306D5E36BDA
:1058400043B103E00038024000700040CD021DD596
:10585000236CDBB9934AD2F88830D2F8880003F47D
:10586000403300F0E0400343606943EA8013A069DD
:1058700043EA0063C2F88830D2F88C30A06A23F47F
:10588000F853013843EA0023C2F88C30880215D55A
:10589000E36FB3F1006F11D1824AD2F88830D2F8A9
:1058A000880003F0706300F0E0400343606943EA5E
:1058B0008013206A43EA0043C2F888300A0719D5EA
:1058C0007849D1F88820D1F8883002F0706203F46A
:1058D00040331343626943EA8213E26943EA027385
:1058E000C1F88830D1F88C30E26A23F44033134396
:1058F000C1F88C306B4C236843F080532360FEF773
:10590000B7FC054623689B0040F1C480002009E0F5
:10591000012657E6FEF7ACFCA0EB080064287FF6F2
:1059200069AE032003B0BDE8F083226B02F440723D
:1059300093423FF469AE3B6F3A6F23F4407342F4F5
:1059400080323A673A6F22F480323A673B673B6FA6
:10595000DA077FF559AEFEF78BFC41F288398046B5
:105960003B6F9B073FF550AEFEF782FCA0EB0800B3
:105970004845F5D9D5E7916821F4F81154E6494E28
:10598000336823F080633360FEF772FC07463368A8
:105990001B0172D42268D70712D5636B83B9D6F87E
:1059A0008430D6F8841003F4403301F070610B4367
:1059B000616843EA8113A16843EA0173C6F8843041
:1059C000160303D5E36BB3F5801F05D0D0021ED5B7
:1059D000236CB3F5800F1AD13249D1F88430D1F855
:1059E000840003F4403300F0E0400343606843EA7E
:1059F0008013E06843EA0063C1F88430D1F88C007A
:105A0000636A20F01F00013B0343C1F88C30D101D1
:105A100011D52449D1F88430D1F8840003F07063A3
:105A200000F0E0400343606843EA8013206943EAE2
:105A30000043C1F8843092010DD5236962681B04CC
:105A400043EA8213E26843EA0263A26843EA02730C
:105A5000144AC2F88430134E336843F080633360D5
:105A6000FEF706FC074633681B013FF5D7AEFEF78D
:105A7000FFFBC01B6428F6D953E7FEF7F9FBC01BF8
:105A8000642884D94DE7FEF7F3FB801B64287FF67A
:105A9000CFAE46E7FEF7ECFB401B64287FF632AF43
:105AA0003FE700BF003802402DE9F341044618B932
:105AB000012002B0BDE8F0810368D80710D4236844
:105AC00099075ED42368190700F1A38023685A0759
:105AD00000F1C480A269002A40F02E810020E8E78E
